{
  "address": "0x1DdaB491FD83282597e0F6d80d5495dc2fC7271a",
  "abi": [
    {
      "inputs": [],
      "name": "InvalidInitialization",
      "type": "error"
    },
    {
      "inputs": [],
      "name": "NotInitializing",
      "type": "error"
    },
    {
      "inputs": [
        {
          "internalType": "address",
          "name": "token",
          "type": "address"
        }
      ],
      "name": "SafeERC20FailedOperation",
      "type": "error"
    },
    {
      "anonymous": false,
      "inputs": [
        {
          "indexed": false,
          "internalType": "uint64",
          "name": "version",
          "type": "uint64"
        }
      ],
      "name": "Initialized",
      "type": "event"
    },
    {
      "inputs": [],
      "name": "GRADUATION_AMOUNT",
      "outputs": [
        {
          "internalType": "uint256",
          "name": "",
          "type": "uint256"
        }
      ],
      "stateMutability": "view",
      "type": "function"
    },
    {
      "inputs": [],
      "name": "POST_GRADUATION_AMOUNT",
      "outputs": [
        {
          "internalType": "uint256",
          "name": "",
          "type": "uint256"
        }
      ],
      "stateMutability": "view",
      "type": "function"
    },
    {
      "inputs": [],
      "name": "TICK_SPACING",
      "outputs": [
        {
          "internalType": "int24",
          "name": "",
          "type": "int24"
        }
      ],
      "stateMutability": "view",
      "type": "function"
    },
    {
      "inputs": [
        {
          "components": [
            {
              "internalType": "contract IERC20",
              "name": "tokenBase",
              "type": "address"
            },
            {
              "internalType": "contract IERC20",
              "name": "tokenQuote",
              "type": "address"
            },
            {
              "internalType": "int24",
              "name": "tick0",
              "type": "int24"
            },
            {
              "internalType": "int24",
              "name": "tick1",
              "type": "int24"
            },
            {
              "internalType": "int24",
              "name": "tick2",
              "type": "int24"
            }
          ],
          "internalType": "struct ICLMMAdapter.AddLiquidityParams",
          "name": "_params",
          "type": "tuple"
        }
      ],
      "name": "addSingleSidedLiquidity",
      "outputs": [
        {
          "internalType": "address",
          "name": "",
          "type": "address"
        }
      ],
      "stateMutability": "nonpayable",
      "type": "function"
    },
    {
      "inputs": [],
      "name": "clPoolFactory",
      "outputs": [
        {
          "internalType": "contract IClPoolFactory",
          "name": "",
          "type": "address"
        }
      ],
      "stateMutability": "view",
      "type": "function"
    },
    {
      "inputs": [
        {
          "internalType": "address",
          "name": "_token",
          "type": "address"
        }
      ],
      "name": "claimFees",
      "outputs": [
        {
          "internalType": "uint256",
          "name": "fee0",
          "type": "uint256"
        },
        {
          "internalType": "uint256",
          "name": "fee1",
          "type": "uint256"
        }
      ],
      "stateMutability": "nonpayable",
      "type": "function"
    },
    {
      "inputs": [
        {
          "internalType": "address",
          "name": "_token",
          "type": "address"
        }
      ],
      "name": "claimedFees",
      "outputs": [
        {
          "internalType": "uint256",
          "name": "fee0",
          "type": "uint256"
        },
        {
          "internalType": "uint256",
          "name": "fee1",
          "type": "uint256"
        }
      ],
      "stateMutability": "view",
      "type": "function"
    },
    {
      "inputs": [
        {
          "internalType": "address",
          "name": "_launchpad",
          "type": "address"
        },
        {
          "internalType": "address",
          "name": "_swapRouter",
          "type": "address"
        },
        {
          "internalType": "address",
          "name": "_nftPositionManager",
          "type": "address"
        },
        {
          "internalType": "address",
          "name": "_clPoolFactory",
          "type": "address"
        }
      ],
      "name": "initialize",
      "outputs": [],
      "stateMutability": "nonpayable",
      "type": "function"
    },
    {
      "inputs": [],
      "name": "launchpad",
      "outputs": [
        {
          "internalType": "address",
          "name": "",
          "type": "address"
        }
      ],
      "stateMutability": "view",
      "type": "function"
    },
    {
      "inputs": [],
      "name": "nftPositionManager",
      "outputs": [
        {
          "internalType": "contract IERC721",
          "name": "",
          "type": "address"
        }
      ],
      "stateMutability": "view",
      "type": "function"
    },
    {
      "inputs": [],
      "name": "swapRouter",
      "outputs": [
        {
          "internalType": "contract ICLSwapRouter",
          "name": "",
          "type": "address"
        }
      ],
      "stateMutability": "view",
      "type": "function"
    },
    {
      "inputs": [
        {
          "internalType": "contract IERC20",
          "name": "_tokenIn",
          "type": "address"
        },
        {
          "internalType": "contract IERC20",
          "name": "_tokenOut",
          "type": "address"
        },
        {
          "internalType": "uint256",
          "name": "_amountIn",
          "type": "uint256"
        },
        {
          "internalType": "uint256",
          "name": "_minAmountOut",
          "type": "uint256"
        }
      ],
      "name": "swapWithExactInput",
      "outputs": [
        {
          "internalType": "uint256",
          "name": "amountOut",
          "type": "uint256"
        }
      ],
      "stateMutability": "nonpayable",
      "type": "function"
    },
    {
      "inputs": [
        {
          "internalType": "contract IERC20",
          "name": "_tokenIn",
          "type": "address"
        },
        {
          "internalType": "contract IERC20",
          "name": "_tokenOut",
          "type": "address"
        },
        {
          "internalType": "uint256",
          "name": "_amountOut",
          "type": "uint256"
        },
        {
          "internalType": "uint256",
          "name": "_maxAmountIn",
          "type": "uint256"
        }
      ],
      "name": "swapWithExactOutput",
      "outputs": [
        {
          "internalType": "uint256",
          "name": "amountIn",
          "type": "uint256"
        }
      ],
      "stateMutability": "nonpayable",
      "type": "function"
    },
    {
      "inputs": [
        {
          "internalType": "contract IERC20",
          "name": "token",
          "type": "address"
        },
        {
          "internalType": "uint256",
          "name": "index",
          "type": "uint256"
        }
      ],
      "name": "tokenToClaimedFees",
      "outputs": [
        {
          "internalType": "uint256",
          "name": "claimedFees",
          "type": "uint256"
        }
      ],
      "stateMutability": "view",
      "type": "function"
    },
    {
      "inputs": [
        {
          "internalType": "contract IERC20",
          "name": "token",
          "type": "address"
        },
        {
          "internalType": "uint256",
          "name": "index",
          "type": "uint256"
        }
      ],
      "name": "tokenToLockId",
      "outputs": [
        {
          "internalType": "uint256",
          "name": "lockId",
          "type": "uint256"
        }
      ],
      "stateMutability": "view",
      "type": "function"
    },
    {
      "stateMutability": "payable",
      "type": "receive"
    }
  ],
  "transactionHash": "0xa065530ef4fee7e5187a6f1ace30fd0a6eb527c5e19e21e9779d8031beb6c49d",
  "args": [],
  "numDeployments": 1,
  "solcInputHash": "dc376a8eaa66c22995ab4c117f27f18a",
  "bytecode": "0x60e080604052346100795760c86080526b01f04ef12cb04cf15800000060a0526b014adf4b7320334b9000000060c0526115aa908161007f8239608051818181610445015281816105f601528181610714015261099d015260a0518181816106d90152610a2c015260c05181818161079a0152610a5d0152f35b600080fdfe608080604052600436101561001d575b50361561001b57600080fd5b005b60003560e01c90816302669b5214610fa75750806315a0ea6a14610d9257806323f3246a146107bd57806326273b341461078257806345a8b0871461073a57806346ca626b146106fc5780636c4b2081146106c15780637f6ad71a146105625780638439788814610539578063b31cd0d2146103b0578063c31c9c0714610387578063f0f8021e14610324578063f375b5de146102fb578063f8c8765e1461011c5763ff64fb64146100cf573861000f565b34610117576040366003190112610117576001600160a01b036100f0610fcb565b16600052600560205260406000206024356000526020526020604060002054604051908152f35b600080fd5b3461011757608036600319011261011757610135610fcb565b61013d610fe1565b6044356001600160a01b03811690819003610117576064356001600160a01b038116939084900361011757600080516020611555833981519152549360ff8560401c16159467ffffffffffffffff8116801590816102f3575b60011490816102e9575b1590816102e0575b506102cf5767ffffffffffffffff19811660011760008051602061155583398151915255856102a2575b50306001600160601b0360a01b60005416176000556001600160601b0360a01b600254161760025560018060a01b03166001600160601b0360a01b60015416176001556001600160601b0360a01b600454161760045560018060a01b03166001600160601b0360a01b600354161760035561024957005b68ff0000000000000000196000805160206115558339815191525416600080516020611555833981519152557fc7f505b2f371ae2175ee4913f4499e1f2633a7b5936321eed1cdaeb6115181d2602060405160018152a1005b68ffffffffffffffffff1916680100000000000000011760008051602061155583398151915255856101d2565b63f92ee8a960e01b60005260046000fd5b905015876101a8565b303b1591506101a0565b879150610196565b34610117576000366003190112610117576002546040516001600160a01b039091168152602090f35b346101175760203660031901126101175760406001600160a01b03610347610fcb565b1680600052600660205281600020600080526020528160002054906000526006602052816000206001600052602052816000205482519182526020820152f35b34610117576000366003190112610117576003546040516001600160a01b039091168152602090f35b34610117576103be3661104c565b6103cd8194939430338661140c565b60035460405163095ea7b360e01b81526001600160a01b0391821660048201526000196024820152919084166020836044816000855af1918215610502576020946104a7946101049461050e575b5060018060a01b0360035416976040519361043585610ff7565b845260018060a01b0316868401527f000000000000000000000000000000000000000000000000000000000000000060020b604084015233606084015242608084015260a083015260c0820152600060e0820152600060405196879485936318e29d0760e31b855260048501906110fe565b5af1918215610502576000926104cc575b6020836104c484611457565b604051908152f35b91506020823d6020116104fa575b816104e76020938361102a565b81010312610117579051906104c46104b8565b3d91506104da565b6040513d6000823e3d90fd5b61052d90873d8911610532575b610525818361102a565b8101906110e6565b61041b565b503d61051b565b34610117576000366003190112610117576004546040516001600160a01b039091168152602090f35b34610117576105703661104c565b90919261057f8330338461140c565b60035460405163095ea7b360e01b81526001600160a01b03918216600482015260001960248201529291166020836044816000855af19182156105025760209461065894610104946106a6575b5060018060a01b036003541696604051936105e685610ff7565b845260018060a01b0316868401527f000000000000000000000000000000000000000000000000000000000000000060020b604084015233606084015242608084015260a083015260c0820152600060e0820152600060405195869485936350131c1f60e11b855260048501906110fe565b5af1801561050257600090610673575b602090604051908152f35b506020813d60201161069e575b8161068d6020938361102a565b810103126101175760209051610668565b3d9150610680565b6106bc90873d891161053257610525818361102a565b6105cc565b346101175760003660031901126101175760206040517f00000000000000000000000000000000000000000000000000000000000000008152f35b346101175760003660031901126101175760206040517f000000000000000000000000000000000000000000000000000000000000000060020b8152f35b34610117576040366003190112610117576001600160a01b0361075b610fcb565b16600052600660205260406000206024356000526020526020604060002054604051908152f35b346101175760003660031901126101175760206040517f00000000000000000000000000000000000000000000000000000000000000008152f35b346101175760a036600319011261011757600060405160a0810181811067ffffffffffffffff821117610d7e576040526107f5610fcb565b81526107ff610fe1565b9060208101918252604435908160020b8203610d7a5760408101918252606435928360020b8403610d765760608201938452608435928360020b8403610d72576080830193845261085b60018060a01b0360015416331461108a565b805160020b60001901627fffff198112627fffff821317610d5e5760020b948560ff1d8681011895620d89e88711610d4c57600160801b7001fffcb933bd6fad37aa2d162d1a5940016001891602189688919060028116610d30575b60048116610d14575b60088116610cf8575b60108116610cdc575b60208116610cc0575b60408116610ca4575b60808116610c88575b6101008116610c6c575b6102008116610c50575b6104008116610c34575b6108008116610c18575b6110008116610bfc575b6120008116610be0575b6140008116610bc4575b6180008116610ba8575b620100008116610b8c575b620200008116610b71575b620400008116610b56575b6208000016610b3e575b13610b33575b83518351600280546040516308caa96b60e21b81526001600160a01b03948516600482015292841660248401527f00000000000000000000000000000000000000000000000000000000000000009182900b604484015263ffffffff909901602090811c841660648401529198909492899160849183918d91165af1968715610b28578897610adf575b509282610a9a92610a5160209a966040989660018060a01b038851169160018060a01b03875116905160020b855160020b917f000000000000000000000000000000000000000000000000000000000000000094611233565b855193519151985190987f000000000000000000000000000000000000000000000000000000000000000094600292830b939190920b916001600160a01b039182169116611233565b81516001600160a01b03908116845260058089528585208580528952858520969096559151821683529386528282206001835286529190209190915560405191168152f35b9096506020813d602011610b20575b81610afb6020938361102a565b81010312610b1c57516001600160a01b0381168103610b1c579560406109f8565b8780fd5b3d9150610aee565b6040513d8a823e3d90fd5b94600019049461096e565b966b048a170391f7dc42444e8fa20260801c96610968565b6d2216e584f5fa1ea926041bedfe9890980260801c9761095e565b976e5d6af8dedb81196699c329225ee6040260801c97610953565b976f09aa508b5b7a84e1c677de54f3e99bc90260801c97610948565b976f31be135f97d08fd981231505542fcfa60260801c9761093d565b976f70d869a156d2a1b890bb3df62baf32f70260801c97610933565b976fa9f746462d870fdf8a65dc1f90e061e50260801c97610929565b976fd097f3bdfd2022b8845ad8f792aa58250260801c9761091f565b976fe7159475a2c29b7443b29c7fa6e889d90260801c97610915565b976ff3392b0822b70005940c7a398e4b70f30260801c9761090b565b976ff987a7253ac413176f2b074cf7815e540260801c97610901565b976ffcbe86c7900a88aedcffc83b479aa3a40260801c976108f7565b976ffe5dee046a99a2a811c461f1969c30530260801c976108ed565b976fff2ea16466c96a3843ec78b326b528610260801c976108e4565b976fff973b41fa98c081472e6896dfb254c00260801c976108db565b976fffcb9843d60f6159c9db58835c9266440260801c976108d2565b976fffe5caca7e10e4e61c3624eaa0941cd00260801c976108c9565b976ffff2e50f5f656932ef12357cf3c7fdcc0260801c976108c0565b976ffff97272373d413259a46990580e213a0260801c976108b7565b6345c3193d60e11b8852600452602487fd5b634e487b7160e01b87526011600452602487fd5b8580fd5b8480fd5b8380fd5b634e487b7160e01b83526041600452602483fd5b34610117576020366003190112610117576004610e09610db0610fcb565b610dc560018060a01b0360015416331461108a565b6001600160a01b031660008181526005602090815260408083208380529091528082205460018352912054610e1591610e0f90610e019061115c565b95909261115c565b926110c3565b936110c3565b908060005260066020526040600020600080526020526040600020610e3b8482546110c3565b9055806000526006602052604060002060016000526020526040600020610e638382546110c3565b90556001546040516378065f2760e01b81529460209186919082906001600160a01b03165afa93841561050257600094610f5a575b5060405163a9059cbb60e01b81523360048201526024810184905290602090829060449082906000905af1801561050257610f3d575b5060405163a9059cbb60e01b81523360048201526024810182905292602090849060449082906000906001600160a01b03165af192831561050257604093610f1e575b5082519182526020820152f35b610f369060203d60201161053257610525818361102a565b5083610f11565b610f559060203d60201161053257610525818361102a565b610ece565b6020949194813d602011610f9f575b81610f766020938361102a565b81010312610f9b5751906001600160a01b0382168203610f9857509284610e98565b80fd5b5080fd5b3d9150610f69565b34610117576000366003190112610117576001546001600160a01b03168152602090f35b600435906001600160a01b038216820361011757565b602435906001600160a01b038216820361011757565b610100810190811067ffffffffffffffff82111761101457604052565b634e487b7160e01b600052604160045260246000fd5b90601f8019910116810190811067ffffffffffffffff82111761101457604052565b6080906003190112610117576004356001600160a01b038116810361011757906024356001600160a01b038116810361011757906044359060643590565b1561109157565b60405162461bcd60e51b815260206004820152600a602482015269085b185d5b98da1c185960b21b6044820152606490fd5b919082018092116110d057565b634e487b7160e01b600052601160045260246000fd5b90816020910312610117575180151581036101175790565b80516001600160a01b03908116835260208083015182169084015260408083015160020b908401526060808301518216908401526080808301519084015260a0808301519084015260c0808301519084015260e09182015116910152565b60018060a01b036004541690604051608081019181831067ffffffffffffffff841117611014576040928352815230602082019081526001600160801b0382840181815260608401828152855163fc6f786560e01b81529451600486015292516001600160a01b031660248501525181166044840152905116606482015291829060849082906000905af18015610502576000916000916111fc57509091565b9150506040813d60401161122b575b816112186040938361102a565b8101031261011757602081519101519091565b3d915061120b565b94929093946112448430338461140c565b6004805460405163095ea7b360e01b81526001600160a01b0391821692810192909252602482018690529190911693906020816044816000895af18015610502576113ef575b5060018060a01b03600054169060405194610160860186811067ffffffffffffffff8211176110145760409081529086526001600160a01b0396871660208701908152600298890b87830190815295890b6060880190815294890b6080880190815260a08801938452600060c0890181815260e08a018281526101008b019283526101208b01978852426101408c01908152600480549751636d70c41560e01b81529c518e16908d015294518c1660248c015298518c0b60448b015296518b0b60648a0152905190990b6084880152915160a4870152925160c4860152925160e4850152945161010484015293518316610124830152516101448201529182918291165a92600061016492608095f1908115610502576000916113ab575090565b906080823d6080116113e7575b816113c56080938361102a565b81010312610f9857602082519201516001600160801b03811603610f98575090565b3d91506113b8565b6114079060203d60201161053257610525818361102a565b61128a565b6040516323b872dd60e01b60208201526001600160a01b0392831660248201529290911660448301526064808301939093529181526114559161145060848361102a565b6114f9565b565b6040516370a0823160e01b81523060048201526020816024816001600160a01b0386165afa908115610502576000916114c7575b5080156114c35760405163a9059cbb60e01b60208201523360248201526044808201929092529081526114559161145060648361102a565b5050565b906020823d6020116114f1575b816114e16020938361102a565b81010312610f985750513861148b565b3d91506114d4565b906000602091828151910182855af115610502576000513d61154b57506001600160a01b0381163b155b61152a5750565b635274afe760e01b60009081526001600160a01b0391909116600452602490fd5b6001141561152356fef0c57e16840df040f15088dc2f81fe391c3923bec73e23a9662efc9c229c6a00a2646970667358221220719e18534941ca25e3f853c305c8c4ac439ef77eab693bc81073cc54818ff47f64736f6c634300081c0033",
  "devdoc": {
    "errors": {
      "InvalidInitialization()": [
        {
          "details": "The contract is already initialized."
        }
      ],
      "NotInitializing()": [
        {
          "details": "The contract is not initializing."
        }
      ],
      "SafeERC20FailedOperation(address)": [
        {
          "details": "An operation with an ERC-20 token failed."
        }
      ]
    },
    "events": {
      "Initialized(uint64)": {
        "details": "Triggered when the contract has been initialized or reinitialized."
      }
    },
    "kind": "dev",
    "methods": {
      "addSingleSidedLiquidity((address,address,int24,int24,int24))": {
        "details": "Provides liquidity across three ticks with different amounts",
        "returns": {
          "_0": "The address of the pool"
        }
      },
      "claimFees(address)": {
        "params": {
          "_token": "The token address to claim fees for"
        },
        "returns": {
          "fee0": "The amount of token0 fees to claim",
          "fee1": "The amount of token1 fees to claim"
        }
      },
      "claimedFees(address)": {
        "params": {
          "_token": "The token address to claim fees for"
        },
        "returns": {
          "fee0": "The amount of token0 fees to claim",
          "fee1": "The amount of token1 fees to claim"
        }
      },
      "swapWithExactInput(address,address,uint256,uint256)": {
        "params": {
          "_amountIn": "The amount of tokens to swap",
          "_minAmountOut": "The minimum amount of tokens to receive",
          "_tokenIn": "The token to swap",
          "_tokenOut": "The token to receive"
        },
        "returns": {
          "amountOut": "The amount of tokens received"
        }
      },
      "swapWithExactOutput(address,address,uint256,uint256)": {
        "params": {
          "_amountOut": "The amount of tokens to swap",
          "_maxAmountIn": "The maximum amount of tokens to receive",
          "_tokenIn": "The token to swap",
          "_tokenOut": "The token to receive"
        },
        "returns": {
          "amountIn": "The amount of tokens received"
        }
      }
    },
    "version": 1
  },
  "userdoc": {
    "kind": "user",
    "methods": {
      "addSingleSidedLiquidity((address,address,int24,int24,int24))": {
        "notice": "Add single-sided liquidity to a concentrated pool"
      },
      "claimFees(address)": {
        "notice": "Claim accumulated fees from the pool"
      },
      "claimedFees(address)": {
        "notice": "claimed fees from the pool"
      },
      "launchpad()": {
        "notice": "Returns the address of the Launchpad contract"
      },
      "swapWithExactInput(address,address,uint256,uint256)": {
        "notice": "Swap a token with exact input"
      },
      "swapWithExactOutput(address,address,uint256,uint256)": {
        "notice": "Swap a token with exact output"
      }
    },
    "version": 1
  },
  "storageLayout": {
    "storage": [
      {
        "astId": 15550,
        "contract": "contracts/launchpad/clmm/adapters/RamsesAdapter.sol:RamsesAdapter",
        "label": "_me",
        "offset": 0,
        "slot": "0",
        "type": "t_address"
      },
      {
        "astId": 15552,
        "contract": "contracts/launchpad/clmm/adapters/RamsesAdapter.sol:RamsesAdapter",
        "label": "launchpad",
        "offset": 0,
        "slot": "1",
        "type": "t_address"
      },
      {
        "astId": 15555,
        "contract": "contracts/launchpad/clmm/adapters/RamsesAdapter.sol:RamsesAdapter",
        "label": "clPoolFactory",
        "offset": 0,
        "slot": "2",
        "type": "t_contract(IClPoolFactory)13495"
      },
      {
        "astId": 15558,
        "contract": "contracts/launchpad/clmm/adapters/RamsesAdapter.sol:RamsesAdapter",
        "label": "swapRouter",
        "offset": 0,
        "slot": "3",
        "type": "t_contract(ICLSwapRouter)13255"
      },
      {
        "astId": 15561,
        "contract": "contracts/launchpad/clmm/adapters/RamsesAdapter.sol:RamsesAdapter",
        "label": "nftPositionManager",
        "offset": 0,
        "slot": "4",
        "type": "t_contract(IERC721)4455"
      },
      {
        "astId": 15568,
        "contract": "contracts/launchpad/clmm/adapters/RamsesAdapter.sol:RamsesAdapter",
        "label": "tokenToLockId",
        "offset": 0,
        "slot": "5",
        "type": "t_mapping(t_contract(IERC20)3903,t_mapping(t_uint256,t_uint256))"
      },
      {
        "astId": 15575,
        "contract": "contracts/launchpad/clmm/adapters/RamsesAdapter.sol:RamsesAdapter",
        "label": "tokenToClaimedFees",
        "offset": 0,
        "slot": "6",
        "type": "t_mapping(t_contract(IERC20)3903,t_mapping(t_uint256,t_uint256))"
      }
    ],
    "types": {
      "t_address": {
        "encoding": "inplace",
        "label": "address",
        "numberOfBytes": "20"
      },
      "t_contract(ICLSwapRouter)13255": {
        "encoding": "inplace",
        "label": "contract ICLSwapRouter",
        "numberOfBytes": "20"
      },
      "t_contract(IClPoolFactory)13495": {
        "encoding": "inplace",
        "label": "contract IClPoolFactory",
        "numberOfBytes": "20"
      },
      "t_contract(IERC20)3903": {
        "encoding": "inplace",
        "label": "contract IERC20",
        "numberOfBytes": "20"
      },
      "t_contract(IERC721)4455": {
        "encoding": "inplace",
        "label": "contract IERC721",
        "numberOfBytes": "20"
      },
      "t_mapping(t_contract(IERC20)3903,t_mapping(t_uint256,t_uint256))": {
        "encoding": "mapping",
        "key": "t_contract(IERC20)3903",
        "label": "mapping(contract IERC20 => mapping(uint256 => uint256))",
        "numberOfBytes": "32",
        "value": "t_mapping(t_uint256,t_uint256)"
      },
      "t_mapping(t_uint256,t_uint256)": {
        "encoding": "mapping",
        "key": "t_uint256",
        "label": "mapping(uint256 => uint256)",
        "numberOfBytes": "32",
        "value": "t_uint256"
      },
      "t_uint256": {
        "encoding": "inplace",
        "label": "uint256",
        "numberOfBytes": "32"
      }
    }
  }
}