{
  "address": "0x875a387726EBc0754679D6BF004B8C01491a536B",
  "abi": [
    {
      "inputs": [
        {
          "internalType": "address",
          "name": "logic_",
          "type": "address"
        },
        {
          "internalType": "address",
          "name": "admin_",
          "type": "address"
        },
        {
          "internalType": "bytes",
          "name": "data_",
          "type": "bytes"
        }
      ],
      "stateMutability": "payable",
      "type": "constructor"
    },
    {
      "inputs": [
        {
          "internalType": "address",
          "name": "target",
          "type": "address"
        }
      ],
      "name": "AddressEmptyCode",
      "type": "error"
    },
    {
      "inputs": [
        {
          "internalType": "address",
          "name": "admin",
          "type": "address"
        }
      ],
      "name": "ERC1967InvalidAdmin",
      "type": "error"
    },
    {
      "inputs": [
        {
          "internalType": "address",
          "name": "implementation",
          "type": "address"
        }
      ],
      "name": "ERC1967InvalidImplementation",
      "type": "error"
    },
    {
      "inputs": [],
      "name": "ERC1967NonPayable",
      "type": "error"
    },
    {
      "inputs": [],
      "name": "FailedCall",
      "type": "error"
    },
    {
      "inputs": [],
      "name": "ProxyDeniedAdminAccess",
      "type": "error"
    },
    {
      "anonymous": false,
      "inputs": [
        {
          "indexed": false,
          "internalType": "address",
          "name": "previousAdmin",
          "type": "address"
        },
        {
          "indexed": false,
          "internalType": "address",
          "name": "newAdmin",
          "type": "address"
        }
      ],
      "name": "AdminChanged",
      "type": "event"
    },
    {
      "anonymous": false,
      "inputs": [
        {
          "indexed": true,
          "internalType": "address",
          "name": "implementation",
          "type": "address"
        }
      ],
      "name": "Upgraded",
      "type": "event"
    },
    {
      "stateMutability": "payable",
      "type": "fallback"
    },
    {
      "inputs": [],
      "name": "implementation",
      "outputs": [
        {
          "internalType": "address",
          "name": "",
          "type": "address"
        }
      ],
      "stateMutability": "view",
      "type": "function"
    },
    {
      "inputs": [],
      "name": "proxyAdmin",
      "outputs": [
        {
          "internalType": "address",
          "name": "",
          "type": "address"
        }
      ],
      "stateMutability": "view",
      "type": "function"
    }
  ],
  "transactionHash": "0x75d97719ec99910e58040d2030afca69bc39366c538e22786a92ba9f4c6c8241",
  "args": [
    "0x1DdaB491FD83282597e0F6d80d5495dc2fC7271a",
    "0x0FB4DD0bF5F7AE6Ca1e24Bb84ff7FE4B6190528A",
    "0xf8c8765e000000000000000000000000e38cfdc4bee3085b60d84fb0bc316a8df9fd35db0000000000000000000000008be024b5c546b5d45cbb23163e1a4dca8fa5052a000000000000000000000000a04a9f0a961f8fcc4a94bcf53e676b236cbb2f58000000000000000000000000ae334f70a7fc44fcc2df9e6a37bc032497cf80f1"
  ],
  "numDeployments": 1,
  "solcInputHash": "dc376a8eaa66c22995ab4c117f27f18a",
  "bytecode": "0x60a060405261070a803803806100148161023c565b92833981016060828203126102375761002c82610277565b61003860208401610277565b604084015190936001600160401b038211610237570182601f820112156102375780519061006d6100688361028b565b61023c565b93828552602083830101116102375760005b828110610222575050602060009184010152803b15610201577f360894a13ba1a3210667c828492db98dca3e2076cc3735a920a3ca505d382bbc80546001600160a01b0319166001600160a01b0383169081179091557fbc7cd75a20ee27fd9adebab32041f755214dbc6bffa90cc0225b39da2e5c2d3b600080a28151156101e85760008083602061013595519101845af43d156101e0573d916101256100688461028b565b9283523d6000602085013e6102a6565b505b60808190526000805160206106ea83398151915254604080516001600160a01b03838116825290931660208401819052927f7e644d79422f17c01e4894b5f4f588d331ebfa28653d42ae832dc59e38c9798f9190a181156101ca576001600160a01b031916176000805160206106ea833981519152556040516103e2908161030882396080518181816093015260c80152f35b633173bdd160e11b600052600060045260246000fd5b6060916102a6565b505034156101375763b398979f60e01b60005260046000fd5b634c9c8ce360e01b60009081526001600160a01b0391909116600452602490fd5b8060208092840101518282880101520161007f565b600080fd5b6040519190601f01601f191682016001600160401b0381118382101761026157604052565b634e487b7160e01b600052604160045260246000fd5b51906001600160a01b038216820361023757565b6001600160401b03811161026157601f01601f191660200190565b906102cc57508051156102bb57805190602001fd5b63d6bda27560e01b60005260046000fd5b815115806102fe575b6102dd575090565b639996b31560e01b60009081526001600160a01b0391909116600452602490fd5b50803b156102d556fe60806040526004361015610018575b6100166100c5565b005b60003560e01c80633e47158c1461008057635c60da1b0361000e573461007b57600036600319011261007b577f360894a13ba1a3210667c828492db98dca3e2076cc3735a920a3ca505d382bbc546040516001600160a01b039091168152602090f35b600080fd5b3461007b57600036600319011261007b577f00000000000000000000000000000000000000000000000000000000000000006001600160a01b03166080908152602090f35b337f00000000000000000000000000000000000000000000000000000000000000006001600160a01b03160361012a576000356001600160e01b03191663278f794360e11b14610120576334ad5dbb60e21b60005260046000fd5b6101286101d4565b565b7f360894a13ba1a3210667c828492db98dca3e2076cc3735a920a3ca505d382bbc5460009081906001600160a01b0316368280378136915af43d6000803e15610172573d6000f35b3d6000fd5b634e487b7160e01b600052604160045260246000fd5b6040519190601f01601f1916820167ffffffffffffffff8111838210176101b357604052565b610177565b67ffffffffffffffff81116101b357601f01601f191660200190565b3660041161007b57604036600319011261007b576004356001600160a01b0381169081900361007b576024359067ffffffffffffffff821161007b573660238301121561007b5781600401359061023261022d836101b8565b61018d565b91808352366024828601011161007b5760208160009260246101289701838701378401015290813b156102ee577f360894a13ba1a3210667c828492db98dca3e2076cc3735a920a3ca505d382bbc80546001600160a01b0319166001600160a01b0384169081179091557fbc7cd75a20ee27fd9adebab32041f755214dbc6bffa90cc0225b39da2e5c2d3b600080a28051156102d4576102d191610310565b50565b5050346102dd57565b63b398979f60e01b60005260046000fd5b50634c9c8ce360e01b60009081526001600160a01b0391909116600452602490fd5b60008061034493602081519101845af43d15610347573d9161033461022d846101b8565b9283523d6000602085013e61034b565b90565b6060915b90610371575080511561036057805190602001fd5b63d6bda27560e01b60005260046000fd5b815115806103a3575b610382575090565b639996b31560e01b60009081526001600160a01b0391909116600452602490fd5b50803b1561037a56fea2646970667358221220ec67f4397e2441dedc8c3dda6469a93d10e30d9ff3125f6dfa6e6bf0cc6ea03364736f6c634300081c0033b53127684a568b3173ae13b9f8a6016e243e63b6e8ee1178d6a717850b5d6103",
  "devdoc": {
    "errors": {
      "AddressEmptyCode(address)": [
        {
          "details": "There's no code at `target` (it is not a contract)."
        }
      ],
      "ERC1967InvalidAdmin(address)": [
        {
          "details": "The `admin` of the proxy is invalid."
        }
      ],
      "ERC1967InvalidImplementation(address)": [
        {
          "details": "The `implementation` of the proxy is invalid."
        }
      ],
      "ERC1967NonPayable()": [
        {
          "details": "An upgrade function sees `msg.value > 0` that may be lost."
        }
      ],
      "FailedCall()": [
        {
          "details": "A call to an address target failed. The target may have reverted."
        }
      ],
      "ProxyDeniedAdminAccess()": [
        {
          "details": "The proxy caller is the current admin, and can't fallback to the proxy target."
        }
      ]
    },
    "events": {
      "AdminChanged(address,address)": {
        "details": "Emitted when the admin account has changed."
      },
      "Upgraded(address)": {
        "details": "Emitted when the implementation is upgraded."
      }
    },
    "kind": "dev",
    "methods": {
      "implementation()": {
        "details": "Returns the implementation address of the proxy."
      },
      "proxyAdmin()": {
        "details": "Returns the admin of this proxy."
      }
    },
    "version": 1
  },
  "userdoc": {
    "kind": "user",
    "methods": {},
    "version": 1
  },
  "storageLayout": {
    "storage": [],
    "types": null
  }
}