{
  "address": "0xc66E5424a8A1C5905574D7a23Dcb2387226C75b5",
  "abi": [
    {
      "inputs": [
        {
          "internalType": "uint256",
          "name": "minDelay",
          "type": "uint256"
        },
        {
          "internalType": "address",
          "name": "admin",
          "type": "address"
        },
        {
          "internalType": "address[]",
          "name": "proposers",
          "type": "address[]"
        }
      ],
      "stateMutability": "nonpayable",
      "type": "constructor"
    },
    {
      "inputs": [],
      "name": "AccessControlBadConfirmation",
      "type": "error"
    },
    {
      "inputs": [
        {
          "internalType": "address",
          "name": "account",
          "type": "address"
        },
        {
          "internalType": "bytes32",
          "name": "neededRole",
          "type": "bytes32"
        }
      ],
      "name": "AccessControlUnauthorizedAccount",
      "type": "error"
    },
    {
      "inputs": [],
      "name": "FailedCall",
      "type": "error"
    },
    {
      "inputs": [
        {
          "internalType": "uint256",
          "name": "delay",
          "type": "uint256"
        },
        {
          "internalType": "uint256",
          "name": "minDelay",
          "type": "uint256"
        }
      ],
      "name": "TimelockInsufficientDelay",
      "type": "error"
    },
    {
      "inputs": [
        {
          "internalType": "uint256",
          "name": "targets",
          "type": "uint256"
        },
        {
          "internalType": "uint256",
          "name": "payloads",
          "type": "uint256"
        },
        {
          "internalType": "uint256",
          "name": "values",
          "type": "uint256"
        }
      ],
      "name": "TimelockInvalidOperationLength",
      "type": "error"
    },
    {
      "inputs": [
        {
          "internalType": "address",
          "name": "caller",
          "type": "address"
        }
      ],
      "name": "TimelockUnauthorizedCaller",
      "type": "error"
    },
    {
      "inputs": [
        {
          "internalType": "bytes32",
          "name": "predecessorId",
          "type": "bytes32"
        }
      ],
      "name": "TimelockUnexecutedPredecessor",
      "type": "error"
    },
    {
      "inputs": [
        {
          "internalType": "bytes32",
          "name": "operationId",
          "type": "bytes32"
        },
        {
          "internalType": "bytes32",
          "name": "expectedStates",
          "type": "bytes32"
        }
      ],
      "name": "TimelockUnexpectedOperationState",
      "type": "error"
    },
    {
      "anonymous": false,
      "inputs": [
        {
          "indexed": true,
          "internalType": "bytes32",
          "name": "id",
          "type": "bytes32"
        },
        {
          "indexed": true,
          "internalType": "uint256",
          "name": "index",
          "type": "uint256"
        },
        {
          "indexed": false,
          "internalType": "address",
          "name": "target",
          "type": "address"
        },
        {
          "indexed": false,
          "internalType": "uint256",
          "name": "value",
          "type": "uint256"
        },
        {
          "indexed": false,
          "internalType": "bytes",
          "name": "data",
          "type": "bytes"
        }
      ],
      "name": "CallExecuted",
      "type": "event"
    },
    {
      "anonymous": false,
      "inputs": [
        {
          "indexed": true,
          "internalType": "bytes32",
          "name": "id",
          "type": "bytes32"
        },
        {
          "indexed": false,
          "internalType": "bytes32",
          "name": "salt",
          "type": "bytes32"
        }
      ],
      "name": "CallSalt",
      "type": "event"
    },
    {
      "anonymous": false,
      "inputs": [
        {
          "indexed": true,
          "internalType": "bytes32",
          "name": "id",
          "type": "bytes32"
        },
        {
          "indexed": true,
          "internalType": "uint256",
          "name": "index",
          "type": "uint256"
        },
        {
          "indexed": false,
          "internalType": "address",
          "name": "target",
          "type": "address"
        },
        {
          "indexed": false,
          "internalType": "uint256",
          "name": "value",
          "type": "uint256"
        },
        {
          "indexed": false,
          "internalType": "bytes",
          "name": "data",
          "type": "bytes"
        },
        {
          "indexed": false,
          "internalType": "bytes32",
          "name": "predecessor",
          "type": "bytes32"
        },
        {
          "indexed": false,
          "internalType": "uint256",
          "name": "delay",
          "type": "uint256"
        }
      ],
      "name": "CallScheduled",
      "type": "event"
    },
    {
      "anonymous": false,
      "inputs": [
        {
          "indexed": true,
          "internalType": "bytes32",
          "name": "id",
          "type": "bytes32"
        }
      ],
      "name": "Cancelled",
      "type": "event"
    },
    {
      "anonymous": false,
      "inputs": [
        {
          "indexed": false,
          "internalType": "uint256",
          "name": "oldDuration",
          "type": "uint256"
        },
        {
          "indexed": false,
          "internalType": "uint256",
          "name": "newDuration",
          "type": "uint256"
        }
      ],
      "name": "MinDelayChange",
      "type": "event"
    },
    {
      "anonymous": false,
      "inputs": [
        {
          "indexed": true,
          "internalType": "bytes32",
          "name": "role",
          "type": "bytes32"
        },
        {
          "indexed": true,
          "internalType": "bytes32",
          "name": "previousAdminRole",
          "type": "bytes32"
        },
        {
          "indexed": true,
          "internalType": "bytes32",
          "name": "newAdminRole",
          "type": "bytes32"
        }
      ],
      "name": "RoleAdminChanged",
      "type": "event"
    },
    {
      "anonymous": false,
      "inputs": [
        {
          "indexed": true,
          "internalType": "bytes32",
          "name": "role",
          "type": "bytes32"
        },
        {
          "indexed": true,
          "internalType": "address",
          "name": "account",
          "type": "address"
        },
        {
          "indexed": true,
          "internalType": "address",
          "name": "sender",
          "type": "address"
        }
      ],
      "name": "RoleGranted",
      "type": "event"
    },
    {
      "anonymous": false,
      "inputs": [
        {
          "indexed": true,
          "internalType": "bytes32",
          "name": "role",
          "type": "bytes32"
        },
        {
          "indexed": true,
          "internalType": "address",
          "name": "account",
          "type": "address"
        },
        {
          "indexed": true,
          "internalType": "address",
          "name": "sender",
          "type": "address"
        }
      ],
      "name": "RoleRevoked",
      "type": "event"
    },
    {
      "inputs": [],
      "name": "CANCELLER_ROLE",
      "outputs": [
        {
          "internalType": "bytes32",
          "name": "",
          "type": "bytes32"
        }
      ],
      "stateMutability": "view",
      "type": "function"
    },
    {
      "inputs": [],
      "name": "DEFAULT_ADMIN_ROLE",
      "outputs": [
        {
          "internalType": "bytes32",
          "name": "",
          "type": "bytes32"
        }
      ],
      "stateMutability": "view",
      "type": "function"
    },
    {
      "inputs": [],
      "name": "EXECUTOR_ROLE",
      "outputs": [
        {
          "internalType": "bytes32",
          "name": "",
          "type": "bytes32"
        }
      ],
      "stateMutability": "view",
      "type": "function"
    },
    {
      "inputs": [],
      "name": "PROPOSER_ROLE",
      "outputs": [
        {
          "internalType": "bytes32",
          "name": "",
          "type": "bytes32"
        }
      ],
      "stateMutability": "view",
      "type": "function"
    },
    {
      "inputs": [
        {
          "internalType": "bytes32",
          "name": "id",
          "type": "bytes32"
        }
      ],
      "name": "cancel",
      "outputs": [],
      "stateMutability": "nonpayable",
      "type": "function"
    },
    {
      "inputs": [
        {
          "internalType": "address",
          "name": "target",
          "type": "address"
        },
        {
          "internalType": "uint256",
          "name": "value",
          "type": "uint256"
        },
        {
          "internalType": "bytes",
          "name": "payload",
          "type": "bytes"
        },
        {
          "internalType": "bytes32",
          "name": "predecessor",
          "type": "bytes32"
        },
        {
          "internalType": "bytes32",
          "name": "salt",
          "type": "bytes32"
        }
      ],
      "name": "execute",
      "outputs": [],
      "stateMutability": "payable",
      "type": "function"
    },
    {
      "inputs": [
        {
          "internalType": "address[]",
          "name": "targets",
          "type": "address[]"
        },
        {
          "internalType": "uint256[]",
          "name": "values",
          "type": "uint256[]"
        },
        {
          "internalType": "bytes[]",
          "name": "payloads",
          "type": "bytes[]"
        },
        {
          "internalType": "bytes32",
          "name": "predecessor",
          "type": "bytes32"
        },
        {
          "internalType": "bytes32",
          "name": "salt",
          "type": "bytes32"
        }
      ],
      "name": "executeBatch",
      "outputs": [],
      "stateMutability": "payable",
      "type": "function"
    },
    {
      "inputs": [],
      "name": "getAllAdmins",
      "outputs": [
        {
          "internalType": "address[]",
          "name": "admins",
          "type": "address[]"
        }
      ],
      "stateMutability": "view",
      "type": "function"
    },
    {
      "inputs": [],
      "name": "getAllCancellers",
      "outputs": [
        {
          "internalType": "address[]",
          "name": "cancelers",
          "type": "address[]"
        }
      ],
      "stateMutability": "view",
      "type": "function"
    },
    {
      "inputs": [
        {
          "internalType": "bytes32",
          "name": "role",
          "type": "bytes32"
        }
      ],
      "name": "getAllCandidates",
      "outputs": [
        {
          "internalType": "address[]",
          "name": "candidates",
          "type": "address[]"
        }
      ],
      "stateMutability": "view",
      "type": "function"
    },
    {
      "inputs": [],
      "name": "getAllExecutors",
      "outputs": [
        {
          "internalType": "address[]",
          "name": "executors",
          "type": "address[]"
        }
      ],
      "stateMutability": "view",
      "type": "function"
    },
    {
      "inputs": [],
      "name": "getAllProposers",
      "outputs": [
        {
          "internalType": "address[]",
          "name": "proposers",
          "type": "address[]"
        }
      ],
      "stateMutability": "view",
      "type": "function"
    },
    {
      "inputs": [],
      "name": "getMinDelay",
      "outputs": [
        {
          "internalType": "uint256",
          "name": "",
          "type": "uint256"
        }
      ],
      "stateMutability": "view",
      "type": "function"
    },
    {
      "inputs": [
        {
          "internalType": "bytes32",
          "name": "id",
          "type": "bytes32"
        }
      ],
      "name": "getOperationState",
      "outputs": [
        {
          "internalType": "enum TimelockController.OperationState",
          "name": "",
          "type": "uint8"
        }
      ],
      "stateMutability": "view",
      "type": "function"
    },
    {
      "inputs": [
        {
          "internalType": "bytes32",
          "name": "role",
          "type": "bytes32"
        }
      ],
      "name": "getRoleAdmin",
      "outputs": [
        {
          "internalType": "bytes32",
          "name": "",
          "type": "bytes32"
        }
      ],
      "stateMutability": "view",
      "type": "function"
    },
    {
      "inputs": [
        {
          "internalType": "bytes32",
          "name": "role",
          "type": "bytes32"
        },
        {
          "internalType": "uint256",
          "name": "index",
          "type": "uint256"
        }
      ],
      "name": "getRoleMember",
      "outputs": [
        {
          "internalType": "address",
          "name": "",
          "type": "address"
        }
      ],
      "stateMutability": "view",
      "type": "function"
    },
    {
      "inputs": [
        {
          "internalType": "bytes32",
          "name": "role",
          "type": "bytes32"
        }
      ],
      "name": "getRoleMemberCount",
      "outputs": [
        {
          "internalType": "uint256",
          "name": "",
          "type": "uint256"
        }
      ],
      "stateMutability": "view",
      "type": "function"
    },
    {
      "inputs": [
        {
          "internalType": "bytes32",
          "name": "role",
          "type": "bytes32"
        }
      ],
      "name": "getRoleMembers",
      "outputs": [
        {
          "internalType": "address[]",
          "name": "",
          "type": "address[]"
        }
      ],
      "stateMutability": "view",
      "type": "function"
    },
    {
      "inputs": [
        {
          "internalType": "bytes32",
          "name": "id",
          "type": "bytes32"
        }
      ],
      "name": "getTimestamp",
      "outputs": [
        {
          "internalType": "uint256",
          "name": "",
          "type": "uint256"
        }
      ],
      "stateMutability": "view",
      "type": "function"
    },
    {
      "inputs": [
        {
          "internalType": "bytes32",
          "name": "role",
          "type": "bytes32"
        },
        {
          "internalType": "address",
          "name": "account",
          "type": "address"
        }
      ],
      "name": "grantRole",
      "outputs": [],
      "stateMutability": "nonpayable",
      "type": "function"
    },
    {
      "inputs": [
        {
          "internalType": "bytes32",
          "name": "role",
          "type": "bytes32"
        },
        {
          "internalType": "address",
          "name": "account",
          "type": "address"
        }
      ],
      "name": "hasRole",
      "outputs": [
        {
          "internalType": "bool",
          "name": "",
          "type": "bool"
        }
      ],
      "stateMutability": "view",
      "type": "function"
    },
    {
      "inputs": [
        {
          "internalType": "address",
          "name": "target",
          "type": "address"
        },
        {
          "internalType": "uint256",
          "name": "value",
          "type": "uint256"
        },
        {
          "internalType": "bytes",
          "name": "data",
          "type": "bytes"
        },
        {
          "internalType": "bytes32",
          "name": "predecessor",
          "type": "bytes32"
        },
        {
          "internalType": "bytes32",
          "name": "salt",
          "type": "bytes32"
        }
      ],
      "name": "hashOperation",
      "outputs": [
        {
          "internalType": "bytes32",
          "name": "",
          "type": "bytes32"
        }
      ],
      "stateMutability": "pure",
      "type": "function"
    },
    {
      "inputs": [
        {
          "internalType": "address[]",
          "name": "targets",
          "type": "address[]"
        },
        {
          "internalType": "uint256[]",
          "name": "values",
          "type": "uint256[]"
        },
        {
          "internalType": "bytes[]",
          "name": "payloads",
          "type": "bytes[]"
        },
        {
          "internalType": "bytes32",
          "name": "predecessor",
          "type": "bytes32"
        },
        {
          "internalType": "bytes32",
          "name": "salt",
          "type": "bytes32"
        }
      ],
      "name": "hashOperationBatch",
      "outputs": [
        {
          "internalType": "bytes32",
          "name": "",
          "type": "bytes32"
        }
      ],
      "stateMutability": "pure",
      "type": "function"
    },
    {
      "inputs": [
        {
          "internalType": "bytes32",
          "name": "id",
          "type": "bytes32"
        }
      ],
      "name": "isOperation",
      "outputs": [
        {
          "internalType": "bool",
          "name": "",
          "type": "bool"
        }
      ],
      "stateMutability": "view",
      "type": "function"
    },
    {
      "inputs": [
        {
          "internalType": "bytes32",
          "name": "id",
          "type": "bytes32"
        }
      ],
      "name": "isOperationDone",
      "outputs": [
        {
          "internalType": "bool",
          "name": "",
          "type": "bool"
        }
      ],
      "stateMutability": "view",
      "type": "function"
    },
    {
      "inputs": [
        {
          "internalType": "bytes32",
          "name": "id",
          "type": "bytes32"
        }
      ],
      "name": "isOperationPending",
      "outputs": [
        {
          "internalType": "bool",
          "name": "",
          "type": "bool"
        }
      ],
      "stateMutability": "view",
      "type": "function"
    },
    {
      "inputs": [
        {
          "internalType": "bytes32",
          "name": "id",
          "type": "bytes32"
        }
      ],
      "name": "isOperationReady",
      "outputs": [
        {
          "internalType": "bool",
          "name": "",
          "type": "bool"
        }
      ],
      "stateMutability": "view",
      "type": "function"
    },
    {
      "inputs": [
        {
          "internalType": "address",
          "name": "",
          "type": "address"
        },
        {
          "internalType": "address",
          "name": "",
          "type": "address"
        },
        {
          "internalType": "uint256[]",
          "name": "",
          "type": "uint256[]"
        },
        {
          "internalType": "uint256[]",
          "name": "",
          "type": "uint256[]"
        },
        {
          "internalType": "bytes",
          "name": "",
          "type": "bytes"
        }
      ],
      "name": "onERC1155BatchReceived",
      "outputs": [
        {
          "internalType": "bytes4",
          "name": "",
          "type": "bytes4"
        }
      ],
      "stateMutability": "nonpayable",
      "type": "function"
    },
    {
      "inputs": [
        {
          "internalType": "address",
          "name": "",
          "type": "address"
        },
        {
          "internalType": "address",
          "name": "",
          "type": "address"
        },
        {
          "internalType": "uint256",
          "name": "",
          "type": "uint256"
        },
        {
          "internalType": "uint256",
          "name": "",
          "type": "uint256"
        },
        {
          "internalType": "bytes",
          "name": "",
          "type": "bytes"
        }
      ],
      "name": "onERC1155Received",
      "outputs": [
        {
          "internalType": "bytes4",
          "name": "",
          "type": "bytes4"
        }
      ],
      "stateMutability": "nonpayable",
      "type": "function"
    },
    {
      "inputs": [
        {
          "internalType": "address",
          "name": "",
          "type": "address"
        },
        {
          "internalType": "address",
          "name": "",
          "type": "address"
        },
        {
          "internalType": "uint256",
          "name": "",
          "type": "uint256"
        },
        {
          "internalType": "bytes",
          "name": "",
          "type": "bytes"
        }
      ],
      "name": "onERC721Received",
      "outputs": [
        {
          "internalType": "bytes4",
          "name": "",
          "type": "bytes4"
        }
      ],
      "stateMutability": "nonpayable",
      "type": "function"
    },
    {
      "inputs": [
        {
          "internalType": "bytes32",
          "name": "role",
          "type": "bytes32"
        },
        {
          "internalType": "address",
          "name": "callerConfirmation",
          "type": "address"
        }
      ],
      "name": "renounceRole",
      "outputs": [],
      "stateMutability": "nonpayable",
      "type": "function"
    },
    {
      "inputs": [
        {
          "internalType": "bytes32",
          "name": "role",
          "type": "bytes32"
        },
        {
          "internalType": "address",
          "name": "account",
          "type": "address"
        }
      ],
      "name": "revokeRole",
      "outputs": [],
      "stateMutability": "nonpayable",
      "type": "function"
    },
    {
      "inputs": [
        {
          "internalType": "address",
          "name": "target",
          "type": "address"
        },
        {
          "internalType": "uint256",
          "name": "value",
          "type": "uint256"
        },
        {
          "internalType": "bytes",
          "name": "data",
          "type": "bytes"
        },
        {
          "internalType": "bytes32",
          "name": "predecessor",
          "type": "bytes32"
        },
        {
          "internalType": "bytes32",
          "name": "salt",
          "type": "bytes32"
        },
        {
          "internalType": "uint256",
          "name": "delay",
          "type": "uint256"
        }
      ],
      "name": "schedule",
      "outputs": [],
      "stateMutability": "nonpayable",
      "type": "function"
    },
    {
      "inputs": [
        {
          "internalType": "address[]",
          "name": "targets",
          "type": "address[]"
        },
        {
          "internalType": "uint256[]",
          "name": "values",
          "type": "uint256[]"
        },
        {
          "internalType": "bytes[]",
          "name": "payloads",
          "type": "bytes[]"
        },
        {
          "internalType": "bytes32",
          "name": "predecessor",
          "type": "bytes32"
        },
        {
          "internalType": "bytes32",
          "name": "salt",
          "type": "bytes32"
        },
        {
          "internalType": "uint256",
          "name": "delay",
          "type": "uint256"
        }
      ],
      "name": "scheduleBatch",
      "outputs": [],
      "stateMutability": "nonpayable",
      "type": "function"
    },
    {
      "inputs": [
        {
          "internalType": "bytes4",
          "name": "interfaceId",
          "type": "bytes4"
        }
      ],
      "name": "supportsInterface",
      "outputs": [
        {
          "internalType": "bool",
          "name": "",
          "type": "bool"
        }
      ],
      "stateMutability": "view",
      "type": "function"
    },
    {
      "inputs": [
        {
          "internalType": "uint256",
          "name": "newDelay",
          "type": "uint256"
        }
      ],
      "name": "updateDelay",
      "outputs": [],
      "stateMutability": "nonpayable",
      "type": "function"
    },
    {
      "stateMutability": "payable",
      "type": "receive"
    }
  ],
  "transactionHash": "0xda05566f5c5776fef8755222e46d87f818f2bbf451a60834f4c97244326ffdee",
  "args": [
    86400,
    "0x8EfeFDBe3f3f7D48b103CD220d634CBF1d0Ae1a6",
    [
      "0x8EfeFDBe3f3f7D48b103CD220d634CBF1d0Ae1a6"
    ]
  ],
  "numDeployments": 1,
  "solcInputHash": "4e44c4cc2eca1dfcb8d18f2d03a4f10d",
  "bytecode": "0x6080604052346101fd576123a58038038061001981610218565b9283398101906060818303126101fd578051906100386020820161023d565b604082015190916001600160401b0382116101fd57019280601f850112156101fd578351936001600160401b038511610202578460051b9060208061007e818501610218565b8098815201928201019283116101fd57602001905b8282106101e5575050506100a6306103c3565b6101be575b6001600160a01b0381169081610182575b505060005b825181101561010b576001906100e96001600160a01b036100e28387610251565b511661027b565b50610104828060a01b036100fd8387610251565b51166102eb565b50016100c1565b5060005b825181101561013e576001906101376001600160a01b036101308387610251565b5116610357565b500161010f565b7f11c24f4ead16507c69ac467fbd5e4eed5fb5c699626d2cc6d66421df253886d560408380600355815190600082526020820152a1604051611dc8908161051d8239f35b61018b906103c3565b610196575b806100bc565b6000805260016020526101b7906000805160206123058339815191526104b8565b5038610190565b6000805260016020526101df306000805160206123058339815191526104b8565b506100ab565b602080916101f28461023d565b815201910190610093565b600080fd5b634e487b7160e01b600052604160045260246000fd5b6040519190601f01601f191682016001600160401b0381118382101761020257604052565b51906001600160a01b03821682036101fd57565b80518210156102655760209160051b010190565b634e487b7160e01b600052603260045260246000fd5b6102938160008051602061232583398151915261043f565b908161029d575090565b60008051602061232583398151915260005260016020526102e7906001600160a01b03167fab0abe0ac784c8cb7ff2dde6fca8a20d1ab21f792e5ef34b43f146db4890393c6104b8565b5090565b6103038160008051602061236583398151915261043f565b908161030d575090565b60008051602061236583398151915260005260016020526102e7906001600160a01b03167f9f3cf6249db4bdba3b4c96ee22e2a8165fec12031dbe374a7742b8c187bf9af66104b8565b61036f8160008051602061234583398151915261043f565b9081610379575090565b60008051602061234583398151915260005260016020526102e7906001600160a01b03167fc9ee83ecf8e561e5df8e9e3a8d108a689296832fb5d541ca3c450b10eaabf8e16104b8565b6001600160a01b0381166000908152600080516020612385833981519152602052604090205460ff16610439576001600160a01b0316600081815260008051602061238583398151915260205260408120805460ff191660011790553391906000805160206122e58339815191528180a4600190565b50600090565b6000818152602081815260408083206001600160a01b038616845290915290205460ff166104b1576000818152602081815260408083206001600160a01b0395909516808452949091528120805460ff19166001179055339291906000805160206122e58339815191529080a4600190565b5050600090565b600181019082600052816020526040600020541560001461051457805468010000000000000000811015610202576001810180835581101561026557839082600052602060002001555491600052602052604060002055600190565b50505060009056fe6080604052600436101561001b575b361561001957600080fd5b005b60003560e01c806301d5062a1461115d57806301ffc9a7146110d357806307bd0265146110aa578063134008d31461100857806313bc9f2014610fea578063150b7a0214610f95578063248a9ca314610f685780632ab0f52914610f4a5780632f2ff15d14610ee157806331d5075014610ec357806336568abe14610e7d578063584b153e14610e5557806364d6235314610dee5780636b235c8414610ce35780637958004c14610c9e5780638065657f14610c7f5780638f2a0bb014610af75780638f61f4f514610ace5780639010d07c14610a8657806391d1485414610a39578063a217fddf14610a1d578063a3246ad3146109a8578063b08e51c01461097f578063b1c5f42714610955578063bc197c81146108c0578063c4d252f5146107ec578063ca15c873146107c0578063d06c1a5f146106b5578063d45c443514610689578063d547741f14610642578063d81868bd14610588578063e38335e514610438578063e9523c9714610349578063f23a6e61146102f4578063f27a0c92146102d65763fdfebffe0361000e57346102d15760003660031901126102d157600080516020611d5383398151915260005260016020527fc9ee83ecf8e561e5df8e9e3a8d108a689296832fb5d541ca3c450b10eaabf8e1546101ff8161142a565b9061020d60405192836112b0565b808252601f1961021c8261142a565b0136602084013760005b81811061023f576040518061023b8582611349565b0390f35b600080516020611d538339815191526000526001602052610280817fc9ee83ecf8e561e5df8e9e3a8d108a689296832fb5d541ca3c450b10eaabf8e1611ac4565b9054845160039290921b1c6001600160a01b031691908110156102bb576001600160a01b03909116600582901b840160200152600101610226565b634e487b7160e01b600052603260045260246000fd5b600080fd5b346102d15760003660031901126102d1576020600354604051908152f35b346102d15760a03660031901126102d15761030d611209565b5061031661121f565b506084356001600160401b0381116102d157610336903690600401611302565b5060405163f23a6e6160e01b8152602090f35b346102d15760003660031901126102d1576000805260016020527fa6eef7e35abe7026729641147f7915573c7e97b47efa546f5f6e3230263bcb495461038e8161142a565b9061039c60405192836112b0565b808252601f196103ab8261142a565b0136602084013760005b8181106103ca576040518061023b8582611349565b6000805260016020526103fd817fa6eef7e35abe7026729641147f7915573c7e97b47efa546f5f6e3230263bcb49611ac4565b9054845160039290921b1c6001600160a01b031691908110156102bb576001600160a01b03909116600582901b8401602001526001016103b5565b610441366113bc565b600080527fdae2aa361dfd1ca020a396615627d436107c35eff9fe7738a3512819782d70696020527f5ba6852781629bcdcd4bdaa6de76d786f1c64b16acdac474e55bebc0ea1579515492979196919593949260ff161561057a575b828214801590610570575b610553576104bf6104c691888a888789888d611684565b968761198e565b60005b8181106104d95761001987611a3f565b8080887fc2617efa69bab66782fa219543714338489c4e9e178271560a91b82c3f612b58888861054a6105318f986001998f828e6105248f8361051f9161052a9661161f565b61162f565b9761161f565b3595611643565b9061053e828287876119ea565b604051948594856114f7565b0390a3016104c9565b50869063ffb0321160e01b60005260045260245260445260646000fd5b50878214156104a8565b610583336118c9565b61049d565b346102d15760203660031901126102d1576004358060005260016020526040600020546105b48161142a565b916105c260405193846112b0565b818352601f196105d18361142a565b0136602085013760005b8281106105f0576040518061023b8682611349565b816000526001602052610607816040600020611ac4565b9054855160039290921b1c6001600160a01b031691908110156102bb576001600160a01b03909116600582901b8501602001526001016105db565b346102d15760403660031901126102d15761001960043561066161121f565b9061068461067d82600052600060205260016040600020015490565b339061193f565b611a89565b346102d15760203660031901126102d15760043560005260026020526020604060002054604051908152f35b346102d15760003660031901126102d157600080516020611d7383398151915260005260016020527f9f3cf6249db4bdba3b4c96ee22e2a8165fec12031dbe374a7742b8c187bf9af6546107088161142a565b9061071660405192836112b0565b808252601f196107258261142a565b0136602084013760005b818110610744576040518061023b8582611349565b600080516020611d738339815191526000526001602052610785817f9f3cf6249db4bdba3b4c96ee22e2a8165fec12031dbe374a7742b8c187bf9af6611ac4565b9054845160039290921b1c6001600160a01b031691908110156102bb576001600160a01b03909116600582901b84016020015260010161072f565b346102d15760203660031901126102d15760043560005260016020526020604060002054604051908152f35b346102d15760203660031901126102d1573360009081527fc3ad33e20b0c56a223ad5104fff154aa010f8715b9c981fd38fdc60a4d1a52fb60205260409020546004359060ff16156108995761084181611565565b1561087d57806000526002602052600060408120557fbaa1eb22f2a492ba1a5fea61b8df4d27c6c8b5f3971e63bb58fa14ff72eedb70600080a2005b635ead8eb560e01b600052600452600460021760245260446000fd5b63e2517d3f60e01b60005233600452600080516020611d7383398151915260245260446000fd5b346102d15760a03660031901126102d1576108d9611209565b506108e261121f565b506044356001600160401b0381116102d157610902903690600401611441565b506064356001600160401b0381116102d157610922903690600401611441565b506084356001600160401b0381116102d157610942903690600401611302565b5060405163bc197c8160e01b8152602090f35b346102d1576020610977610968366113bc565b96959095949194939293611684565b604051908152f35b346102d15760003660031901126102d1576020604051600080516020611d738339815191528152f35b346102d15760203660031901126102d1576004356000526001602052604060002060405190816020825491828152019160005260206000209060005b818110610a075761023b856109fb818703826112b0565b60405191829182611349565b82548452602090930192600192830192016109e4565b346102d15760003660031901126102d157602060405160008152f35b346102d15760403660031901126102d157610a5261121f565b600435600052600060205260406000209060018060a01b0316600052602052602060ff604060002054166040519015158152f35b346102d15760403660031901126102d15760043560005260016020526020610ab5604060002060243590611ac4565b905460405160039290921b1c6001600160a01b03168152f35b346102d15760003660031901126102d1576020604051600080516020611d338339815191528152f35b346102d15760c03660031901126102d1576004356001600160401b0381116102d157610b2790369060040161138c565b906024356001600160401b0381116102d157610b4790369060040161138c565b6044929192356001600160401b0381116102d157610b6990369060040161138c565b9390916064356084359560a43592610b8033611853565b808914801590610c75575b610c5957610b9f88848489858a8f8e611684565b98610baa858b6117d8565b8960005b828110610beb57508980610bbe57005b60207f20fda5fd27a1ea7bf5b9567f143ac5470bb059374a27e8f67cb44f946f6d038791604051908152a2005b806001927f4cf4410cc57040e44862ef0f45f3dd5a5e02db8eb8add648d4b0e236f1d07dca8b8b610c4e8f8c610c418f928e610c3a8f8f90610c3461051f8f809794819561161f565b9961161f565b3597611643565b90604051968796876114bf565b0390a3018a90610bae565b908863ffb0321160e01b60005260045260245260445260646000fd5b5081891415610b8b565b346102d1576020610977610c9236611262565b949390939291926115ca565b346102d15760203660031901126102d157610cba60043561158e565b6040516004821015610ccd576020918152f35b634e487b7160e01b600052602160045260246000fd5b346102d15760003660031901126102d157600080516020611d3383398151915260005260016020527fab0abe0ac784c8cb7ff2dde6fca8a20d1ab21f792e5ef34b43f146db4890393c54610d368161142a565b90610d4460405192836112b0565b808252601f19610d538261142a565b0136602084013760005b818110610d72576040518061023b8582611349565b600080516020611d338339815191526000526001602052610db3817fab0abe0ac784c8cb7ff2dde6fca8a20d1ab21f792e5ef34b43f146db4890393c611ac4565b9054845160039290921b1c6001600160a01b031691908110156102bb576001600160a01b03909116600582901b840160200152600101610d5d565b346102d15760203660031901126102d157600435303303610e40577f11c24f4ead16507c69ac467fbd5e4eed5fb5c699626d2cc6d66421df253886d560406003548151908152836020820152a1600355005b63e2850c5960e01b6000523360045260246000fd5b346102d15760203660031901126102d1576020610e73600435611565565b6040519015158152f35b346102d15760403660031901126102d157610e9661121f565b336001600160a01b03821603610eb25761001990600435611a89565b63334bd91960e11b60005260046000fd5b346102d15760203660031901126102d1576020610e7360043561154e565b346102d15760403660031901126102d157600435610efd61121f565b610f1861067d83600052600060205260016040600020015490565b610f228183611adc565b610f2857005b600091825260016020526040909120610019916001600160a01b031690611be9565b346102d15760203660031901126102d1576020610e73600435611536565b346102d15760203660031901126102d1576020610977600435600052600060205260016040600020015490565b346102d15760803660031901126102d157610fae611209565b50610fb761121f565b506064356001600160401b0381116102d157610fd7903690600401611302565b50604051630a85bd0160e11b8152602090f35b346102d15760203660031901126102d1576020610e7360043561151e565b61001961108860006110947fc2617efa69bab66782fa219543714338489c4e9e178271560a91b82c3f612b5861107f61104036611262565b600080516020611d538339815191528a9995979299949394528960205260408a208a805260205260ff60408b2054161561109c575b88848489896115ca565b9889978861198e565b61053e828287876119ea565b0390a3611a3f565b6110a5336118c9565b611075565b346102d15760003660031901126102d1576020604051600080516020611d538339815191528152f35b346102d15760203660031901126102d15760043563ffffffff60e01b81168091036102d157602090630271189760e51b8114908115611118575b506040519015158152f35b635a05180f60e01b811491508115611132575b508261110d565b637965db0b60e01b81149150811561114c575b508261112b565b6301ffc9a760e01b14905082611145565b346102d15760c03660031901126102d157611176611209565b602435906044356001600160401b0381116102d1577f4cf4410cc57040e44862ef0f45f3dd5a5e02db8eb8add648d4b0e236f1d07dca926111bd6000923690600401611235565b949091606435946111ff6084359660a435906111d833611853565b6111e689828c8a89896115ca565b998a976111f3848a6117d8565b604051968796876114bf565b0390a380610bbe57005b600435906001600160a01b03821682036102d157565b602435906001600160a01b03821682036102d157565b9181601f840112156102d1578235916001600160401b0383116102d157602083818601950101116102d157565b60a06003198201126102d1576004356001600160a01b03811681036102d1579160243591604435906001600160401b0382116102d1576112a491600401611235565b90916064359060843590565b90601f801991011681019081106001600160401b038211176112d157604052565b634e487b7160e01b600052604160045260246000fd5b6001600160401b0381116112d157601f01601f191660200190565b81601f820112156102d157803590611319826112e7565b9261132760405194856112b0565b828452602083830101116102d157816000926020809301838601378301015290565b602060408183019282815284518094520192019060005b81811061136d5750505090565b82516001600160a01b0316845260209384019390920191600101611360565b9181601f840112156102d1578235916001600160401b0383116102d1576020808501948460051b0101116102d157565b60a06003198201126102d1576004356001600160401b0381116102d157816113e69160040161138c565b929092916024356001600160401b0381116102d157816114089160040161138c565b92909291604435906001600160401b0382116102d1576112a49160040161138c565b6001600160401b0381116112d15760051b60200190565b9080601f830112156102d15781356114588161142a565b9261146660405194856112b0565b81845260208085019260051b8201019283116102d157602001905b82821061148e5750505090565b8135815260209182019101611481565b908060209392818452848401376000828201840152601f01601f1916010190565b9290936114ed926080959897969860018060a01b03168552602085015260a0604085015260a084019161149e565b9460608201520152565b61151b949260609260018060a01b031682526020820152816040820152019161149e565b90565b6115279061158e565b6004811015610ccd5760021490565b61153f9061158e565b6004811015610ccd5760031490565b6115579061158e565b6004811015610ccd57151590565b61156e9061158e565b6004811015610ccd5760018114908115611586575090565b600291501490565b600052600260205260406000205480156000146115ab5750600090565b600181036115b95750600390565b4210156115c557600190565b600290565b9461160061161994959293604051968795602087019960018060a01b03168a52604087015260a0606087015260c086019161149e565b91608084015260a083015203601f1981018352826112b0565b51902090565b91908110156102bb5760051b0190565b356001600160a01b03811681036102d15790565b91908110156102bb5760051b81013590601e19813603018212156102d15701908135916001600160401b0383116102d15760200182360381136102d1579190565b9693949190969592956040519660208801988060c08a0160a08c525260e0890192906000905b8082106117a257505050878203601f190160408901528082526001600160fb1b0381116102d1579087959394929160051b8092602083013701848103606086015260208101849052600584901b810160409081019490820191600090889036829003601e1901905b84841061173c575050505050506116199450608084015260a083015203601f1981018352826112b0565b91939597909294969850601f19601f19838303010187528935838112156102d157840190602082359201916001600160401b0381116102d15780360383136102d15761178e602092839260019561149e565b9b0197019401918a98969997959391611712565b91939091908435906001600160a01b03821682036102d1576001600160a01b0390911681526020908101940191600101906116aa565b906117e28261154e565b61183957600354808210611821575042019081421161180b576000526002602052604060002055565b634e487b7160e01b600052601160045260246000fd5b90635433660960e01b60005260045260245260446000fd5b50635ead8eb560e01b600052600452600160245260446000fd5b6001600160a01b03811660009081527f3412d5605ac6cd444957cedb533e5dacad6378b4bc819ebe3652188a665066d5602052604090205460ff16156118965750565b63e2517d3f60e01b60009081526001600160a01b0391909116600452600080516020611d33833981519152602452604490fd5b6001600160a01b03811660009081527fdae2aa361dfd1ca020a396615627d436107c35eff9fe7738a3512819782d7069602052604090205460ff161561190c5750565b63e2517d3f60e01b60009081526001600160a01b0391909116600452600080516020611d53833981519152602452604490fd5b90816000526000602052604060002060018060a01b03821660005260205260ff604060002054161561196f575050565b63e2517d3f60e01b60005260018060a01b031660045260245260446000fd5b6119978161151e565b156119d15750801515806119c1575b6119ad5750565b63121534c360e31b60005260045260246000fd5b506119cb81611536565b156119a6565b635ead8eb560e01b600052600452600460245260446000fd5b611a3493600093928493826040519384928337810185815203925af13d15611a37573d90611a17826112e7565b91611a2560405193846112b0565b82523d6000602084013e611a5f565b50565b606090611a5f565b611a488161151e565b156119d15760005260026020526001604060002055565b909190611a875750805115611a7657805190602001fd5b63d6bda27560e01b60005260046000fd5b565b611a938282611b67565b9182611a9e57505090565b600091825260016020526040909120611ac0916001600160a01b031690611c5f565b5090565b80548210156102bb5760005260206000200190600090565b6000818152602081815260408083206001600160a01b038616845290915290205460ff16611b60576000818152602081815260408083206001600160a01b0395909516808452949091528120805460ff19166001179055339291907f2f8788117e7eff1d82e926ec794901d17c78024a50270940304540a733656f0d9080a4600190565b5050600090565b6000818152602081815260408083206001600160a01b038616845290915290205460ff1615611b60576000818152602081815260408083206001600160a01b0395909516808452949091528120805460ff19169055339291907ff6391f5c32d9c69d2a47ea670b442974b53935d1edc7fd64eb21e047a839171b9080a4600190565b6001810190826000528160205260406000205415600014611c57578054680100000000000000008110156112d157611c42611c2b826001879401855584611ac4565b819391549060031b91821b91600019901b19161790565b90555491600052602052604060002055600190565b505050600090565b9060018201918160005282602052604060002054801515600014611d2957600019810181811161180b57825460001981019190821161180b57818103611cf2575b50505080548015611cdc576000190190611cba8282611ac4565b8154906000199060031b1b191690555560005260205260006040812055600190565b634e487b7160e01b600052603160045260246000fd5b611d12611d02611c2b9386611ac4565b90549060031b1c92839286611ac4565b905560005283602052604060002055388080611ca0565b5050505060009056feb09aa5aeb3702cfd50b6b62bc4532604938f21248a27a1d5ca736082b6819cc1d8aa0f3194971a2a116679f7c2090f6939c8d4e01a2a8d7e41d55e5351469e63fd643c72710c63c0180259aba6b2d05451e3591a24e58b62239378085726f783a26469706673582212202407ea378c52b81f67c42ad33dc60006e91bd319cc544dda9852fd8d259a0e2864736f6c634300081c00332f8788117e7eff1d82e926ec794901d17c78024a50270940304540a733656f0da6eef7e35abe7026729641147f7915573c7e97b47efa546f5f6e3230263bcb49b09aa5aeb3702cfd50b6b62bc4532604938f21248a27a1d5ca736082b6819cc1d8aa0f3194971a2a116679f7c2090f6939c8d4e01a2a8d7e41d55e5351469e63fd643c72710c63c0180259aba6b2d05451e3591a24e58b62239378085726f783ad3228b676f7d3cd4284a5443f17f1962b36e491b30a40b2405849e597ba5fb5",
  "devdoc": {
    "errors": {
      "AccessControlBadConfirmation()": [
        {
          "details": "The caller of a function is not the expected one. NOTE: Don't confuse with {AccessControlUnauthorizedAccount}."
        }
      ],
      "AccessControlUnauthorizedAccount(address,bytes32)": [
        {
          "details": "The `account` is missing a role."
        }
      ],
      "FailedCall()": [
        {
          "details": "A call to an address target failed. The target may have reverted."
        }
      ],
      "TimelockInsufficientDelay(uint256,uint256)": [
        {
          "details": "The schedule operation doesn't meet the minimum delay."
        }
      ],
      "TimelockInvalidOperationLength(uint256,uint256,uint256)": [
        {
          "details": "Mismatch between the parameters length for an operation call."
        }
      ],
      "TimelockUnauthorizedCaller(address)": [
        {
          "details": "The caller account is not authorized."
        }
      ],
      "TimelockUnexecutedPredecessor(bytes32)": [
        {
          "details": "The predecessor to an operation not yet done."
        }
      ],
      "TimelockUnexpectedOperationState(bytes32,bytes32)": [
        {
          "details": "The current state of an operation is not as required. The `expectedStates` is a bitmap with the bits enabled for each OperationState enum position counting from right to left. See {_encodeStateBitmap}."
        }
      ]
    },
    "events": {
      "CallExecuted(bytes32,uint256,address,uint256,bytes)": {
        "details": "Emitted when a call is performed as part of operation `id`."
      },
      "CallSalt(bytes32,bytes32)": {
        "details": "Emitted when new proposal is scheduled with non-zero salt."
      },
      "CallScheduled(bytes32,uint256,address,uint256,bytes,bytes32,uint256)": {
        "details": "Emitted when a call is scheduled as part of operation `id`."
      },
      "Cancelled(bytes32)": {
        "details": "Emitted when operation `id` is cancelled."
      },
      "MinDelayChange(uint256,uint256)": {
        "details": "Emitted when the minimum delay for future operations is modified."
      },
      "RoleAdminChanged(bytes32,bytes32,bytes32)": {
        "details": "Emitted when `newAdminRole` is set as ``role``'s admin role, replacing `previousAdminRole` `DEFAULT_ADMIN_ROLE` is the starting admin for all roles, despite {RoleAdminChanged} not being emitted signaling this."
      },
      "RoleGranted(bytes32,address,address)": {
        "details": "Emitted when `account` is granted `role`. `sender` is the account that originated the contract call. This account bears the admin role (for the granted role). Expected in cases where the role was granted using the internal {AccessControl-_grantRole}."
      },
      "RoleRevoked(bytes32,address,address)": {
        "details": "Emitted when `account` is revoked `role`. `sender` is the account that originated the contract call:   - if using `revokeRole`, it is the admin role bearer   - if using `renounceRole`, it is the role bearer (i.e. `account`)"
      }
    },
    "kind": "dev",
    "methods": {
      "cancel(bytes32)": {
        "details": "Cancel an operation. Requirements: - the caller must have the 'canceller' role."
      },
      "execute(address,uint256,bytes,bytes32,bytes32)": {
        "details": "Execute an (ready) operation containing a single transaction. Emits a {CallExecuted} event. Requirements: - the caller must have the 'executor' role."
      },
      "executeBatch(address[],uint256[],bytes[],bytes32,bytes32)": {
        "details": "Execute an (ready) operation containing a batch of transactions. Emits one {CallExecuted} event per transaction in the batch. Requirements: - the caller must have the 'executor' role."
      },
      "getMinDelay()": {
        "details": "Returns the minimum delay in seconds for an operation to become valid. This value can be changed by executing an operation that calls `updateDelay`."
      },
      "getOperationState(bytes32)": {
        "details": "Returns operation state."
      },
      "getRoleAdmin(bytes32)": {
        "details": "Returns the admin role that controls `role`. See {grantRole} and {revokeRole}. To change a role's admin, use {_setRoleAdmin}."
      },
      "getRoleMember(bytes32,uint256)": {
        "details": "Returns one of the accounts that have `role`. `index` must be a value between 0 and {getRoleMemberCount}, non-inclusive. Role bearers are not sorted in any particular way, and their ordering may change at any point. WARNING: When using {getRoleMember} and {getRoleMemberCount}, make sure you perform all queries on the same block. See the following https://forum.openzeppelin.com/t/iterating-over-elements-on-enumerableset-in-openzeppelin-contracts/2296[forum post] for more information."
      },
      "getRoleMemberCount(bytes32)": {
        "details": "Returns the number of accounts that have `role`. Can be used together with {getRoleMember} to enumerate all bearers of a role."
      },
      "getRoleMembers(bytes32)": {
        "details": "Return all accounts that have `role` WARNING: This operation will copy the entire storage to memory, which can be quite expensive. This is designed to mostly be used by view accessors that are queried without any gas fees. Developers should keep in mind that this function has an unbounded cost, and using it as part of a state-changing function may render the function uncallable if the set grows to a point where copying to memory consumes too much gas to fit in a block."
      },
      "getTimestamp(bytes32)": {
        "details": "Returns the timestamp at which an operation becomes ready (0 for unset operations, 1 for done operations)."
      },
      "grantRole(bytes32,address)": {
        "details": "Grants `role` to `account`. If `account` had not been already granted `role`, emits a {RoleGranted} event. Requirements: - the caller must have ``role``'s admin role. May emit a {RoleGranted} event."
      },
      "hasRole(bytes32,address)": {
        "details": "Returns `true` if `account` has been granted `role`."
      },
      "hashOperation(address,uint256,bytes,bytes32,bytes32)": {
        "details": "Returns the identifier of an operation containing a single transaction."
      },
      "hashOperationBatch(address[],uint256[],bytes[],bytes32,bytes32)": {
        "details": "Returns the identifier of an operation containing a batch of transactions."
      },
      "isOperation(bytes32)": {
        "details": "Returns whether an id corresponds to a registered operation. This includes both Waiting, Ready, and Done operations."
      },
      "isOperationDone(bytes32)": {
        "details": "Returns whether an operation is done or not."
      },
      "isOperationPending(bytes32)": {
        "details": "Returns whether an operation is pending or not. Note that a \"pending\" operation may also be \"ready\"."
      },
      "isOperationReady(bytes32)": {
        "details": "Returns whether an operation is ready for execution. Note that a \"ready\" operation is also \"pending\"."
      },
      "onERC721Received(address,address,uint256,bytes)": {
        "details": "See {IERC721Receiver-onERC721Received}. Always returns `IERC721Receiver.onERC721Received.selector`."
      },
      "renounceRole(bytes32,address)": {
        "details": "Revokes `role` from the calling account. Roles are often managed via {grantRole} and {revokeRole}: this function's purpose is to provide a mechanism for accounts to lose their privileges if they are compromised (such as when a trusted device is misplaced). If the calling account had been revoked `role`, emits a {RoleRevoked} event. Requirements: - the caller must be `callerConfirmation`. May emit a {RoleRevoked} event."
      },
      "revokeRole(bytes32,address)": {
        "details": "Revokes `role` from `account`. If `account` had been granted `role`, emits a {RoleRevoked} event. Requirements: - the caller must have ``role``'s admin role. May emit a {RoleRevoked} event."
      },
      "schedule(address,uint256,bytes,bytes32,bytes32,uint256)": {
        "details": "Schedule an operation containing a single transaction. Emits {CallSalt} if salt is nonzero, and {CallScheduled}. Requirements: - the caller must have the 'proposer' role."
      },
      "scheduleBatch(address[],uint256[],bytes[],bytes32,bytes32,uint256)": {
        "details": "Schedule an operation containing a batch of transactions. Emits {CallSalt} if salt is nonzero, and one {CallScheduled} event per transaction in the batch. Requirements: - the caller must have the 'proposer' role."
      },
      "updateDelay(uint256)": {
        "details": "Changes the minimum timelock duration for future operations. Emits a {MinDelayChange} event. Requirements: - the caller must be the timelock itself. This can only be achieved by scheduling and later executing an operation where the timelock is the target and the data is the ABI-encoded call to this function."
      }
    },
    "version": 1
  },
  "userdoc": {
    "kind": "user",
    "methods": {},
    "version": 1
  },
  "storageLayout": {
    "storage": [
      {
        "astId": 2125,
        "contract": "contracts/SomeTimelock.sol:SomeTimelock",
        "label": "_roles",
        "offset": 0,
        "slot": "0",
        "type": "t_mapping(t_bytes32,t_struct(RoleData)2120_storage)"
      },
      {
        "astId": 2647,
        "contract": "contracts/SomeTimelock.sol:SomeTimelock",
        "label": "_roleMembers",
        "offset": 0,
        "slot": "1",
        "type": "t_mapping(t_bytes32,t_struct(AddressSet)11908_storage)"
      },
      {
        "astId": 2851,
        "contract": "contracts/SomeTimelock.sol:SomeTimelock",
        "label": "_timestamps",
        "offset": 0,
        "slot": "2",
        "type": "t_mapping(t_bytes32,t_uint256)"
      },
      {
        "astId": 2853,
        "contract": "contracts/SomeTimelock.sol:SomeTimelock",
        "label": "_minDelay",
        "offset": 0,
        "slot": "3",
        "type": "t_uint256"
      }
    ],
    "types": {
      "t_address": {
        "encoding": "inplace",
        "label": "address",
        "numberOfBytes": "20"
      },
      "t_array(t_bytes32)dyn_storage": {
        "base": "t_bytes32",
        "encoding": "dynamic_array",
        "label": "bytes32[]",
        "numberOfBytes": "32"
      },
      "t_bool": {
        "encoding": "inplace",
        "label": "bool",
        "numberOfBytes": "1"
      },
      "t_bytes32": {
        "encoding": "inplace",
        "label": "bytes32",
        "numberOfBytes": "32"
      },
      "t_mapping(t_address,t_bool)": {
        "encoding": "mapping",
        "key": "t_address",
        "label": "mapping(address => bool)",
        "numberOfBytes": "32",
        "value": "t_bool"
      },
      "t_mapping(t_bytes32,t_struct(AddressSet)11908_storage)": {
        "encoding": "mapping",
        "key": "t_bytes32",
        "label": "mapping(bytes32 => struct EnumerableSet.AddressSet)",
        "numberOfBytes": "32",
        "value": "t_struct(AddressSet)11908_storage"
      },
      "t_mapping(t_bytes32,t_struct(RoleData)2120_storage)": {
        "encoding": "mapping",
        "key": "t_bytes32",
        "label": "mapping(bytes32 => struct AccessControl.RoleData)",
        "numberOfBytes": "32",
        "value": "t_struct(RoleData)2120_storage"
      },
      "t_mapping(t_bytes32,t_uint256)": {
        "encoding": "mapping",
        "key": "t_bytes32",
        "label": "mapping(bytes32 => uint256)",
        "numberOfBytes": "32",
        "value": "t_uint256"
      },
      "t_struct(AddressSet)11908_storage": {
        "encoding": "inplace",
        "label": "struct EnumerableSet.AddressSet",
        "members": [
          {
            "astId": 11907,
            "contract": "contracts/SomeTimelock.sol:SomeTimelock",
            "label": "_inner",
            "offset": 0,
            "slot": "0",
            "type": "t_struct(Set)11593_storage"
          }
        ],
        "numberOfBytes": "64"
      },
      "t_struct(RoleData)2120_storage": {
        "encoding": "inplace",
        "label": "struct AccessControl.RoleData",
        "members": [
          {
            "astId": 2117,
            "contract": "contracts/SomeTimelock.sol:SomeTimelock",
            "label": "hasRole",
            "offset": 0,
            "slot": "0",
            "type": "t_mapping(t_address,t_bool)"
          },
          {
            "astId": 2119,
            "contract": "contracts/SomeTimelock.sol:SomeTimelock",
            "label": "adminRole",
            "offset": 0,
            "slot": "1",
            "type": "t_bytes32"
          }
        ],
        "numberOfBytes": "64"
      },
      "t_struct(Set)11593_storage": {
        "encoding": "inplace",
        "label": "struct EnumerableSet.Set",
        "members": [
          {
            "astId": 11588,
            "contract": "contracts/SomeTimelock.sol:SomeTimelock",
            "label": "_values",
            "offset": 0,
            "slot": "0",
            "type": "t_array(t_bytes32)dyn_storage"
          },
          {
            "astId": 11592,
            "contract": "contracts/SomeTimelock.sol:SomeTimelock",
            "label": "_positions",
            "offset": 0,
            "slot": "1",
            "type": "t_mapping(t_bytes32,t_uint256)"
          }
        ],
        "numberOfBytes": "64"
      },
      "t_uint256": {
        "encoding": "inplace",
        "label": "uint256",
        "numberOfBytes": "32"
      }
    }
  }
}