{
  "address": "0xE9B0aA5734882da665E4Ed5063fAeD96bE105753",
  "abi": [
    {
      "inputs": [],
      "name": "ERC721EnumerableForbiddenBatchMint",
      "type": "error"
    },
    {
      "inputs": [
        {
          "internalType": "address",
          "name": "sender",
          "type": "address"
        },
        {
          "internalType": "uint256",
          "name": "tokenId",
          "type": "uint256"
        },
        {
          "internalType": "address",
          "name": "owner",
          "type": "address"
        }
      ],
      "name": "ERC721IncorrectOwner",
      "type": "error"
    },
    {
      "inputs": [
        {
          "internalType": "address",
          "name": "operator",
          "type": "address"
        },
        {
          "internalType": "uint256",
          "name": "tokenId",
          "type": "uint256"
        }
      ],
      "name": "ERC721InsufficientApproval",
      "type": "error"
    },
    {
      "inputs": [
        {
          "internalType": "address",
          "name": "approver",
          "type": "address"
        }
      ],
      "name": "ERC721InvalidApprover",
      "type": "error"
    },
    {
      "inputs": [
        {
          "internalType": "address",
          "name": "operator",
          "type": "address"
        }
      ],
      "name": "ERC721InvalidOperator",
      "type": "error"
    },
    {
      "inputs": [
        {
          "internalType": "address",
          "name": "owner",
          "type": "address"
        }
      ],
      "name": "ERC721InvalidOwner",
      "type": "error"
    },
    {
      "inputs": [
        {
          "internalType": "address",
          "name": "receiver",
          "type": "address"
        }
      ],
      "name": "ERC721InvalidReceiver",
      "type": "error"
    },
    {
      "inputs": [
        {
          "internalType": "address",
          "name": "sender",
          "type": "address"
        }
      ],
      "name": "ERC721InvalidSender",
      "type": "error"
    },
    {
      "inputs": [
        {
          "internalType": "uint256",
          "name": "tokenId",
          "type": "uint256"
        }
      ],
      "name": "ERC721NonexistentToken",
      "type": "error"
    },
    {
      "inputs": [
        {
          "internalType": "address",
          "name": "owner",
          "type": "address"
        },
        {
          "internalType": "uint256",
          "name": "index",
          "type": "uint256"
        }
      ],
      "name": "ERC721OutOfBoundsIndex",
      "type": "error"
    },
    {
      "inputs": [],
      "name": "InvalidInitialization",
      "type": "error"
    },
    {
      "inputs": [],
      "name": "NotInitializing",
      "type": "error"
    },
    {
      "inputs": [
        {
          "internalType": "address",
          "name": "owner",
          "type": "address"
        }
      ],
      "name": "OwnableInvalidOwner",
      "type": "error"
    },
    {
      "inputs": [
        {
          "internalType": "address",
          "name": "account",
          "type": "address"
        }
      ],
      "name": "OwnableUnauthorizedAccount",
      "type": "error"
    },
    {
      "inputs": [
        {
          "internalType": "address",
          "name": "token",
          "type": "address"
        }
      ],
      "name": "SafeERC20FailedOperation",
      "type": "error"
    },
    {
      "anonymous": false,
      "inputs": [
        {
          "indexed": true,
          "internalType": "address",
          "name": "_adapter",
          "type": "address"
        },
        {
          "indexed": false,
          "internalType": "bool",
          "name": "_enabled",
          "type": "bool"
        }
      ],
      "name": "AdapterSet",
      "type": "event"
    },
    {
      "anonymous": false,
      "inputs": [
        {
          "indexed": true,
          "internalType": "address",
          "name": "_airdropRewarder",
          "type": "address"
        }
      ],
      "name": "AirdropRewarderSet",
      "type": "event"
    },
    {
      "anonymous": false,
      "inputs": [
        {
          "indexed": true,
          "internalType": "address",
          "name": "owner",
          "type": "address"
        },
        {
          "indexed": true,
          "internalType": "address",
          "name": "approved",
          "type": "address"
        },
        {
          "indexed": true,
          "internalType": "uint256",
          "name": "tokenId",
          "type": "uint256"
        }
      ],
      "name": "Approval",
      "type": "event"
    },
    {
      "anonymous": false,
      "inputs": [
        {
          "indexed": true,
          "internalType": "address",
          "name": "owner",
          "type": "address"
        },
        {
          "indexed": true,
          "internalType": "address",
          "name": "operator",
          "type": "address"
        },
        {
          "indexed": false,
          "internalType": "bool",
          "name": "approved",
          "type": "bool"
        }
      ],
      "name": "ApprovalForAll",
      "type": "event"
    },
    {
      "anonymous": false,
      "inputs": [
        {
          "indexed": true,
          "internalType": "contract IERC20",
          "name": "token",
          "type": "address"
        },
        {
          "indexed": true,
          "internalType": "address",
          "name": "creator",
          "type": "address"
        },
        {
          "indexed": false,
          "internalType": "uint256",
          "name": "amount",
          "type": "uint256"
        }
      ],
      "name": "CreatorAllocation",
      "type": "event"
    },
    {
      "anonymous": false,
      "inputs": [
        {
          "indexed": true,
          "internalType": "address",
          "name": "newCron",
          "type": "address"
        }
      ],
      "name": "CronUpdated",
      "type": "event"
    },
    {
      "anonymous": false,
      "inputs": [
        {
          "indexed": false,
          "internalType": "uint256",
          "name": "_creatorAllocation",
          "type": "uint256"
        }
      ],
      "name": "DefaultCreatorAllocationSet",
      "type": "event"
    },
    {
      "anonymous": false,
      "inputs": [
        {
          "indexed": true,
          "internalType": "contract IERC20",
          "name": "_token",
          "type": "address"
        },
        {
          "indexed": false,
          "internalType": "uint256",
          "name": "_fee0",
          "type": "uint256"
        },
        {
          "indexed": false,
          "internalType": "uint256",
          "name": "_fee1",
          "type": "uint256"
        }
      ],
      "name": "FeeClaimed",
      "type": "event"
    },
    {
      "anonymous": false,
      "inputs": [
        {
          "indexed": true,
          "internalType": "address",
          "name": "feeDestination",
          "type": "address"
        },
        {
          "indexed": false,
          "internalType": "uint256",
          "name": "fee",
          "type": "uint256"
        }
      ],
      "name": "FeeUpdated",
      "type": "event"
    },
    {
      "anonymous": false,
      "inputs": [
        {
          "indexed": false,
          "internalType": "uint64",
          "name": "version",
          "type": "uint64"
        }
      ],
      "name": "Initialized",
      "type": "event"
    },
    {
      "anonymous": false,
      "inputs": [
        {
          "indexed": false,
          "internalType": "string",
          "name": "metadataUrl",
          "type": "string"
        }
      ],
      "name": "MetadataUrlUpdated",
      "type": "event"
    },
    {
      "anonymous": false,
      "inputs": [
        {
          "indexed": true,
          "internalType": "address",
          "name": "previousOwner",
          "type": "address"
        },
        {
          "indexed": true,
          "internalType": "address",
          "name": "newOwner",
          "type": "address"
        }
      ],
      "name": "OwnershipTransferred",
      "type": "event"
    },
    {
      "anonymous": false,
      "inputs": [
        {
          "indexed": true,
          "internalType": "address",
          "name": "referralDestination",
          "type": "address"
        },
        {
          "indexed": false,
          "internalType": "uint256",
          "name": "referralFee",
          "type": "uint256"
        }
      ],
      "name": "ReferralUpdated",
      "type": "event"
    },
    {
      "anonymous": false,
      "inputs": [
        {
          "indexed": true,
          "internalType": "contract IERC20",
          "name": "token",
          "type": "address"
        },
        {
          "indexed": true,
          "internalType": "address",
          "name": "adapter",
          "type": "address"
        },
        {
          "indexed": true,
          "internalType": "address",
          "name": "pool",
          "type": "address"
        },
        {
          "components": [
            {
              "internalType": "bytes32",
              "name": "salt",
              "type": "bytes32"
            },
            {
              "internalType": "contract ICLMMAdapter",
              "name": "adapter",
              "type": "address"
            },
            {
              "internalType": "contract IERC20",
              "name": "fundingToken",
              "type": "address"
            },
            {
              "internalType": "string",
              "name": "metadata",
              "type": "string"
            },
            {
              "internalType": "string",
              "name": "name",
              "type": "string"
            },
            {
              "internalType": "string",
              "name": "symbol",
              "type": "string"
            },
            {
              "internalType": "uint256[]",
              "name": "launchPoolAmounts",
              "type": "uint256[]"
            },
            {
              "components": [
                {
                  "internalType": "int24",
                  "name": "launchTick",
                  "type": "int24"
                },
                {
                  "internalType": "int24",
                  "name": "graduationTick",
                  "type": "int24"
                },
                {
                  "internalType": "int24",
                  "name": "upperMaxTick",
                  "type": "int24"
                },
                {
                  "internalType": "uint24",
                  "name": "fee",
                  "type": "uint24"
                },
                {
                  "internalType": "int24",
                  "name": "tickSpacing",
                  "type": "int24"
                },
                {
                  "internalType": "uint256",
                  "name": "graduationLiquidity",
                  "type": "uint256"
                }
              ],
              "internalType": "struct ITokenLaunchpad.ValueParams",
              "name": "valueParams",
              "type": "tuple"
            }
          ],
          "indexed": false,
          "internalType": "struct ITokenLaunchpad.CreateParams",
          "name": "params",
          "type": "tuple"
        }
      ],
      "name": "TokenLaunched",
      "type": "event"
    },
    {
      "anonymous": false,
      "inputs": [
        {
          "indexed": true,
          "internalType": "address",
          "name": "from",
          "type": "address"
        },
        {
          "indexed": true,
          "internalType": "address",
          "name": "to",
          "type": "address"
        },
        {
          "indexed": true,
          "internalType": "uint256",
          "name": "tokenId",
          "type": "uint256"
        }
      ],
      "name": "Transfer",
      "type": "event"
    },
    {
      "anonymous": false,
      "inputs": [
        {
          "indexed": true,
          "internalType": "address",
          "name": "_address",
          "type": "address"
        },
        {
          "indexed": false,
          "internalType": "bool",
          "name": "_whitelisted",
          "type": "bool"
        }
      ],
      "name": "WhitelistUpdated",
      "type": "event"
    },
    {
      "inputs": [],
      "name": "DEFAULT_CREATOR_ALLOCATION",
      "outputs": [
        {
          "internalType": "uint16",
          "name": "",
          "type": "uint16"
        }
      ],
      "stateMutability": "view",
      "type": "function"
    },
    {
      "inputs": [],
      "name": "MAX_CREATOR_ALLOCATION",
      "outputs": [
        {
          "internalType": "uint16",
          "name": "",
          "type": "uint16"
        }
      ],
      "stateMutability": "view",
      "type": "function"
    },
    {
      "inputs": [],
      "name": "adapter",
      "outputs": [
        {
          "internalType": "contract ICLMMAdapter",
          "name": "",
          "type": "address"
        }
      ],
      "stateMutability": "view",
      "type": "function"
    },
    {
      "inputs": [
        {
          "internalType": "contract ICLMMAdapter",
          "name": "",
          "type": "address"
        }
      ],
      "name": "adapters",
      "outputs": [
        {
          "internalType": "bool",
          "name": "",
          "type": "bool"
        }
      ],
      "stateMutability": "view",
      "type": "function"
    },
    {
      "inputs": [
        {
          "internalType": "address",
          "name": "to",
          "type": "address"
        },
        {
          "internalType": "uint256",
          "name": "tokenId",
          "type": "uint256"
        }
      ],
      "name": "approve",
      "outputs": [],
      "stateMutability": "nonpayable",
      "type": "function"
    },
    {
      "inputs": [
        {
          "internalType": "address",
          "name": "owner",
          "type": "address"
        }
      ],
      "name": "balanceOf",
      "outputs": [
        {
          "internalType": "uint256",
          "name": "",
          "type": "uint256"
        }
      ],
      "stateMutability": "view",
      "type": "function"
    },
    {
      "inputs": [
        {
          "internalType": "contract IERC20",
          "name": "_token",
          "type": "address"
        }
      ],
      "name": "claimFees",
      "outputs": [],
      "stateMutability": "nonpayable",
      "type": "function"
    },
    {
      "inputs": [
        {
          "internalType": "contract IERC20",
          "name": "_token",
          "type": "address"
        }
      ],
      "name": "claimedFees",
      "outputs": [
        {
          "internalType": "uint256",
          "name": "fee0",
          "type": "uint256"
        },
        {
          "internalType": "uint256",
          "name": "fee1",
          "type": "uint256"
        }
      ],
      "stateMutability": "view",
      "type": "function"
    },
    {
      "inputs": [
        {
          "internalType": "address",
          "name": "_creator",
          "type": "address"
        },
        {
          "internalType": "contract IERC20",
          "name": "_token",
          "type": "address"
        }
      ],
      "name": "claimedFeesByCreator",
      "outputs": [
        {
          "internalType": "uint256",
          "name": "fee0",
          "type": "uint256"
        },
        {
          "internalType": "uint256",
          "name": "fee1",
          "type": "uint256"
        }
      ],
      "stateMutability": "view",
      "type": "function"
    },
    {
      "inputs": [
        {
          "components": [
            {
              "internalType": "bytes32",
              "name": "salt",
              "type": "bytes32"
            },
            {
              "internalType": "contract ICLMMAdapter",
              "name": "adapter",
              "type": "address"
            },
            {
              "internalType": "contract IERC20",
              "name": "fundingToken",
              "type": "address"
            },
            {
              "internalType": "string",
              "name": "metadata",
              "type": "string"
            },
            {
              "internalType": "string",
              "name": "name",
              "type": "string"
            },
            {
              "internalType": "string",
              "name": "symbol",
              "type": "string"
            },
            {
              "internalType": "uint256[]",
              "name": "launchPoolAmounts",
              "type": "uint256[]"
            },
            {
              "components": [
                {
                  "internalType": "int24",
                  "name": "launchTick",
                  "type": "int24"
                },
                {
                  "internalType": "int24",
                  "name": "graduationTick",
                  "type": "int24"
                },
                {
                  "internalType": "int24",
                  "name": "upperMaxTick",
                  "type": "int24"
                },
                {
                  "internalType": "uint24",
                  "name": "fee",
                  "type": "uint24"
                },
                {
                  "internalType": "int24",
                  "name": "tickSpacing",
                  "type": "int24"
                },
                {
                  "internalType": "uint256",
                  "name": "graduationLiquidity",
                  "type": "uint256"
                }
              ],
              "internalType": "struct ITokenLaunchpad.ValueParams",
              "name": "valueParams",
              "type": "tuple"
            }
          ],
          "internalType": "struct ITokenLaunchpad.CreateParams",
          "name": "p",
          "type": "tuple"
        },
        {
          "internalType": "address",
          "name": "expected",
          "type": "address"
        },
        {
          "internalType": "uint256",
          "name": "amount",
          "type": "uint256"
        },
        {
          "internalType": "bool",
          "name": "burnPosition",
          "type": "bool"
        }
      ],
      "name": "createAndBuy",
      "outputs": [
        {
          "internalType": "address",
          "name": "",
          "type": "address"
        },
        {
          "internalType": "uint256",
          "name": "",
          "type": "uint256"
        },
        {
          "internalType": "uint256",
          "name": "",
          "type": "uint256"
        }
      ],
      "stateMutability": "payable",
      "type": "function"
    },
    {
      "inputs": [],
      "name": "creationFee",
      "outputs": [
        {
          "internalType": "uint256",
          "name": "",
          "type": "uint256"
        }
      ],
      "stateMutability": "view",
      "type": "function"
    },
    {
      "inputs": [
        {
          "internalType": "address",
          "name": "creator",
          "type": "address"
        },
        {
          "internalType": "contract IERC20",
          "name": "token",
          "type": "address"
        },
        {
          "internalType": "uint8",
          "name": "tokenIndex",
          "type": "uint8"
        }
      ],
      "name": "creatorToClaimedFees",
      "outputs": [
        {
          "internalType": "uint256",
          "name": "claimedFees",
          "type": "uint256"
        }
      ],
      "stateMutability": "view",
      "type": "function"
    },
    {
      "inputs": [],
      "name": "cron",
      "outputs": [
        {
          "internalType": "address",
          "name": "",
          "type": "address"
        }
      ],
      "stateMutability": "view",
      "type": "function"
    },
    {
      "inputs": [
        {
          "internalType": "contract IERC20",
          "name": "",
          "type": "address"
        },
        {
          "internalType": "contract ICLMMAdapter",
          "name": "",
          "type": "address"
        }
      ],
      "name": "defaultValueParams",
      "outputs": [
        {
          "internalType": "int24",
          "name": "launchTick",
          "type": "int24"
        },
        {
          "internalType": "int24",
          "name": "graduationTick",
          "type": "int24"
        },
        {
          "internalType": "int24",
          "name": "upperMaxTick",
          "type": "int24"
        },
        {
          "internalType": "uint24",
          "name": "fee",
          "type": "uint24"
        },
        {
          "internalType": "int24",
          "name": "tickSpacing",
          "type": "int24"
        },
        {
          "internalType": "uint256",
          "name": "graduationLiquidity",
          "type": "uint256"
        }
      ],
      "stateMutability": "view",
      "type": "function"
    },
    {
      "inputs": [],
      "name": "feeDestination",
      "outputs": [
        {
          "internalType": "address",
          "name": "",
          "type": "address"
        }
      ],
      "stateMutability": "view",
      "type": "function"
    },
    {
      "inputs": [],
      "name": "feeDiscountAmount",
      "outputs": [
        {
          "internalType": "uint256",
          "name": "",
          "type": "uint256"
        }
      ],
      "stateMutability": "view",
      "type": "function"
    },
    {
      "inputs": [],
      "name": "fundingToken",
      "outputs": [
        {
          "internalType": "contract IERC20",
          "name": "",
          "type": "address"
        }
      ],
      "stateMutability": "view",
      "type": "function"
    },
    {
      "inputs": [
        {
          "internalType": "uint256",
          "name": "tokenId",
          "type": "uint256"
        }
      ],
      "name": "getApproved",
      "outputs": [
        {
          "internalType": "address",
          "name": "",
          "type": "address"
        }
      ],
      "stateMutability": "view",
      "type": "function"
    },
    {
      "inputs": [
        {
          "internalType": "contract IERC20",
          "name": "_token",
          "type": "address"
        },
        {
          "internalType": "contract ICLMMAdapter",
          "name": "_adapter",
          "type": "address"
        }
      ],
      "name": "getDefaultValueParams",
      "outputs": [
        {
          "components": [
            {
              "internalType": "int24",
              "name": "launchTick",
              "type": "int24"
            },
            {
              "internalType": "int24",
              "name": "graduationTick",
              "type": "int24"
            },
            {
              "internalType": "int24",
              "name": "upperMaxTick",
              "type": "int24"
            },
            {
              "internalType": "uint24",
              "name": "fee",
              "type": "uint24"
            },
            {
              "internalType": "int24",
              "name": "tickSpacing",
              "type": "int24"
            },
            {
              "internalType": "uint256",
              "name": "graduationLiquidity",
              "type": "uint256"
            }
          ],
          "internalType": "struct ITokenLaunchpad.ValueParams",
          "name": "params",
          "type": "tuple"
        }
      ],
      "stateMutability": "view",
      "type": "function"
    },
    {
      "inputs": [
        {
          "internalType": "contract IERC20",
          "name": "_token",
          "type": "address"
        }
      ],
      "name": "getQuoteToken",
      "outputs": [
        {
          "internalType": "contract IERC20",
          "name": "quoteToken",
          "type": "address"
        }
      ],
      "stateMutability": "view",
      "type": "function"
    },
    {
      "inputs": [
        {
          "internalType": "contract IERC20",
          "name": "_token",
          "type": "address"
        }
      ],
      "name": "getTokenAdapter",
      "outputs": [
        {
          "internalType": "contract ICLMMAdapter",
          "name": "",
          "type": "address"
        }
      ],
      "stateMutability": "view",
      "type": "function"
    },
    {
      "inputs": [
        {
          "internalType": "contract IERC20",
          "name": "_token",
          "type": "address"
        }
      ],
      "name": "getTokenFee",
      "outputs": [
        {
          "internalType": "uint24",
          "name": "fee",
          "type": "uint24"
        }
      ],
      "stateMutability": "view",
      "type": "function"
    },
    {
      "inputs": [
        {
          "internalType": "contract IERC20",
          "name": "_token",
          "type": "address"
        }
      ],
      "name": "getTokenLaunchParams",
      "outputs": [
        {
          "components": [
            {
              "internalType": "bytes32",
              "name": "salt",
              "type": "bytes32"
            },
            {
              "internalType": "contract ICLMMAdapter",
              "name": "adapter",
              "type": "address"
            },
            {
              "internalType": "contract IERC20",
              "name": "fundingToken",
              "type": "address"
            },
            {
              "internalType": "string",
              "name": "metadata",
              "type": "string"
            },
            {
              "internalType": "string",
              "name": "name",
              "type": "string"
            },
            {
              "internalType": "string",
              "name": "symbol",
              "type": "string"
            },
            {
              "internalType": "uint256[]",
              "name": "launchPoolAmounts",
              "type": "uint256[]"
            },
            {
              "components": [
                {
                  "internalType": "int24",
                  "name": "launchTick",
                  "type": "int24"
                },
                {
                  "internalType": "int24",
                  "name": "graduationTick",
                  "type": "int24"
                },
                {
                  "internalType": "int24",
                  "name": "upperMaxTick",
                  "type": "int24"
                },
                {
                  "internalType": "uint24",
                  "name": "fee",
                  "type": "uint24"
                },
                {
                  "internalType": "int24",
                  "name": "tickSpacing",
                  "type": "int24"
                },
                {
                  "internalType": "uint256",
                  "name": "graduationLiquidity",
                  "type": "uint256"
                }
              ],
              "internalType": "struct ITokenLaunchpad.ValueParams",
              "name": "valueParams",
              "type": "tuple"
            }
          ],
          "internalType": "struct ITokenLaunchpad.CreateParams",
          "name": "params",
          "type": "tuple"
        }
      ],
      "stateMutability": "view",
      "type": "function"
    },
    {
      "inputs": [],
      "name": "getTotalTokens",
      "outputs": [
        {
          "internalType": "uint256",
          "name": "",
          "type": "uint256"
        }
      ],
      "stateMutability": "view",
      "type": "function"
    },
    {
      "inputs": [
        {
          "internalType": "address",
          "name": "_owner",
          "type": "address"
        },
        {
          "internalType": "address",
          "name": "_fundingToken",
          "type": "address"
        }
      ],
      "name": "initialize",
      "outputs": [],
      "stateMutability": "nonpayable",
      "type": "function"
    },
    {
      "inputs": [
        {
          "internalType": "address",
          "name": "owner",
          "type": "address"
        },
        {
          "internalType": "address",
          "name": "operator",
          "type": "address"
        }
      ],
      "name": "isApprovedForAll",
      "outputs": [
        {
          "internalType": "bool",
          "name": "",
          "type": "bool"
        }
      ],
      "stateMutability": "view",
      "type": "function"
    },
    {
      "inputs": [
        {
          "internalType": "contract IERC20",
          "name": "",
          "type": "address"
        }
      ],
      "name": "launchParams",
      "outputs": [
        {
          "internalType": "bytes32",
          "name": "salt",
          "type": "bytes32"
        },
        {
          "internalType": "contract ICLMMAdapter",
          "name": "adapter",
          "type": "address"
        },
        {
          "internalType": "contract IERC20",
          "name": "fundingToken",
          "type": "address"
        },
        {
          "internalType": "string",
          "name": "metadata",
          "type": "string"
        },
        {
          "internalType": "string",
          "name": "name",
          "type": "string"
        },
        {
          "internalType": "string",
          "name": "symbol",
          "type": "string"
        },
        {
          "components": [
            {
              "internalType": "int24",
              "name": "launchTick",
              "type": "int24"
            },
            {
              "internalType": "int24",
              "name": "graduationTick",
              "type": "int24"
            },
            {
              "internalType": "int24",
              "name": "upperMaxTick",
              "type": "int24"
            },
            {
              "internalType": "uint24",
              "name": "fee",
              "type": "uint24"
            },
            {
              "internalType": "int24",
              "name": "tickSpacing",
              "type": "int24"
            },
            {
              "internalType": "uint256",
              "name": "graduationLiquidity",
              "type": "uint256"
            }
          ],
          "internalType": "struct ITokenLaunchpad.ValueParams",
          "name": "valueParams",
          "type": "tuple"
        }
      ],
      "stateMutability": "view",
      "type": "function"
    },
    {
      "inputs": [],
      "name": "name",
      "outputs": [
        {
          "internalType": "string",
          "name": "",
          "type": "string"
        }
      ],
      "stateMutability": "view",
      "type": "function"
    },
    {
      "inputs": [],
      "name": "owner",
      "outputs": [
        {
          "internalType": "address",
          "name": "",
          "type": "address"
        }
      ],
      "stateMutability": "view",
      "type": "function"
    },
    {
      "inputs": [
        {
          "internalType": "uint256",
          "name": "tokenId",
          "type": "uint256"
        }
      ],
      "name": "ownerOf",
      "outputs": [
        {
          "internalType": "address",
          "name": "",
          "type": "address"
        }
      ],
      "stateMutability": "view",
      "type": "function"
    },
    {
      "inputs": [],
      "name": "referralDestination",
      "outputs": [
        {
          "internalType": "contract IReferralDistributor",
          "name": "",
          "type": "address"
        }
      ],
      "stateMutability": "view",
      "type": "function"
    },
    {
      "inputs": [],
      "name": "referralFee",
      "outputs": [
        {
          "internalType": "uint256",
          "name": "",
          "type": "uint256"
        }
      ],
      "stateMutability": "view",
      "type": "function"
    },
    {
      "inputs": [],
      "name": "renounceOwnership",
      "outputs": [],
      "stateMutability": "nonpayable",
      "type": "function"
    },
    {
      "inputs": [
        {
          "internalType": "address",
          "name": "from",
          "type": "address"
        },
        {
          "internalType": "address",
          "name": "to",
          "type": "address"
        },
        {
          "internalType": "uint256",
          "name": "tokenId",
          "type": "uint256"
        }
      ],
      "name": "safeTransferFrom",
      "outputs": [],
      "stateMutability": "nonpayable",
      "type": "function"
    },
    {
      "inputs": [
        {
          "internalType": "address",
          "name": "from",
          "type": "address"
        },
        {
          "internalType": "address",
          "name": "to",
          "type": "address"
        },
        {
          "internalType": "uint256",
          "name": "tokenId",
          "type": "uint256"
        },
        {
          "internalType": "bytes",
          "name": "data",
          "type": "bytes"
        }
      ],
      "name": "safeTransferFrom",
      "outputs": [],
      "stateMutability": "nonpayable",
      "type": "function"
    },
    {
      "inputs": [
        {
          "internalType": "address",
          "name": "operator",
          "type": "address"
        },
        {
          "internalType": "bool",
          "name": "approved",
          "type": "bool"
        }
      ],
      "name": "setApprovalForAll",
      "outputs": [],
      "stateMutability": "nonpayable",
      "type": "function"
    },
    {
      "inputs": [
        {
          "internalType": "address",
          "name": "_cron",
          "type": "address"
        }
      ],
      "name": "setCron",
      "outputs": [],
      "stateMutability": "nonpayable",
      "type": "function"
    },
    {
      "inputs": [
        {
          "internalType": "uint16",
          "name": "_creatorAllocation",
          "type": "uint16"
        }
      ],
      "name": "setDefaultCreatorAllocation",
      "outputs": [],
      "stateMutability": "nonpayable",
      "type": "function"
    },
    {
      "inputs": [
        {
          "internalType": "contract IERC20",
          "name": "_token",
          "type": "address"
        },
        {
          "internalType": "contract ICLMMAdapter",
          "name": "_adapter",
          "type": "address"
        },
        {
          "components": [
            {
              "internalType": "int24",
              "name": "launchTick",
              "type": "int24"
            },
            {
              "internalType": "int24",
              "name": "graduationTick",
              "type": "int24"
            },
            {
              "internalType": "int24",
              "name": "upperMaxTick",
              "type": "int24"
            },
            {
              "internalType": "uint24",
              "name": "fee",
              "type": "uint24"
            },
            {
              "internalType": "int24",
              "name": "tickSpacing",
              "type": "int24"
            },
            {
              "internalType": "uint256",
              "name": "graduationLiquidity",
              "type": "uint256"
            }
          ],
          "internalType": "struct ITokenLaunchpad.ValueParams",
          "name": "_params",
          "type": "tuple"
        }
      ],
      "name": "setDefaultValueParams",
      "outputs": [],
      "stateMutability": "nonpayable",
      "type": "function"
    },
    {
      "inputs": [
        {
          "internalType": "address",
          "name": "_feeDestination",
          "type": "address"
        },
        {
          "internalType": "uint256",
          "name": "_fee",
          "type": "uint256"
        },
        {
          "internalType": "uint256",
          "name": "_feeDiscountAmount",
          "type": "uint256"
        }
      ],
      "name": "setFeeSettings",
      "outputs": [],
      "stateMutability": "nonpayable",
      "type": "function"
    },
    {
      "inputs": [
        {
          "internalType": "contract IERC20",
          "name": "_fundingToken",
          "type": "address"
        }
      ],
      "name": "setFundingToken",
      "outputs": [],
      "stateMutability": "nonpayable",
      "type": "function"
    },
    {
      "inputs": [
        {
          "internalType": "address",
          "name": "_referralDestination",
          "type": "address"
        },
        {
          "internalType": "uint256",
          "name": "_referralFee",
          "type": "uint256"
        }
      ],
      "name": "setReferralSettings",
      "outputs": [],
      "stateMutability": "nonpayable",
      "type": "function"
    },
    {
      "inputs": [
        {
          "internalType": "bytes4",
          "name": "interfaceId",
          "type": "bytes4"
        }
      ],
      "name": "supportsInterface",
      "outputs": [
        {
          "internalType": "bool",
          "name": "",
          "type": "bool"
        }
      ],
      "stateMutability": "view",
      "type": "function"
    },
    {
      "inputs": [],
      "name": "symbol",
      "outputs": [
        {
          "internalType": "string",
          "name": "",
          "type": "string"
        }
      ],
      "stateMutability": "view",
      "type": "function"
    },
    {
      "inputs": [
        {
          "internalType": "contract ICLMMAdapter",
          "name": "_adapter",
          "type": "address"
        }
      ],
      "name": "toggleAdapter",
      "outputs": [],
      "stateMutability": "nonpayable",
      "type": "function"
    },
    {
      "inputs": [
        {
          "internalType": "address",
          "name": "_address",
          "type": "address"
        }
      ],
      "name": "toggleWhitelist",
      "outputs": [],
      "stateMutability": "nonpayable",
      "type": "function"
    },
    {
      "inputs": [
        {
          "internalType": "uint256",
          "name": "index",
          "type": "uint256"
        }
      ],
      "name": "tokenByIndex",
      "outputs": [
        {
          "internalType": "uint256",
          "name": "",
          "type": "uint256"
        }
      ],
      "stateMutability": "view",
      "type": "function"
    },
    {
      "inputs": [
        {
          "internalType": "address",
          "name": "owner",
          "type": "address"
        },
        {
          "internalType": "uint256",
          "name": "index",
          "type": "uint256"
        }
      ],
      "name": "tokenOfOwnerByIndex",
      "outputs": [
        {
          "internalType": "uint256",
          "name": "",
          "type": "uint256"
        }
      ],
      "stateMutability": "view",
      "type": "function"
    },
    {
      "inputs": [
        {
          "internalType": "contract IERC20",
          "name": "",
          "type": "address"
        }
      ],
      "name": "tokenToNftId",
      "outputs": [
        {
          "internalType": "uint256",
          "name": "",
          "type": "uint256"
        }
      ],
      "stateMutability": "view",
      "type": "function"
    },
    {
      "inputs": [
        {
          "internalType": "uint256",
          "name": "tokenId",
          "type": "uint256"
        }
      ],
      "name": "tokenURI",
      "outputs": [
        {
          "internalType": "string",
          "name": "",
          "type": "string"
        }
      ],
      "stateMutability": "view",
      "type": "function"
    },
    {
      "inputs": [
        {
          "internalType": "uint256",
          "name": "",
          "type": "uint256"
        }
      ],
      "name": "tokens",
      "outputs": [
        {
          "internalType": "contract IERC20",
          "name": "",
          "type": "address"
        }
      ],
      "stateMutability": "view",
      "type": "function"
    },
    {
      "inputs": [],
      "name": "totalSupply",
      "outputs": [
        {
          "internalType": "uint256",
          "name": "",
          "type": "uint256"
        }
      ],
      "stateMutability": "view",
      "type": "function"
    },
    {
      "inputs": [
        {
          "internalType": "address",
          "name": "from",
          "type": "address"
        },
        {
          "internalType": "address",
          "name": "to",
          "type": "address"
        },
        {
          "internalType": "uint256",
          "name": "tokenId",
          "type": "uint256"
        }
      ],
      "name": "transferFrom",
      "outputs": [],
      "stateMutability": "nonpayable",
      "type": "function"
    },
    {
      "inputs": [
        {
          "internalType": "address",
          "name": "newOwner",
          "type": "address"
        }
      ],
      "name": "transferOwnership",
      "outputs": [],
      "stateMutability": "nonpayable",
      "type": "function"
    },
    {
      "inputs": [
        {
          "internalType": "address",
          "name": "",
          "type": "address"
        }
      ],
      "name": "whitelisted",
      "outputs": [
        {
          "internalType": "bool",
          "name": "",
          "type": "bool"
        }
      ],
      "stateMutability": "view",
      "type": "function"
    },
    {
      "stateMutability": "payable",
      "type": "receive"
    }
  ],
  "transactionHash": "0xb43eb3325ec601aa7189290795119dfa82593b6f5caaea6a2862c232842fd362",
  "args": [],
  "numDeployments": 1,
  "solcInputHash": "92def0bcbb571a50613846b58b76c361",
  "bytecode": "0x608080604052346015576150d7908161001b8239f35b600080fdfe608080604052600436101561001d575b50361561001b57600080fd5b005b600090813560e01c90816301ffc9a7146134005750806303eadcfc146133d757806306fdde0314613328578063081812fc146132dc578063095ea7b3146131f45780630a13eb151461316257806315a0ea6a14612a6157806318160ddd14612a365780631bea88f2146128ac57806323b872dd14612894578063252154fa1461284e5780632835f3f9146127d35780632b76a557146126fe5780632f745c591461267957806339393ac9146125df5780633df8a4681461259b57806342842e0e14612571578063467fae1e14611377578063485cc95514610e925780634f64b2be14610e4e5780634f6ccce714610df157806353b1f41d14610db55780635e72d12514610c745780635f15147514610c575780636352211e14610c265780636755908d14610bed5780636d16ab2514610bcb57806370a0823114610b9f578063715018a614610b35578063753509d814610acd57806378065f2714610aa457806384ae2bc614610a865780638da5cb5b14610a50578063956520ee146109b657806395d89b41146108b95780639f2c436314610876578063a22cb465146107d2578063aefb5f361461078d578063b38db98214610725578063b88d4fde146106c1578063b90dc8ff14610698578063c840328e14610630578063c87b56dd146105d4578063d10c2161146105ab578063d28cf53514610532578063d936547e146104f3578063dce0b4e4146104d5578063de53fcd5146104ae578063e4d8c2c514610432578063e5711ffc146103f3578063e985e9c5146103a4578063f08b82e614610386578063f0f8021e146102d0578063f2fde38b146102a35763fa1d576d0361000f57346102a057806003193601126102a0576020600654604051908152f35b80fd5b50346102a05760203660031901126102a0576102cd6102c06134c8565b6102c861415f565b613f75565b80f35b50346102a05760203660031901126102a0576001600160a01b036102f26134c8565b168082526009602052604080832060010154815163787c010f60e11b81526004810193909352919291839060249082906001600160a01b03165afa801561037957604092829161034a575b5082519182526020820152f35b905061036c9150823d8411610372575b61036481836135cc565b810190613955565b3861033d565b503d61035a565b50604051903d90823e3d90fd5b50346102a057806003193601126102a0576020600254604051908152f35b50346102a05760403660031901126102a0576103be6134c8565b6103cf6103c96134e3565b9161350d565b9060018060a01b0316600052602052602060ff604060002054166040519015158152f35b50346102a05760203660031901126102a05760209060ff906040906001600160a01b0361041e6134c8565b168152600d84522054166040519015158152f35b50346102a05760603660031901126102a05761044c6134c8565b7f6f0eaf2c2f89fb4cfe96a1dee5e764d60b52c7f48aaa590f0850e308aa1b953a60206024359261047b61415f565b84546001600160a01b0319166001600160a01b03919091169081178555600584905560443560065560405193845292a280f35b50346102a057806003193601126102a057546040516001600160a01b039091168152602090f35b50346102a057806003193601126102a0576020600554604051908152f35b50346102a05760203660031901126102a05760209060ff906040906001600160a01b0361051e6134c8565b168152600b84522054166040519015158152f35b50346102a05760403660031901126102a05761054c6134c8565b7f6a865a099cc391df89f1dd66aadf8ffd4e3a827c1c8c3e46ccbfd92565840bd660206024359261057b61415f565b60018060a01b031692836bffffffffffffffffffffffff60a01b600354161760035580600755604051908152a280f35b50346102a057806003193601126102a0576003546040516001600160a01b039091168152602090f35b50346102a05760203660031901126102a0576105f1600435613feb565b50806040516106016020826135cc565b525061062c6040516106146020826135cc565b60008152604051918291602083526020830190613487565b0390f35b50346102a05760203660031901126102a05760043561ffff81168091036106945760207fa99c4d0aa0b8a8db1d83f03a1e5a6fceac400bc9d697c93344004ef4600cb0a99161067d61415f565b8061ffff19600e541617600e55604051908152a180f35b5080fd5b50346102a057806003193601126102a0576008546040516001600160a01b039091168152602090f35b50346102a05760803660031901126102a0576106db6134c8565b6106e36134e3565b606435916001600160401b0383116107215736602384011215610721576107176102cd9336906024816004013591016137c9565b9160443591613e2e565b8380fd5b50346102a05760203660031901126102a05761073f6134c8565b61074761415f565b600880546001600160a01b0319166001600160a01b039290921691821790557f1f7f5cbc206344444030774fddda7b65e61dca1ae350c7ac22915e89117dfeb48280a280f35b50346102a05760203660031901126102a0576107a76134c8565b6107af61415f565b60018060a01b03166bffffffffffffffffffffffff60a01b600454161760045580f35b50346102a05760403660031901126102a0576107ec6134c8565b6024359081151590818303610721576001600160a01b031691821561086257610833906108183361350d565b848652602052604085209060ff801983541691151516179055565b6040519081527f17307eab39ab6107e8899845ad3d59bd9653f200f220920489ca2b5937696c3160203392a380f35b630b61174360e31b84526004839052602484fd5b50346102a05760203660031901126102a0576020906001600160a01b0361089b6134c8565b1681526009825260016040818060a01b039220015416604051908152f35b50346102a057806003193601126102a057604051908060008051602061506283398151915254906108e982613635565b808552916001811690811561098f5750600114610925575b61062c84610911818603826135cc565b604051918291602083526020830190613487565b60008051602061506283398151915281527ff4bad0a69248f59680a4f2b3000328cec71a413447c96781cfe5996daa8c456e939250905b8082106109755750909150810160200161091182610901565b91926001816020925483858801015201910190929161095c565b60ff191660208087019190915292151560051b850190920192506109119150839050610901565b50346102a05760203660031901126102a0576109d06134c8565b6109d861415f565b60018060a01b0316808252600d602052610a1160ff60408420541615828452600d602052604084209060ff801983541691151516179055565b808252600d6020527f85ff5d10aa202e69f691155a2050fed648b2d67f85e35d1279510cc434023736602060ff6040852054166040519015158152a280f35b50346102a057806003193601126102a057600080516020614fe2833981519152546040516001600160a01b039091168152602090f35b50346102a057806003193601126102a0576020600754604051908152f35b50346102a057806003193601126102a0576004546040516001600160a01b039091168152602090f35b50346102a05760603660031901126102a057610ae76134c8565b610aef6134e3565b6044359160ff8316809303610721576001600160a01b039081168452600f6020908152604080862093909216855291825280842092845291815291819020549051908152f35b50346102a057806003193601126102a057610b4e61415f565b600080516020614fe283398151915280546001600160a01b0319811690915581906001600160a01b03167f8be0079c531659141344cd1fd0a4f28419497f9722a3daafe3b4186f6b6457e08280a380f35b50346102a05760203660031901126102a0576020610bc3610bbe6134c8565b613dfc565b604051908152f35b50346102a057806003193601126102a057602061ffff600e5416604051908152f35b50346102a05760203660031901126102a0576020906040906001600160a01b03610c156134c8565b168152600a83522054604051908152f35b50346102a05760203660031901126102a0576020610c45600435613feb565b6040516001600160a01b039091168152f35b50346102a057806003193601126102a05760206040516101f48152f35b50346102a05760203660031901126102a057610c8e6134c8565b604051610c9a8161357f565b82815282602082015282604082015260608082015260606080820152606060a0820152606060c082015260e0610cce613d5e565b9101526001600160a01b031681526009602052604080822090519091610cf38261357f565b8254825260018301546001600160a01b0390811660208401526002840154166040830152610d236003840161366f565b6060830152610d346004840161366f565b6080830152610d456005840161366f565b60a083015260068301604051918260208354918281520192825260208220915b818110610d9f5761062c86610d8e60078a89610d83818b03826135cc565b60c085015201613713565b60e082015260405191829182613884565b8254845260209093019260019283019201610d65565b50346102a05760403660031901126102a05760c0610de2610dd46134c8565b610ddc6134e3565b90613d8f565b610def6040518092613766565bf35b50346102a05760203660031901126102a0576004359060008051602061500283398151915254821015610e38576020610e298361384f565b90549060031b1c604051908152f35b60449163295f44f760e21b825281600452602452fd5b50346102a05760203660031901126102a057600435906002548210156102a0576020610e798361381e565b905460405160039290921b1c6001600160a01b03168152f35b50346102a05760403660031901126102a057610eac6134c8565b90610eb56134e3565b91600080516020615042833981519152549260ff8460401c1615936001600160401b0381168015908161136f575b6001149081611365575b15908161135c575b5061134d5767ffffffffffffffff19811660011760008051602061504283398151915255610f6592919085611320575b50600480546001600160a01b03199081166001600160a01b039384161790915560088054909116918316919091179055610f5d6142c1565b6102c86142c1565b6040805192610f7482856135cc565b601384527214dbdb595d1a1a5b99c813185d5b98da1c1859606a1b6020850152815193610fa183866135cc565b6009855268534f4d455448494e4760b81b6020860152610fbf6142c1565b610fc76142c1565b8051906001600160401b03821161130c578190610ff2600080516020614fc283398151915254613635565b601f811161129e575b50602090601f8311600114611213578692611208575b50508160011b916000199060031b1c191617600080516020614fc2833981519152555b83516001600160401b0381116111f45761105c60008051602061506283398151915254613635565b601f811161118e575b50602094601f8211600114611110579484958293949592611105575b50508160011b916000199060031b1c191617600080516020615062833981519152555b6110ac575080f35b60207fc7f505b2f371ae2175ee4913f4499e1f2633a7b5936321eed1cdaeb6115181d29168ff0000000000000000196000805160206150428339815191525416600080516020615042833981519152555160018152a180f35b015190503880611081565b601f19821695600080516020615062833981519152865280862091865b8881106111765750836001959697981061115d575b505050811b01600080516020615062833981519152556110a4565b015160001960f88460031b161c19169055388080611142565b9192602060018192868501518155019401920161112d565b60008051602061506283398151915285526111e4907ff4bad0a69248f59680a4f2b3000328cec71a413447c96781cfe5996daa8c456e601f840160051c810191602085106111ea575b601f0160051c0190613d47565b38611065565b90915081906111d7565b634e487b7160e01b84526041600452602484fd5b015190503880611011565b600080516020614fc283398151915287526000805160206150828339815191529250601f198416875b818110611286575090846001959493921061126d575b505050811b01600080516020614fc283398151915255611034565b015160001960f88460031b161c19169055388080611252565b9293602060018192878601518155019501930161123c565b6112f090600080516020614fc28339815191528852601f840160051c6000805160206150828339815191520190602085106112f6575b601f0160051c6000805160206150828339815191520190613d47565b38610ffb565b60008051602061508283398151915291506112d4565b634e487b7160e01b85526041600452602485fd5b68ffffffffffffffffff191668010000000000000001176000805160206150428339815191525538610f25565b63f92ee8a960e01b8452600484fd5b90501538610ef5565b303b159150610eed565b869150610ee3565b5060803660031901126102a057600435906001600160401b0382116102a0578136036101a0600319820112610694576040516113b28161357f565b836004013581526113c5602485016134f9565b60208201526113d6604485016134f9565b604082015260648401356001600160401b038111610721576113fe9060043691870101613800565b936060820194855260848101356001600160401b038111611f28576114299060043691840101613800565b946080830195865260a48201356001600160401b038111612555576114549060043691850101613800565b9360a0840194855260c48301356001600160401b03811161256d578301903660238301121561256d576004820135916001600160401b038311612247578260051b604051936114a660208301866135cc565b8452810160240190602084019036831161256957602401905b8282106125595750505060c09081860192835260e319011261255557604051926114e8846135b1565b6114f460e482016135ed565b845261150361010482016135ed565b602085015261151561012482016135ed565b604085015261014481013562ffffff811681036125515760608501526101849061154261016482016135ed565b6080860152013560a084015260e0840192835261155d6134e3565b94606435978815158903612551576020868101516001600160a01b03168952600d9052604088205460ff161561251a578760055480159081156124e0575b505050604086015160208701516115be916001600160a01b039182169116613d8f565b855260408681015190516323b872dd60e01b8152336004820152306024820152683635c9adc5dea00000604482015290602090829060649082908d906001600160a01b03165af180156124d5576124b8575b50855161164461166483516116568651604051948593602085019788523360408601526080606086015260a0850190613487565b838103601f1901608085015290613487565b03601f1981018352826135cc565b519020815183519060405191610c9291828401928484106001600160401b0385111761217c57916116a88594926116b6946142f08739604084526040840190613487565b916020818403910152613487565b03908af59687156124ad576001600160a01b0316801590811561249a575b501561245d576002546001600160a01b0388168952600a60205260408920819055600160401b81101561202257806001611711920160025561381e565b81546001600160a01b038a8116600393841b81811b9083901b19909316929092179093558a52600960209081526040808c208a518155918a01516001830180549186166001600160a01b0319928316179055908a015160028301805491909516911617909255945180519195860191906001600160401b0382116124495781908b61179c8554613635565b601f8111612419575b5050602090601f83116001146123b6578c926123ab575b50508160011b916000199060031b1c19161790555b51805160048501916001600160401b0382116123975781906117f38454613635565b601f8111612367575b50602090601f8311600114612304578b926122f9575b50508160011b916000199060031b1c19161790555b51805160058401916001600160401b0382116120225781906118498454613635565b601f81116122c9575b50602090601f8311600114612266578a9261225b575b50508160011b916000199060031b1c19161790555b5180519060068301906001600160401b03831161224757600160401b831161224757602090825484845580851061222d575b500190875260208720875b8381106122195750505050600860a06007830184519081518154602084015160181b9068ffffff000000000000604086015160301b9162ffffff60481b606088015160481b169365ffffff000000608089015160601b62ffffff60601b169662ffffff60601b199362ffffff62ffffff60481b1992169068ffffffffffffffffff19161716911617169116171717905501519101556040516370a0823160e01b815230600482015260208160248160018060a01b0388165afa8015611f34576121ea575b506040516370a0823160e01b81523060048201526020816024816001600160a01b0388165afa908115611f345785916121b8575b5060208381015160405163095ea7b360e01b81526001600160a01b03918216600482015260001960248201529190829060449082908a908a165af180156121ad57612190575b5060018060a01b036020840151169060018060a01b0360408501511691835197885160020b98602081015160020b93604082015160020b9162ffffff60608201511660a0608083015160020b9201519360405197886101408101106001600160401b036101408b01111761217c578d9e8d9e9a9b9c9d6101408b01604052600160a01b60019003168a5260208a019b8c5260408a0190815260608a0191825260808a0192835260a08a0193845260c08a0194855260e08a019586526101008a019687526101208a0197151588526040519b8c9a63454186df60e01b8c52600160a01b6001900390511660048c0152600160a01b6001900390511660248b01525160020b60448a01525160020b60648901525160020b60848801525162ffffff1660a48701525160020b60c48601525160e485015251610104840152511515610124830152815a9361014492602095f1908115611f3457859161213a575b5060208301516040516001600160a01b0392831692918216918616907f6a92a2e50da326b873bc3a170a25824d1cd1acfb08c59ca10479a4a5f503b8c69080611b9e8882613884565b0390a46001600160a01b0383168452600a6020526040842054331561212657611bc681614287565b6001600160a01b03811680158015939190846120e7575b611be633613546565b805460010190558289527f80bb2b638cc20bc4d0a60d66940f3ab4a00c1d7b313497ca82fb0b4ab00793026020526040892080546001600160a01b031916339081179091558390837fddf252ad1be2c89b69c2b068fc378daa952ba7f163c4a11628f55a4df523b3ef8c80a41561203657600080516020615002833981519152548289527f645e039705490088daad89bae25049a34f4a9072d398537b1ab2425f24cbed036020528060408a2055600160401b8110156120225782611cc1826001611cda94016000805160206150028339815191525561384f565b90919082549060031b91821b91600019901b1916179055565b3303611fb4575b5050611fa057604080830151602080850151925163095ea7b360e01b81526001600160a01b03938416600482015260001960248201529493929091859160449183918a91165af1928315611f3457602493611f73575b5060408281015190516370a0823160e01b81523060048201529360209185919082906001600160a01b03165afa928315611f34578593611f3f575b506020828101516040808501518451606001519151630f584d5d60e41b81526001600160a01b0391821660048201528882166024820152670de0b6b3a76400006044820152606481019790975262ffffff9091166084870152859160a49183918a91165af1928315611f34578593611efc575b506020828101516040808501519351606001519051631afcce9160e11b81526001600160a01b0394851660048201528785166024820152683635c9adc5dea0000060448201526064810189905262ffffff909116608482015292839160a49183918a91165af1948515611ef0578095611eb6575b5060609491611e879150611e756001600160a01b038616614195565b604001516001600160a01b0316614195565b600454611e9c906001600160a01b0316614195565b6040519260018060a01b0316835260208301526040820152f35b9094506020853d602011611ee8575b81611ed2602093836135cc565b810103126102a05750611e876060945194611e59565b3d9150611ec5565b604051903d90823e3d90fd5b9092506020813d602011611f2c575b81611f18602093836135cc565b81010312611f2857519138611de5565b8480fd5b3d9150611f0b565b6040513d87823e3d90fd5b9092506020813d602011611f6b575b81611f5b602093836135cc565b81010312611f2857519138611d72565b3d9150611f4e565b611f949060203d602011611f99575b611f8c81836135cc565b810190613d2f565b611d37565b503d611f82565b6339e3563760e11b84526004849052602484fd5b611fbd33613dfc565b60001981019190821161200e57338852600080516020614fa2833981519152602052604088208289526020528060408920558752600080516020614f82833981519152602052604087205538611ce1565b634e487b7160e01b88526011600452602488fd5b634e487b7160e01b89526041600452602489fd5b338114611cda5761204683613dfc565b828952600080516020614f82833981519152602052604089205490828a52600080516020614fa283398151915260205260408a20918181036120af575b50838a52600080516020614f828339815191526020528960408120558952602052876040812055611cda565b818b528260205260408b2054818c52836020528060408d20558b52600080516020614f8283398151915260205260408b205538612083565b60008381526000805160206150228339815191526020526040902080546001600160a01b031916905561211984613546565b8054600019019055611bdd565b633250574960e11b85526004859052602485fd5b90506020813d602011612174575b81612155602093836135cc565b81010312611f2857516001600160a01b0381168103611f285738611b55565b3d9150612148565b634e487b7160e01b8e52604160045260248efd5b6121a89060203d602011611f9957611f8c81836135cc565b6119f8565b6040513d88823e3d90fd5b90506020813d6020116121e2575b816121d3602093836135cc565b81010312611f285751386119b2565b3d91506121c6565b6020813d602011612211575b81612203602093836135cc565b81010312611f28575161197e565b3d91506121f6565b6001906020845194019381840155016118ba565b838a52828a20612241918101908601613d47565b386118af565b634e487b7160e01b88526041600452602488fd5b015190503880611868565b848b52818b209250601f1984168b5b8181106122b15750908460019594939210612298575b505050811b01905561187d565b015160001960f88460031b161c1916905538808061228b565b92936020600181928786015181550195019301612275565b6122f390858c5260208c20601f850160051c810191602086106111ea57601f0160051c0190613d47565b38611852565b015190503880611812565b848c52818c209250601f1984168c5b81811061234f5750908460019594939210612336575b505050811b019055611827565b015160001960f88460031b161c19169055388080612329565b92936020600181928786015181550195019301612313565b61239190858d5260208d20601f850160051c810191602086106111ea57601f0160051c0190613d47565b386117fc565b634e487b7160e01b8a52604160045260248afd5b0151905038806117bc565b848d52818d209250601f1984168d5b81811061240157509084600195949392106123e8575b505050811b0190556117d1565b015160001960f88460031b161c191690553880806123db565b929360206001819287860151815501950193016123c5565b60208287612442945220601f850160051c810191602086106111ea57601f0160051c0190613d47565b8b386117a5565b634e487b7160e01b8b52604160045260248bfd5b60405162461bcd60e51b8152602060048201526015602482015274496e76616c696420746f6b656e206164647265737360581b6044820152606490fd5b6001600160a01b038916149050386116d4565b6040513d8a823e3d90fd5b6124d09060203d602011611f9957611f8c81836135cc565b611610565b6040513d8b823e3d90fd5b82809291819260018060a01b03835416908390612511575bf1156125065787388061159b565b6040513d89823e3d90fd5b506108fc6124f8565b60405162461bcd60e51b815260206004820152600f60248201526e1059185c1d195c881b9bdd081cd95d608a1b6044820152606490fd5b8780fd5b8580fd5b81358152602091820191016114bf565b8980fd5b8680fd5b50346102a0576102cd612583366135fb565b90604051926125936020856135cc565b858452613e2e565b50346102a05760203660031901126102a0576020906001600160a01b036125c06134c8565b168152600982526002604060018060a01b039220015416604051908152f35b50346102a05760203660031901126102a0576125f96134c8565b61260161415f565b60018060a01b0316808252600b60205261263a60ff60408420541615828452600b602052604084209060ff801983541691151516179055565b808252600b6020527ff93f9a76c1bf3444d22400a00cb9fe990e6abe9dbb333fda48859cfee864543d602060ff6040852054166040519015158152a280f35b50346102a05760403660031901126102a0576126936134c8565b906024356126a083613dfc565b8110156126db579060409160209360018060a01b03168252600080516020614fa2833981519152845282822090825283522054604051908152f35b63295f44f760e21b82526001600160a01b03909216600452602491909152604490fd5b50346102a05760203660031901126102a0576040906001600160a01b036127236134c8565b1681526009602052208054600182015460028301546001600160a01b039182169391169061062c906127c8906127ba61275e6003830161366f565b6127ac61276d6004850161366f565b91612786600761277f6005880161366f565b9601613713565b976040519a8b9a8b5260208b015260408a015261018060608a0152610180890190613487565b908782036080890152613487565b9085820360a0870152613487565b9160c0840190613766565b50346102a05760403660031901126102a057604090816127f16134c8565b916127fa6134e3565b6001600160a01b03938416808352600f602081815285852096909316808552958352848420848052835284842054918452825283832094835293815282822060018352815291902054835192835290820152f35b50346102a05760203660031901126102a05760209062ffffff906007906040906001600160a01b0361287e6134c8565b1681526009855220015460481c16604051908152f35b50346102a0576102cd6128a6366135fb565b916139a1565b50346102a0576101003660031901126102a0576128c76134c8565b6128cf6134e3565b60c0366043190112612a3257604051916128e8836135b1565b6044358060020b8103611f28578352606435908160020b8203611f285760208401918252608435908160020b8203612555576040850191825260a43562ffffff8116810361256d576060860190815260c435918260020b8303612551576080870192835260e43560a088019081526008549095906001600160a01b03163303612a055760019668ffffff00000000000092888060a01b03168a52600c60205260408a2090888060a01b03168a526020526040892097519465ffffff00000062ffffff60481b8a54935160181b925160301b955160481b16955160601b62ffffff60601b169662ffffff60601b199362ffffff62ffffff60481b1992169068ffffffffffffffffff1916171691161716911617171783555191015580f35b60405162461bcd60e51b815260206004820152600560248201526410b1b937b760d91b6044820152606490fd5b8280fd5b50346102a057806003193601126102a057602060008051602061500283398151915254604051908152f35b50346102a05760203660031901126102a0576001600160a01b03612a836134c8565b16808252600960205260018060a01b03600260408420015416818352600960205282604060018060a01b0360018284200154166024825180948193630ad0753560e11b83528860048401525af19182156131575784918593613134575b5060075415612e4f57600754612b3b612b346064612b0a81612b02868961396b565b04948861396b565b0492612b188482878b61401c565b878952600a602052612b2d60408a2054613feb565b5085613994565b9185613994565b9060148102811590828104601414821715612e3b5760405163a9059cbb60e01b815273f0fffd0292de675e865a9b506bd2c434e0813d746004820152606490910460248201526020816044818c8c5af180156124d557612e1e575b50602882029182046028141715612e0a576064900460405163a9059cbb60e01b8152735135f3a6ac33c8616b5ee59b89afc1021d1a808660048201528160248201526020816044818b8b5af180156124ad57612ded575b506040519063a9059cbb60e01b8252734c11f940e2d09ef9d5000668c1c9410f0aaf0833600483015260248201526020816044818a8a5af1801561250657612dd0575b506014810281159082810460141482171561200e5760405163a9059cbb60e01b815273f0fffd0292de675e865a9b506bd2c434e0813d746004820152606490910460248201526020816044818b885af180156124ad57612db3575b50602882029182046028141715612d9f5760405163a9059cbb60e01b8152735135f3a6ac33c8616b5ee59b89afc1021d1a80866004820152606490910460248201819052869493929060208360448189865af19081156121ad57602093604492612d84575b50604051968793849263a9059cbb60e01b8452734c11f940e2d09ef9d5000668c1c9410f0aaf0833600485015260248401525af1918215611f34577f534114bde8a4f5487c6eb9d267c214944566cf13de30333c7a2abed6857634cf93604093612d65575b505b82519182526020820152a280f35b612d7d9060203d602011611f9957611f8c81836135cc565b5038612d55565b612d9a90853d8711611f9957611f8c81836135cc565b612cf0565b634e487b7160e01b86526011600452602486fd5b612dcb9060203d602011611f9957611f8c81836135cc565b612c8b565b612de89060203d602011611f9957611f8c81836135cc565b612c30565b612e059060203d602011611f9957611f8c81836135cc565b612bed565b634e487b7160e01b87526011600452602487fd5b612e369060203d602011611f9957611f8c81836135cc565b612b96565b634e487b7160e01b89526011600452602489fd5b838552600a602052612e646040862054613feb565b5060148202821590838104601414821715612e0a5760405163a9059cbb60e01b815273f0fffd0292de675e865a9b506bd2c434e0813d746004820152606490910460248201526020816044818a8a5af1801561250657613117575b5060288302908382046028141715612d9f576064900460405163a9059cbb60e01b8152735135f3a6ac33c8616b5ee59b89afc1021d1a808660048201528160248201526020816044818a8a5af18015612506576130fa575b506040519063a9059cbb60e01b8252734c11f940e2d09ef9d5000668c1c9410f0aaf08336004830152602482015260208160448189895af180156121ad576130dd575b5060148302831590848104601414821715612e0a5760405163a9059cbb60e01b815273f0fffd0292de675e865a9b506bd2c434e0813d746004820152606490910460248201526020816044818a875af18015612506576130c0575b5060288402908482046028141715612d9f5760405163a9059cbb60e01b8152735135f3a6ac33c8616b5ee59b89afc1021d1a80866004820152606490910460248201819052869493929060208360448189865af19081156121ad576020936044926130a5575b50604051968793849263a9059cbb60e01b8452734c11f940e2d09ef9d5000668c1c9410f0aaf0833600485015260248401525af1918215611f34577f534114bde8a4f5487c6eb9d267c214944566cf13de30333c7a2abed6857634cf93604093613086575b50612d57565b61309e9060203d602011611f9957611f8c81836135cc565b5038613080565b6130bb90853d8711611f9957611f8c81836135cc565b61301b565b6130d89060203d602011611f9957611f8c81836135cc565b612fb5565b6130f59060203d602011611f9957611f8c81836135cc565b612f5a565b6131129060203d602011611f9957611f8c81836135cc565b612f17565b61312f9060203d602011611f9957611f8c81836135cc565b612ebf565b909250613150915060403d6040116103725761036481836135cc565b9138612ae0565b6040513d86823e3d90fd5b50346102a05760403660031901126102a057604060c0916131816134c8565b6131896134e3565b9060018060a01b03168252600c6020528282209060018060a01b031682526020522060018154910154604051918060020b83528060181c60020b60208401528060301c60020b604084015262ffffff8160481c16606084015260601c60020b608083015260a0820152f35b50346102a05760403660031901126102a05761320e6134c8565b60243561321a81613feb565b331515806132c9575b806132ab575b6132985781906001600160a01b0384811691167f8c5be1e5ebec7d5bd14f71427d1e84f3dd0314c0f7b2291e5b200ac8c7c3b9258680a482526000805160206150228339815191526020526040822080546001600160a01b0319166001600160a01b0390921691909117905580f35b63a9fbf51f60e01b845233600452602484fd5b506132b58161350d565b338552602052604084205460ff1615613229565b506001600160a01b038116331415613223565b50346102a05760203660031901126102a0576020610c456004356132ff81613feb565b50600090815260008051602061502283398151915260205260409020546001600160a01b031690565b50346102a057806003193601126102a0576040519080600080516020614fc2833981519152549061335882613635565b808552916001811690811561098f575060011461337f5761062c84610911818603826135cc565b600080516020614fc28339815191528152600080516020615082833981519152939250905b8082106133bd5750909150810160200161091182610901565b9192600181602092548385880101520191019092916133a4565b50346102a057806003193601126102a0576001546040516001600160a01b039091168152602090f35b9050346106945760203660031901126106945760043563ffffffff60e01b8116809103612a32576020925063780e9d6360e01b8114908115613444575b5015158152f35b6380ac58cd60e01b811491508115613476575b8115613465575b503861343d565b6301ffc9a760e01b1490503861345e565b635b5e139f60e01b81149150613457565b919082519283825260005b8481106134b3575050826000602080949584010152601f8019910116010190565b80602080928401015182828601015201613492565b600435906001600160a01b03821682036134de57565b600080fd5b602435906001600160a01b03821682036134de57565b35906001600160a01b03821682036134de57565b6001600160a01b031660009081527f80bb2b638cc20bc4d0a60d66940f3ab4a00c1d7b313497ca82fb0b4ab00793056020526040902090565b6001600160a01b031660009081527f80bb2b638cc20bc4d0a60d66940f3ab4a00c1d7b313497ca82fb0b4ab00793036020526040902090565b61010081019081106001600160401b0382111761359b57604052565b634e487b7160e01b600052604160045260246000fd5b60c081019081106001600160401b0382111761359b57604052565b90601f801991011681019081106001600160401b0382111761359b57604052565b35908160020b82036134de57565b60609060031901126134de576004356001600160a01b03811681036134de57906024356001600160a01b03811681036134de579060443590565b90600182811c92168015613665575b602083101461364f57565b634e487b7160e01b600052602260045260246000fd5b91607f1691613644565b906040519182600082549261368384613635565b80845293600181169081156136f157506001146136aa575b506136a8925003836135cc565b565b90506000929192526020600020906000915b8183106136d55750509060206136a8928201013861369b565b60209193508060019154838589010152019101909184926136bc565b9050602092506136a894915060ff191682840152151560051b8201013861369b565b90604051613720816135b1565b60a06001829480548060020b85528060181c60020b60208601528060301c60020b604086015262ffffff8160481c16606086015260601c60020b60808501520154910152565b60a08091805160020b8452602081015160020b6020850152604081015160020b604085015262ffffff6060820151166060850152608081015160020b60808501520151910152565b6001600160401b03811161359b57601f01601f191660200190565b9291926137d5826137ae565b916137e360405193846135cc565b8294818452818301116134de578281602093846000960137010152565b9080601f830112156134de5781602061381b933591016137c9565b90565b60025481101561383957600260005260206000200190600090565b634e487b7160e01b600052603260045260246000fd5b600080516020615002833981519152548110156138395760008051602061500283398151915260005260206000200190600090565b602081528151602082015260018060a01b03602083015116604082015260018060a01b0360408301511660608201526139006138ea6138d460608501516101a060808601526101c0850190613487565b6080850151848203601f190160a0860152613487565b60a0840151838203601f190160c0850152613487565b9160c081015192601f198382030160e08401526020808551928381520194019060005b81811061393f5750505060e0015161381b916101000190613766565b8251865260209586019590920191600101613923565b91908260409103126134de576020825192015190565b8181029291811591840414171561397e57565b634e487b7160e01b600052601160045260246000fd5b9190820391821161397e57565b9091906001600160a01b0383168015613d19576000906139c084614287565b9133151580613c6d575b506001600160a01b0383169586158015613c2e575b6139e882613546565b805460010190558683527f80bb2b638cc20bc4d0a60d66940f3ab4a00c1d7b313497ca82fb0b4ab00793026020526040832080546001600160a01b031916851790558684897fddf252ad1be2c89b69c2b068fc378daa952ba7f163c4a11628f55a4df523b3ef8680a415613b7d57600080516020615002833981519152548683527f645e039705490088daad89bae25049a34f4a9072d398537b1ab2425f24cbed03602052806040842055600160401b811015613b695786611cc1826001613ac094016000805160206150028339815191525561384f565b828703613afa575b5050505060018060a01b0316808303613ae057505050565b6364283d7b60e01b60005260045260245260445260646000fd5b613b0390613dfc565b600019810192908311613b5557906040918152600080516020614fa28339815191526020528181208382526020528582822055858152600080516020614f828339815191526020522055388080613ac8565b634e487b7160e01b82526011600452602482fd5b634e487b7160e01b83526041600452602483fd5b868314613ac057613b8d84613dfc565b868352600080516020614f82833981519152602052604083205490888452600080516020614fa28339815191526020526040842091818103613bf6575b50878452600080516020614f828339815191526020528360408120558352602052816040812055613ac0565b818552826020526040852054818652836020528060408720558552600080516020614f82833981519152602052604085205538613bca565b60008781526000805160206150228339815191526020526040902080546001600160a01b0319169055613c6085613546565b80546000190190556139df565b80613cb6575b15613c7e57386139ca565b9250506001600160a01b0316613ca057602491637e27328960e01b8252600452fd5b60449163177e802f60e01b825233600452602452fd5b506001600160a01b03831633148015613cfc575b80613c735750600085815260008051602061502283398151915260205260409020546001600160a01b03163314613c73565b50613d068361350d565b338252602052604081205460ff16613cca565b633250574960e11b600052600060045260246000fd5b908160209103126134de575180151581036134de5790565b818110613d52575050565b60008155600101613d47565b60405190613d6b826135b1565b600060a0838281528260208201528260408201528260608201528260808201520152565b613d97613d5e565b506001600160a01b0382166000908152600d602052604090205460ff16156134de5760018060a01b0316600052600c60205260406000209060018060a01b0316600052602052613dea6040600020613713565b62ffffff606082015116156134de5790565b6001600160a01b03811615613e1857613e1490613546565b5490565b6322718ad960e21b600052600060045260246000fd5b9291613e3b8183866139a1565b813b613e48575b50505050565b604051630a85bd0160e11b81523360048201526001600160a01b0394851660248201526044810191909152608060648201529216919060209082908190613e93906084830190613487565b03816000865af18091600091613f32575b5090613efd57503d15613ef6573d613ebb816137ae565b90613ec960405192836135cc565b81523d6000602083013e5b80519081613ef15782633250574960e11b60005260045260246000fd5b602001fd5b6060613ed4565b6001600160e01b03191663757a42ff60e11b01613f1e575038808080613e42565b633250574960e11b60005260045260246000fd5b6020813d602011613f6d575b81613f4b602093836135cc565b810103126106945751906001600160e01b0319821682036102a0575038613ea4565b3d9150613f3e565b6001600160a01b03168015613fd557600080516020614fe283398151915280546001600160a01b0319811683179091556001600160a01b03167f8be0079c531659141344cd1fd0a4f28419497f9722a3daafe3b4186f6b6457e0600080a3565b631e4fbdf760e01b600052600060045260246000fd5b613ff481614287565b906001600160a01b03821615614008575090565b637e27328960e01b60005260045260246000fd5b600354600094926001600160a01b039091169182156141575760405163095ea7b360e01b81526001600160a01b0393841660048201526024810186905292169160208160448189875af180156121ad5761413a575b5060035460405163095ea7b360e01b81526001600160a01b039182166004820152602481018590529116929060208160448189885af180156121ad5761411d575b506003546001600160a01b031690813b156125555791856084928195946040519788968795630b69b74d60e31b875260048701526024860152604485015260648401525af1801561411257614105575050565b8161410f916135cc565b50565b6040513d84823e3d90fd5b6141359060203d602011611f9957611f8c81836135cc565b6140b2565b6141529060203d602011611f9957611f8c81836135cc565b614071565b505050505050565b600080516020614fe2833981519152546001600160a01b0316330361418057565b63118cdaa760e01b6000523360045260246000fd5b6040516370a0823160e01b81523060048201526001600160a01b0382169190602081602481865afa90811561424457600091614255575b5080156142505760405163a9059cbb60e01b6020828101918252336024840152604483019390935291926000929091839061420a8160648101611656565b51925af115614244576000513d61423b5750803b155b6142275750565b635274afe760e01b60005260045260246000fd5b60011415614220565b6040513d6000823e3d90fd5b505050565b906020823d60201161427f575b8161426f602093836135cc565b810103126102a0575051386141cc565b3d9150614262565b60009081527f80bb2b638cc20bc4d0a60d66940f3ab4a00c1d7b313497ca82fb0b4ab007930260205260409020546001600160a01b031690565b60ff6000805160206150428339815191525460401c16156142de57565b631afcd79f60e31b60005260046000fdfe60806040523461042e57610c928038038061001981610433565b92833981019060408183031261042e5780516001600160401b03811161042e5782610045918301610458565b60208201519092906001600160401b03811161042e576100659201610458565b81516001600160401b03811161033957600354600181811c91168015610424575b602082101461031957601f81116103bf575b50602092601f821160011461035a579281929360009261034f575b50508160011b916000199060031b1c1916176003555b80516001600160401b03811161033957600454600181811c9116801561032f575b602082101461031957601f81116102b4575b50602091601f821160011461025057918192600092610245575b50508160011b916000199060031b1c1916176004555b331561022f5760058054336001600160a01b0319821681179092556001600160a01b0316600080516020610c72833981519152600080a360006002546b033b2e3c9fd0803ce8000000810180911161021b576002555033600052600060205260406000206b033b2e3c9fd0803ce800000081540190556040516b033b2e3c9fd0803ce8000000815260007fddf252ad1be2c89b69c2b068fc378daa952ba7f163c4a11628f55a4df523b3ef60203393a3600580546001600160a01b031981169091556000906001600160a01b0316600080516020610c728339815191528280a36040516107ae90816104c48239f35b634e487b7160e01b82526011600452602482fd5b631e4fbdf760e01b600052600060045260246000fd5b015190503880610116565b601f198216926004600052806000209160005b85811061029c57508360019510610283575b505050811b0160045561012c565b015160001960f88460031b161c19169055388080610275565b91926020600181928685015181550194019201610263565b60046000527f8a35acfbc15ff81a39ae7d344fd709f28e8600b4aa8c65c6b64bfe7fe36bd19b601f830160051c8101916020841061030f575b601f0160051c01905b81811061030357506100fc565b600081556001016102f6565b90915081906102ed565b634e487b7160e01b600052602260045260246000fd5b90607f16906100ea565b634e487b7160e01b600052604160045260246000fd5b0151905038806100b3565b601f198216936003600052806000209160005b8681106103a7575083600195961061038e575b505050811b016003556100c9565b015160001960f88460031b161c19169055388080610380565b9192602060018192868501518155019401920161036d565b60036000527fc2575a0e9e593c00f959f8c92f12db2869c3395a3b0502d05e2516446f71f85b601f830160051c8101916020841061041a575b601f0160051c01905b81811061040e5750610098565b60008155600101610401565b90915081906103f8565b90607f1690610086565b600080fd5b6040519190601f01601f191682016001600160401b0381118382101761033957604052565b81601f8201121561042e578051906001600160401b03821161033957610487601f8301601f1916602001610433565b928284526020838301011161042e5760005b8281106104ae57505060206000918301015290565b8060208092840101518282870101520161049956fe608080604052600436101561001357600080fd5b60003560e01c90816306fdde031461054257508063095ea7b3146104bc57806318160ddd1461049e57806323b872dd146103b1578063313ce5671461039557806370a082311461035b578063715018a6146102fe5780638da5cb5b146102d557806395d89b41146101b4578063a9059cbb14610183578063dd62ed3e146101325763f2fde38b146100a357600080fd5b3461012d57602036600319011261012d576100bc61065e565b6100c461074f565b6001600160a01b0316801561011757600580546001600160a01b0319811683179091556001600160a01b03167f8be0079c531659141344cd1fd0a4f28419497f9722a3daafe3b4186f6b6457e0600080a3005b631e4fbdf760e01b600052600060045260246000fd5b600080fd5b3461012d57604036600319011261012d5761014b61065e565b610153610674565b6001600160a01b039182166000908152600160209081526040808320949093168252928352819020549051908152f35b3461012d57604036600319011261012d576101a961019f61065e565b602435903361068a565b602060405160018152f35b3461012d57600036600319011261012d5760405160006004548060011c906001811680156102cb575b6020831081146102b75782855290811561029b5750600114610244575b50819003601f01601f191681019067ffffffffffffffff82118183101761022e5761022a82918260405282610615565b0390f35b634e487b7160e01b600052604160045260246000fd5b905060046000527f8a35acfbc15ff81a39ae7d344fd709f28e8600b4aa8c65c6b64bfe7fe36bd19b6000905b828210610285575060209150820101826101fa565b6001816020925483858801015201910190610270565b90506020925060ff191682840152151560051b820101826101fa565b634e487b7160e01b84526022600452602484fd5b91607f16916101dd565b3461012d57600036600319011261012d576005546040516001600160a01b039091168152602090f35b3461012d57600036600319011261012d5761031761074f565b600580546001600160a01b031981169091556000906001600160a01b03167f8be0079c531659141344cd1fd0a4f28419497f9722a3daafe3b4186f6b6457e08280a3005b3461012d57602036600319011261012d576001600160a01b0361037c61065e565b1660005260006020526020604060002054604051908152f35b3461012d57600036600319011261012d57602060405160128152f35b3461012d57606036600319011261012d576103ca61065e565b6103d2610674565b6001600160a01b0382166000818152600160209081526040808320338452909152902054909260443592916000198110610412575b506101a9935061068a565b83811061048157841561046b573315610455576101a9946000526001602052604060002060018060a01b0333166000526020528360406000209103905584610407565b634a1406b160e11b600052600060045260246000fd5b63e602df0560e01b600052600060045260246000fd5b8390637dc7a0d960e11b6000523360045260245260445260646000fd5b3461012d57600036600319011261012d576020600254604051908152f35b3461012d57604036600319011261012d576104d561065e565b60243590331561046b576001600160a01b031690811561045557336000526001602052604060002082600052602052806040600020556040519081527f8c5be1e5ebec7d5bd14f71427d1e84f3dd0314c0f7b2291e5b200ac8c7c3b92560203392a3602060405160018152f35b3461012d57600036600319011261012d5760006003548060011c9060018116801561060b575b6020831081146102b75782855290811561029b57506001146105b45750819003601f01601f191681019067ffffffffffffffff82118183101761022e5761022a82918260405282610615565b905060036000527fc2575a0e9e593c00f959f8c92f12db2869c3395a3b0502d05e2516446f71f85b6000905b8282106105f5575060209150820101826101fa565b60018160209254838588010152019101906105e0565b91607f1691610568565b91909160208152825180602083015260005b818110610648575060409293506000838284010152601f8019910116010190565b8060208092870101516040828601015201610627565b600435906001600160a01b038216820361012d57565b602435906001600160a01b038216820361012d57565b6001600160a01b0316908115610739576001600160a01b03169182156107235760008281528060205260408120548281106107095791604082827fddf252ad1be2c89b69c2b068fc378daa952ba7f163c4a11628f55a4df523b3ef958760209652828652038282205586815280845220818154019055604051908152a3565b916064928463391434e360e21b8452600452602452604452fd5b63ec442f0560e01b600052600060045260246000fd5b634b637e8f60e11b600052600060045260246000fd5b6005546001600160a01b0316330361076357565b63118cdaa760e01b6000523360045260246000fdfea2646970667358221220f61d74bc02acca71f821a90a548d46fc97d15cd7d493aedf7aaea9dba0f5e58e64736f6c634300081c00338be0079c531659141344cd1fd0a4f28419497f9722a3daafe3b4186f6b6457e0645e039705490088daad89bae25049a34f4a9072d398537b1ab2425f24cbed01645e039705490088daad89bae25049a34f4a9072d398537b1ab2425f24cbed0080bb2b638cc20bc4d0a60d66940f3ab4a00c1d7b313497ca82fb0b4ab00793009016d09d72d40fdae2fd8ceac6b6234c7706214fd39c1cd1e609a0528c199300645e039705490088daad89bae25049a34f4a9072d398537b1ab2425f24cbed0280bb2b638cc20bc4d0a60d66940f3ab4a00c1d7b313497ca82fb0b4ab0079304f0c57e16840df040f15088dc2f81fe391c3923bec73e23a9662efc9c229c6a0080bb2b638cc20bc4d0a60d66940f3ab4a00c1d7b313497ca82fb0b4ab007930137c58c799b6609234b945e882912ee9ad34948a1dfaa20a97485e1a7752bbf81a2646970667358221220f4b24cc15158a8128d69d79a1ac0aa0ba07db2d58b146faef48c21065690306764736f6c634300081c0033",
  "devdoc": {
    "errors": {
      "ERC721EnumerableForbiddenBatchMint()": [
        {
          "details": "Batch mint is not allowed."
        }
      ],
      "ERC721IncorrectOwner(address,uint256,address)": [
        {
          "details": "Indicates an error related to the ownership over a particular token. Used in transfers.",
          "params": {
            "owner": "Address of the current owner of a token.",
            "sender": "Address whose tokens are being transferred.",
            "tokenId": "Identifier number of a token."
          }
        }
      ],
      "ERC721InsufficientApproval(address,uint256)": [
        {
          "details": "Indicates a failure with the `operator`s approval. Used in transfers.",
          "params": {
            "operator": "Address that may be allowed to operate on tokens without being their owner.",
            "tokenId": "Identifier number of a token."
          }
        }
      ],
      "ERC721InvalidApprover(address)": [
        {
          "details": "Indicates a failure with the `approver` of a token to be approved. Used in approvals.",
          "params": {
            "approver": "Address initiating an approval operation."
          }
        }
      ],
      "ERC721InvalidOperator(address)": [
        {
          "details": "Indicates a failure with the `operator` to be approved. Used in approvals.",
          "params": {
            "operator": "Address that may be allowed to operate on tokens without being their owner."
          }
        }
      ],
      "ERC721InvalidOwner(address)": [
        {
          "details": "Indicates that an address can't be an owner. For example, `address(0)` is a forbidden owner in ERC-20. Used in balance queries.",
          "params": {
            "owner": "Address of the current owner of a token."
          }
        }
      ],
      "ERC721InvalidReceiver(address)": [
        {
          "details": "Indicates a failure with the token `receiver`. Used in transfers.",
          "params": {
            "receiver": "Address to which tokens are being transferred."
          }
        }
      ],
      "ERC721InvalidSender(address)": [
        {
          "details": "Indicates a failure with the token `sender`. Used in transfers.",
          "params": {
            "sender": "Address whose tokens are being transferred."
          }
        }
      ],
      "ERC721NonexistentToken(uint256)": [
        {
          "details": "Indicates a `tokenId` whose `owner` is the zero address.",
          "params": {
            "tokenId": "Identifier number of a token."
          }
        }
      ],
      "ERC721OutOfBoundsIndex(address,uint256)": [
        {
          "details": "An `owner`'s token query was out of bounds for `index`. NOTE: The owner being `address(0)` indicates a global out of bounds index."
        }
      ],
      "InvalidInitialization()": [
        {
          "details": "The contract is already initialized."
        }
      ],
      "NotInitializing()": [
        {
          "details": "The contract is not initializing."
        }
      ],
      "OwnableInvalidOwner(address)": [
        {
          "details": "The owner is not a valid owner account. (eg. `address(0)`)"
        }
      ],
      "OwnableUnauthorizedAccount(address)": [
        {
          "details": "The caller account is not authorized to perform an operation."
        }
      ],
      "SafeERC20FailedOperation(address)": [
        {
          "details": "An operation with an ERC-20 token failed."
        }
      ]
    },
    "events": {
      "AdapterSet(address,bool)": {
        "params": {
          "_adapter": "The adapter address",
          "_enabled": "Whether the adapter is enabled"
        }
      },
      "AirdropRewarderSet(address)": {
        "params": {
          "_airdropRewarder": "The address of the airdrop rewarder"
        }
      },
      "Approval(address,address,uint256)": {
        "details": "Emitted when `owner` enables `approved` to manage the `tokenId` token."
      },
      "ApprovalForAll(address,address,bool)": {
        "details": "Emitted when `owner` enables or disables (`approved`) `operator` to manage all of its assets."
      },
      "CreatorAllocation(address,address,uint256)": {
        "params": {
          "amount": "The amount of tokens allocated to the creator",
          "creator": "The address of the creator",
          "token": "The token that was launched"
        }
      },
      "CronUpdated(address)": {
        "params": {
          "newCron": "The new cron address"
        }
      },
      "DefaultCreatorAllocationSet(uint256)": {
        "params": {
          "_creatorAllocation": "The new default creator allocation percentage"
        }
      },
      "FeeClaimed(address,uint256,uint256)": {
        "params": {
          "_fee0": "The amount of fee claimed for token0",
          "_fee1": "The amount of fee claimed for token1",
          "_token": "The token that the fee was claimed for"
        }
      },
      "FeeUpdated(address,uint256)": {
        "params": {
          "fee": "The new fee amount",
          "feeDestination": "The address where fees will be sent"
        }
      },
      "Initialized(uint64)": {
        "details": "Triggered when the contract has been initialized or reinitialized."
      },
      "MetadataUrlUpdated(string)": {
        "params": {
          "metadataUrl": "The new metadata URL"
        }
      },
      "ReferralUpdated(address,uint256)": {
        "params": {
          "referralDestination": "The address where referrals will be sent",
          "referralFee": "The new referral fee amount"
        }
      },
      "TokenLaunched(address,address,address,(bytes32,address,address,string,string,string,uint256[],(int24,int24,int24,uint24,int24,uint256)))": {
        "params": {
          "adapter": "The address of the adapter used to launch the token",
          "params": "The parameters used to launch the token",
          "pool": "The address of the pool for the token",
          "token": "The token that was launched"
        }
      },
      "Transfer(address,address,uint256)": {
        "details": "Emitted when `tokenId` token is transferred from `from` to `to`."
      },
      "WhitelistUpdated(address,bool)": {
        "params": {
          "_address": "The address that was updated",
          "_whitelisted": "Whether the address is whitelisted"
        }
      }
    },
    "kind": "dev",
    "methods": {
      "approve(address,uint256)": {
        "details": "See {IERC721-approve}."
      },
      "balanceOf(address)": {
        "details": "See {IERC721-balanceOf}."
      },
      "claimFees(address)": {
        "params": {
          "_token": "The token to claim fees for"
        }
      },
      "claimedFees(address)": {
        "params": {
          "_token": "The token to get the claimed fees for"
        },
        "returns": {
          "fee0": "The claimed fees for the token",
          "fee1": "The claimed fees for the token"
        }
      },
      "claimedFeesByCreator(address,address)": {
        "params": {
          "_creator": "The creator to get the claimed fees for",
          "_token": "The token to get the claimed fees for"
        },
        "returns": {
          "fee0": "The claimed fees for the token",
          "fee1": "The claimed fees for the token"
        }
      },
      "createAndBuy((bytes32,address,address,string,string,string,uint256[],(int24,int24,int24,uint24,int24,uint256)),address,uint256,bool)": {
        "params": {
          "amount": "The amount of tokens to buy",
          "burnPosition": "Whether to burn the position",
          "expected": "The expected address where token will be deployed",
          "p": "The parameters for the token launch"
        },
        "returns": {
          "_0": "The address of the newly created token",
          "_1": "The amount of tokens received if the user chooses to buy at launch",
          "_2": "The amount of tokens swapped if the user chooses to swap at launch"
        }
      },
      "getApproved(uint256)": {
        "details": "See {IERC721-getApproved}."
      },
      "getDefaultValueParams(address,address)": {
        "params": {
          "_token": "The token to get the value parameters for"
        },
        "returns": {
          "params": "The value parameters for the token"
        }
      },
      "getQuoteToken(address)": {
        "params": {
          "_token": "The token to get the quote token for"
        },
        "returns": {
          "quoteToken": "The quote token for the token"
        }
      },
      "getTokenAdapter(address)": {
        "params": {
          "_token": "The token to get the adapter for"
        },
        "returns": {
          "_0": "adapter The adapter for the token"
        }
      },
      "getTokenFee(address)": {
        "params": {
          "_token": "The token to get the fee for"
        },
        "returns": {
          "fee": "The fee for the token"
        }
      },
      "getTokenLaunchParams(address)": {
        "params": {
          "_token": "The token to get the launch parameters for"
        },
        "returns": {
          "params": "The launch parameters for the token"
        }
      },
      "getTotalTokens()": {
        "returns": {
          "_0": "The total count of launched tokens"
        }
      },
      "initialize(address,address)": {
        "params": {
          "_owner": "The owner address",
          "_weth": "The WETH9 contract address"
        }
      },
      "isApprovedForAll(address,address)": {
        "details": "See {IERC721-isApprovedForAll}."
      },
      "name()": {
        "details": "See {IERC721Metadata-name}."
      },
      "owner()": {
        "details": "Returns the address of the current owner."
      },
      "ownerOf(uint256)": {
        "details": "See {IERC721-ownerOf}."
      },
      "renounceOwnership()": {
        "details": "Leaves the contract without owner. It will not be possible to call `onlyOwner` functions. Can only be called by the current owner. NOTE: Renouncing ownership will leave the contract without an owner, thereby disabling any functionality that is only available to the owner."
      },
      "safeTransferFrom(address,address,uint256)": {
        "details": "See {IERC721-safeTransferFrom}."
      },
      "safeTransferFrom(address,address,uint256,bytes)": {
        "details": "See {IERC721-safeTransferFrom}."
      },
      "setApprovalForAll(address,bool)": {
        "details": "See {IERC721-setApprovalForAll}."
      },
      "setCron(address)": {
        "params": {
          "_cron": "The new cron address"
        }
      },
      "setDefaultCreatorAllocation(uint16)": {
        "params": {
          "_creatorAllocation": "The new default creator allocation percentage"
        }
      },
      "setDefaultValueParams(address,address,(int24,int24,int24,uint24,int24,uint256))": {
        "params": {
          "_adapter": "The adapter to set the value parameters for",
          "_params": "The value parameters to set",
          "_token": "The token to set the value parameters for"
        }
      },
      "setFeeSettings(address,uint256,uint256)": {
        "params": {
          "_fee": "The new fee amount",
          "_feeDestination": "The address to receive fees",
          "_feeDiscountAmount": "The amount of fee discount"
        }
      },
      "setReferralSettings(address,uint256)": {
        "params": {
          "_referralDestination": "The address to receive referrals",
          "_referralFee": "The new referral fee amount"
        }
      },
      "supportsInterface(bytes4)": {
        "details": "See {IERC165-supportsInterface}."
      },
      "symbol()": {
        "details": "See {IERC721Metadata-symbol}."
      },
      "toggleAdapter(address)": {
        "params": {
          "_adapter": "The adapter address"
        }
      },
      "toggleWhitelist(address)": {
        "params": {
          "_address": "The address to toggle the whitelist for"
        }
      },
      "tokenByIndex(uint256)": {
        "details": "See {IERC721Enumerable-tokenByIndex}."
      },
      "tokenOfOwnerByIndex(address,uint256)": {
        "details": "See {IERC721Enumerable-tokenOfOwnerByIndex}."
      },
      "tokenURI(uint256)": {
        "details": "See {IERC721Metadata-tokenURI}."
      },
      "totalSupply()": {
        "details": "See {IERC721Enumerable-totalSupply}."
      },
      "transferFrom(address,address,uint256)": {
        "details": "See {IERC721-transferFrom}."
      },
      "transferOwnership(address)": {
        "details": "Transfers ownership of the contract to a new account (`newOwner`). Can only be called by the current owner."
      }
    },
    "version": 1
  },
  "userdoc": {
    "events": {
      "AdapterSet(address,bool)": {
        "notice": "Emitted when an adapter is set"
      },
      "AirdropRewarderSet(address)": {
        "notice": "Emitted when the airdrop rewarder is set"
      },
      "CreatorAllocation(address,address,uint256)": {
        "notice": "Emitted when tokens are allocated to the creator"
      },
      "CronUpdated(address)": {
        "notice": "Emitted when the cron is updated"
      },
      "DefaultCreatorAllocationSet(uint256)": {
        "notice": "Emitted when the default creator allocation is updated"
      },
      "FeeClaimed(address,uint256,uint256)": {
        "notice": "Emitted when a fee is claimed for a token"
      },
      "FeeUpdated(address,uint256)": {
        "notice": "Emitted when fee settings are updated"
      },
      "MetadataUrlUpdated(string)": {
        "notice": "Emitted when the metadata URL is updated"
      },
      "ReferralUpdated(address,uint256)": {
        "notice": "Emitted when referral settings are updated"
      },
      "TokenLaunched(address,address,address,(bytes32,address,address,string,string,string,uint256[],(int24,int24,int24,uint24,int24,uint256)))": {
        "notice": "Emitted when a token is launched"
      },
      "WhitelistUpdated(address,bool)": {
        "notice": "Emitted when a whitelist is updated"
      }
    },
    "kind": "user",
    "methods": {
      "claimFees(address)": {
        "notice": "Claims accumulated fees for a specific token"
      },
      "claimedFees(address)": {
        "notice": "Gets the claimed fees for a token"
      },
      "claimedFeesByCreator(address,address)": {
        "notice": "Gets the claimed fees by creator for a token"
      },
      "createAndBuy((bytes32,address,address,string,string,string,uint256[],(int24,int24,int24,uint24,int24,uint256)),address,uint256,bool)": {
        "notice": "Creates a new token launch"
      },
      "getDefaultValueParams(address,address)": {
        "notice": "Gets the value parameters for a token"
      },
      "getQuoteToken(address)": {
        "notice": "Gets the quote token for a token"
      },
      "getTokenAdapter(address)": {
        "notice": "Gets the adapter for a token"
      },
      "getTokenFee(address)": {
        "notice": "Gets the fee for a token"
      },
      "getTokenLaunchParams(address)": {
        "notice": "Gets the launch parameters for a token"
      },
      "getTotalTokens()": {
        "notice": "Gets the total number of tokens launched"
      },
      "initialize(address,address)": {
        "notice": "Initializes the launchpad contract"
      },
      "setCron(address)": {
        "notice": "Sets the cron address"
      },
      "setDefaultCreatorAllocation(uint16)": {
        "notice": "Sets the default creator allocation"
      },
      "setDefaultValueParams(address,address,(int24,int24,int24,uint24,int24,uint256))": {
        "notice": "Sets the value parameters for a token"
      },
      "setFeeSettings(address,uint256,uint256)": {
        "notice": "Updates the fee settings"
      },
      "setReferralSettings(address,uint256)": {
        "notice": "Updates the referral settings"
      },
      "toggleAdapter(address)": {
        "notice": "Toggle an adapter"
      },
      "toggleWhitelist(address)": {
        "notice": "Toggles the whitelist for an address"
      }
    },
    "version": 1
  },
  "storageLayout": {
    "storage": [
      {
        "astId": 12911,
        "contract": "contracts/launchpad/TokenLaunchpadLinea.sol:TokenLaunchpadLinea",
        "label": "feeDestination",
        "offset": 0,
        "slot": "0",
        "type": "t_address"
      },
      {
        "astId": 12914,
        "contract": "contracts/launchpad/TokenLaunchpadLinea.sol:TokenLaunchpadLinea",
        "label": "adapter",
        "offset": 0,
        "slot": "1",
        "type": "t_contract(ICLMMAdapter)11029"
      },
      {
        "astId": 12918,
        "contract": "contracts/launchpad/TokenLaunchpadLinea.sol:TokenLaunchpadLinea",
        "label": "tokens",
        "offset": 0,
        "slot": "2",
        "type": "t_array(t_contract(IERC20)3066)dyn_storage"
      },
      {
        "astId": 12921,
        "contract": "contracts/launchpad/TokenLaunchpadLinea.sol:TokenLaunchpadLinea",
        "label": "referralDestination",
        "offset": 0,
        "slot": "3",
        "type": "t_contract(IReferralDistributor)11525"
      },
      {
        "astId": 12924,
        "contract": "contracts/launchpad/TokenLaunchpadLinea.sol:TokenLaunchpadLinea",
        "label": "fundingToken",
        "offset": 0,
        "slot": "4",
        "type": "t_contract(IERC20)3066"
      },
      {
        "astId": 12926,
        "contract": "contracts/launchpad/TokenLaunchpadLinea.sol:TokenLaunchpadLinea",
        "label": "creationFee",
        "offset": 0,
        "slot": "5",
        "type": "t_uint256"
      },
      {
        "astId": 12928,
        "contract": "contracts/launchpad/TokenLaunchpadLinea.sol:TokenLaunchpadLinea",
        "label": "feeDiscountAmount",
        "offset": 0,
        "slot": "6",
        "type": "t_uint256"
      },
      {
        "astId": 12930,
        "contract": "contracts/launchpad/TokenLaunchpadLinea.sol:TokenLaunchpadLinea",
        "label": "referralFee",
        "offset": 0,
        "slot": "7",
        "type": "t_uint256"
      },
      {
        "astId": 12932,
        "contract": "contracts/launchpad/TokenLaunchpadLinea.sol:TokenLaunchpadLinea",
        "label": "cron",
        "offset": 0,
        "slot": "8",
        "type": "t_address"
      },
      {
        "astId": 12938,
        "contract": "contracts/launchpad/TokenLaunchpadLinea.sol:TokenLaunchpadLinea",
        "label": "launchParams",
        "offset": 0,
        "slot": "9",
        "type": "t_mapping(t_contract(IERC20)3066,t_struct(CreateParams)11554_storage)"
      },
      {
        "astId": 12943,
        "contract": "contracts/launchpad/TokenLaunchpadLinea.sol:TokenLaunchpadLinea",
        "label": "tokenToNftId",
        "offset": 0,
        "slot": "10",
        "type": "t_mapping(t_contract(IERC20)3066,t_uint256)"
      },
      {
        "astId": 12947,
        "contract": "contracts/launchpad/TokenLaunchpadLinea.sol:TokenLaunchpadLinea",
        "label": "whitelisted",
        "offset": 0,
        "slot": "11",
        "type": "t_mapping(t_address,t_bool)"
      },
      {
        "astId": 12956,
        "contract": "contracts/launchpad/TokenLaunchpadLinea.sol:TokenLaunchpadLinea",
        "label": "defaultValueParams",
        "offset": 0,
        "slot": "12",
        "type": "t_mapping(t_contract(IERC20)3066,t_mapping(t_contract(ICLMMAdapter)11029,t_struct(ValueParams)11567_storage))"
      },
      {
        "astId": 12964,
        "contract": "contracts/launchpad/TokenLaunchpadLinea.sol:TokenLaunchpadLinea",
        "label": "adapters",
        "offset": 0,
        "slot": "13",
        "type": "t_mapping(t_contract(ICLMMAdapter)11029,t_bool)"
      },
      {
        "astId": 12966,
        "contract": "contracts/launchpad/TokenLaunchpadLinea.sol:TokenLaunchpadLinea",
        "label": "DEFAULT_CREATOR_ALLOCATION",
        "offset": 0,
        "slot": "14",
        "type": "t_uint16"
      },
      {
        "astId": 12975,
        "contract": "contracts/launchpad/TokenLaunchpadLinea.sol:TokenLaunchpadLinea",
        "label": "creatorToClaimedFees",
        "offset": 0,
        "slot": "15",
        "type": "t_mapping(t_address,t_mapping(t_contract(IERC20)3066,t_mapping(t_uint8,t_uint256)))"
      }
    ],
    "types": {
      "t_address": {
        "encoding": "inplace",
        "label": "address",
        "numberOfBytes": "20"
      },
      "t_array(t_contract(IERC20)3066)dyn_storage": {
        "base": "t_contract(IERC20)3066",
        "encoding": "dynamic_array",
        "label": "contract IERC20[]",
        "numberOfBytes": "32"
      },
      "t_array(t_uint256)dyn_storage": {
        "base": "t_uint256",
        "encoding": "dynamic_array",
        "label": "uint256[]",
        "numberOfBytes": "32"
      },
      "t_bool": {
        "encoding": "inplace",
        "label": "bool",
        "numberOfBytes": "1"
      },
      "t_bytes32": {
        "encoding": "inplace",
        "label": "bytes32",
        "numberOfBytes": "32"
      },
      "t_contract(ICLMMAdapter)11029": {
        "encoding": "inplace",
        "label": "contract ICLMMAdapter",
        "numberOfBytes": "20"
      },
      "t_contract(IERC20)3066": {
        "encoding": "inplace",
        "label": "contract IERC20",
        "numberOfBytes": "20"
      },
      "t_contract(IReferralDistributor)11525": {
        "encoding": "inplace",
        "label": "contract IReferralDistributor",
        "numberOfBytes": "20"
      },
      "t_int24": {
        "encoding": "inplace",
        "label": "int24",
        "numberOfBytes": "3"
      },
      "t_mapping(t_address,t_bool)": {
        "encoding": "mapping",
        "key": "t_address",
        "label": "mapping(address => bool)",
        "numberOfBytes": "32",
        "value": "t_bool"
      },
      "t_mapping(t_address,t_mapping(t_contract(IERC20)3066,t_mapping(t_uint8,t_uint256)))": {
        "encoding": "mapping",
        "key": "t_address",
        "label": "mapping(address => mapping(contract IERC20 => mapping(uint8 => uint256)))",
        "numberOfBytes": "32",
        "value": "t_mapping(t_contract(IERC20)3066,t_mapping(t_uint8,t_uint256))"
      },
      "t_mapping(t_contract(ICLMMAdapter)11029,t_bool)": {
        "encoding": "mapping",
        "key": "t_contract(ICLMMAdapter)11029",
        "label": "mapping(contract ICLMMAdapter => bool)",
        "numberOfBytes": "32",
        "value": "t_bool"
      },
      "t_mapping(t_contract(ICLMMAdapter)11029,t_struct(ValueParams)11567_storage)": {
        "encoding": "mapping",
        "key": "t_contract(ICLMMAdapter)11029",
        "label": "mapping(contract ICLMMAdapter => struct ITokenLaunchpad.ValueParams)",
        "numberOfBytes": "32",
        "value": "t_struct(ValueParams)11567_storage"
      },
      "t_mapping(t_contract(IERC20)3066,t_mapping(t_contract(ICLMMAdapter)11029,t_struct(ValueParams)11567_storage))": {
        "encoding": "mapping",
        "key": "t_contract(IERC20)3066",
        "label": "mapping(contract IERC20 => mapping(contract ICLMMAdapter => struct ITokenLaunchpad.ValueParams))",
        "numberOfBytes": "32",
        "value": "t_mapping(t_contract(ICLMMAdapter)11029,t_struct(ValueParams)11567_storage)"
      },
      "t_mapping(t_contract(IERC20)3066,t_mapping(t_uint8,t_uint256))": {
        "encoding": "mapping",
        "key": "t_contract(IERC20)3066",
        "label": "mapping(contract IERC20 => mapping(uint8 => uint256))",
        "numberOfBytes": "32",
        "value": "t_mapping(t_uint8,t_uint256)"
      },
      "t_mapping(t_contract(IERC20)3066,t_struct(CreateParams)11554_storage)": {
        "encoding": "mapping",
        "key": "t_contract(IERC20)3066",
        "label": "mapping(contract IERC20 => struct ITokenLaunchpad.CreateParams)",
        "numberOfBytes": "32",
        "value": "t_struct(CreateParams)11554_storage"
      },
      "t_mapping(t_contract(IERC20)3066,t_uint256)": {
        "encoding": "mapping",
        "key": "t_contract(IERC20)3066",
        "label": "mapping(contract IERC20 => uint256)",
        "numberOfBytes": "32",
        "value": "t_uint256"
      },
      "t_mapping(t_uint8,t_uint256)": {
        "encoding": "mapping",
        "key": "t_uint8",
        "label": "mapping(uint8 => uint256)",
        "numberOfBytes": "32",
        "value": "t_uint256"
      },
      "t_string_storage": {
        "encoding": "bytes",
        "label": "string",
        "numberOfBytes": "32"
      },
      "t_struct(CreateParams)11554_storage": {
        "encoding": "inplace",
        "label": "struct ITokenLaunchpad.CreateParams",
        "members": [
          {
            "astId": 11535,
            "contract": "contracts/launchpad/TokenLaunchpadLinea.sol:TokenLaunchpadLinea",
            "label": "salt",
            "offset": 0,
            "slot": "0",
            "type": "t_bytes32"
          },
          {
            "astId": 11538,
            "contract": "contracts/launchpad/TokenLaunchpadLinea.sol:TokenLaunchpadLinea",
            "label": "adapter",
            "offset": 0,
            "slot": "1",
            "type": "t_contract(ICLMMAdapter)11029"
          },
          {
            "astId": 11541,
            "contract": "contracts/launchpad/TokenLaunchpadLinea.sol:TokenLaunchpadLinea",
            "label": "fundingToken",
            "offset": 0,
            "slot": "2",
            "type": "t_contract(IERC20)3066"
          },
          {
            "astId": 11543,
            "contract": "contracts/launchpad/TokenLaunchpadLinea.sol:TokenLaunchpadLinea",
            "label": "metadata",
            "offset": 0,
            "slot": "3",
            "type": "t_string_storage"
          },
          {
            "astId": 11545,
            "contract": "contracts/launchpad/TokenLaunchpadLinea.sol:TokenLaunchpadLinea",
            "label": "name",
            "offset": 0,
            "slot": "4",
            "type": "t_string_storage"
          },
          {
            "astId": 11547,
            "contract": "contracts/launchpad/TokenLaunchpadLinea.sol:TokenLaunchpadLinea",
            "label": "symbol",
            "offset": 0,
            "slot": "5",
            "type": "t_string_storage"
          },
          {
            "astId": 11550,
            "contract": "contracts/launchpad/TokenLaunchpadLinea.sol:TokenLaunchpadLinea",
            "label": "launchPoolAmounts",
            "offset": 0,
            "slot": "6",
            "type": "t_array(t_uint256)dyn_storage"
          },
          {
            "astId": 11553,
            "contract": "contracts/launchpad/TokenLaunchpadLinea.sol:TokenLaunchpadLinea",
            "label": "valueParams",
            "offset": 0,
            "slot": "7",
            "type": "t_struct(ValueParams)11567_storage"
          }
        ],
        "numberOfBytes": "288"
      },
      "t_struct(ValueParams)11567_storage": {
        "encoding": "inplace",
        "label": "struct ITokenLaunchpad.ValueParams",
        "members": [
          {
            "astId": 11556,
            "contract": "contracts/launchpad/TokenLaunchpadLinea.sol:TokenLaunchpadLinea",
            "label": "launchTick",
            "offset": 0,
            "slot": "0",
            "type": "t_int24"
          },
          {
            "astId": 11558,
            "contract": "contracts/launchpad/TokenLaunchpadLinea.sol:TokenLaunchpadLinea",
            "label": "graduationTick",
            "offset": 3,
            "slot": "0",
            "type": "t_int24"
          },
          {
            "astId": 11560,
            "contract": "contracts/launchpad/TokenLaunchpadLinea.sol:TokenLaunchpadLinea",
            "label": "upperMaxTick",
            "offset": 6,
            "slot": "0",
            "type": "t_int24"
          },
          {
            "astId": 11562,
            "contract": "contracts/launchpad/TokenLaunchpadLinea.sol:TokenLaunchpadLinea",
            "label": "fee",
            "offset": 9,
            "slot": "0",
            "type": "t_uint24"
          },
          {
            "astId": 11564,
            "contract": "contracts/launchpad/TokenLaunchpadLinea.sol:TokenLaunchpadLinea",
            "label": "tickSpacing",
            "offset": 12,
            "slot": "0",
            "type": "t_int24"
          },
          {
            "astId": 11566,
            "contract": "contracts/launchpad/TokenLaunchpadLinea.sol:TokenLaunchpadLinea",
            "label": "graduationLiquidity",
            "offset": 0,
            "slot": "1",
            "type": "t_uint256"
          }
        ],
        "numberOfBytes": "64"
      },
      "t_uint16": {
        "encoding": "inplace",
        "label": "uint16",
        "numberOfBytes": "2"
      },
      "t_uint24": {
        "encoding": "inplace",
        "label": "uint24",
        "numberOfBytes": "3"
      },
      "t_uint256": {
        "encoding": "inplace",
        "label": "uint256",
        "numberOfBytes": "32"
      },
      "t_uint8": {
        "encoding": "inplace",
        "label": "uint8",
        "numberOfBytes": "1"
      }
    }
  }
}