{
  "address": "0x1151B73bbF61A8B93A23A4cE53d223EEfF5EE849",
  "abi": [
    {
      "inputs": [],
      "name": "Create2EmptyBytecode",
      "type": "error"
    },
    {
      "inputs": [],
      "name": "ERC721EnumerableForbiddenBatchMint",
      "type": "error"
    },
    {
      "inputs": [
        {
          "internalType": "address",
          "name": "sender",
          "type": "address"
        },
        {
          "internalType": "uint256",
          "name": "tokenId",
          "type": "uint256"
        },
        {
          "internalType": "address",
          "name": "owner",
          "type": "address"
        }
      ],
      "name": "ERC721IncorrectOwner",
      "type": "error"
    },
    {
      "inputs": [
        {
          "internalType": "address",
          "name": "operator",
          "type": "address"
        },
        {
          "internalType": "uint256",
          "name": "tokenId",
          "type": "uint256"
        }
      ],
      "name": "ERC721InsufficientApproval",
      "type": "error"
    },
    {
      "inputs": [
        {
          "internalType": "address",
          "name": "approver",
          "type": "address"
        }
      ],
      "name": "ERC721InvalidApprover",
      "type": "error"
    },
    {
      "inputs": [
        {
          "internalType": "address",
          "name": "operator",
          "type": "address"
        }
      ],
      "name": "ERC721InvalidOperator",
      "type": "error"
    },
    {
      "inputs": [
        {
          "internalType": "address",
          "name": "owner",
          "type": "address"
        }
      ],
      "name": "ERC721InvalidOwner",
      "type": "error"
    },
    {
      "inputs": [
        {
          "internalType": "address",
          "name": "receiver",
          "type": "address"
        }
      ],
      "name": "ERC721InvalidReceiver",
      "type": "error"
    },
    {
      "inputs": [
        {
          "internalType": "address",
          "name": "sender",
          "type": "address"
        }
      ],
      "name": "ERC721InvalidSender",
      "type": "error"
    },
    {
      "inputs": [
        {
          "internalType": "uint256",
          "name": "tokenId",
          "type": "uint256"
        }
      ],
      "name": "ERC721NonexistentToken",
      "type": "error"
    },
    {
      "inputs": [
        {
          "internalType": "address",
          "name": "owner",
          "type": "address"
        },
        {
          "internalType": "uint256",
          "name": "index",
          "type": "uint256"
        }
      ],
      "name": "ERC721OutOfBoundsIndex",
      "type": "error"
    },
    {
      "inputs": [],
      "name": "FailedDeployment",
      "type": "error"
    },
    {
      "inputs": [
        {
          "internalType": "uint256",
          "name": "balance",
          "type": "uint256"
        },
        {
          "internalType": "uint256",
          "name": "needed",
          "type": "uint256"
        }
      ],
      "name": "InsufficientBalance",
      "type": "error"
    },
    {
      "inputs": [],
      "name": "InvalidInitialization",
      "type": "error"
    },
    {
      "inputs": [],
      "name": "NotInitializing",
      "type": "error"
    },
    {
      "inputs": [
        {
          "internalType": "address",
          "name": "owner",
          "type": "address"
        }
      ],
      "name": "OwnableInvalidOwner",
      "type": "error"
    },
    {
      "inputs": [
        {
          "internalType": "address",
          "name": "account",
          "type": "address"
        }
      ],
      "name": "OwnableUnauthorizedAccount",
      "type": "error"
    },
    {
      "inputs": [
        {
          "internalType": "address",
          "name": "token",
          "type": "address"
        }
      ],
      "name": "SafeERC20FailedOperation",
      "type": "error"
    },
    {
      "anonymous": false,
      "inputs": [
        {
          "indexed": true,
          "internalType": "address",
          "name": "owner",
          "type": "address"
        },
        {
          "indexed": true,
          "internalType": "address",
          "name": "approved",
          "type": "address"
        },
        {
          "indexed": true,
          "internalType": "uint256",
          "name": "tokenId",
          "type": "uint256"
        }
      ],
      "name": "Approval",
      "type": "event"
    },
    {
      "anonymous": false,
      "inputs": [
        {
          "indexed": true,
          "internalType": "address",
          "name": "owner",
          "type": "address"
        },
        {
          "indexed": true,
          "internalType": "address",
          "name": "operator",
          "type": "address"
        },
        {
          "indexed": false,
          "internalType": "bool",
          "name": "approved",
          "type": "bool"
        }
      ],
      "name": "ApprovalForAll",
      "type": "event"
    },
    {
      "anonymous": false,
      "inputs": [
        {
          "indexed": true,
          "internalType": "contract IERC20",
          "name": "token",
          "type": "address"
        },
        {
          "indexed": true,
          "internalType": "address",
          "name": "creator",
          "type": "address"
        },
        {
          "indexed": false,
          "internalType": "uint256",
          "name": "amount",
          "type": "uint256"
        }
      ],
      "name": "CreatorAllocation",
      "type": "event"
    },
    {
      "anonymous": false,
      "inputs": [
        {
          "indexed": true,
          "internalType": "address",
          "name": "newCron",
          "type": "address"
        }
      ],
      "name": "CronUpdated",
      "type": "event"
    },
    {
      "anonymous": false,
      "inputs": [
        {
          "indexed": true,
          "internalType": "contract IERC20",
          "name": "_token",
          "type": "address"
        },
        {
          "indexed": false,
          "internalType": "uint256",
          "name": "_fee0",
          "type": "uint256"
        },
        {
          "indexed": false,
          "internalType": "uint256",
          "name": "_fee1",
          "type": "uint256"
        }
      ],
      "name": "FeeClaimed",
      "type": "event"
    },
    {
      "anonymous": false,
      "inputs": [
        {
          "indexed": true,
          "internalType": "address",
          "name": "feeDestination",
          "type": "address"
        },
        {
          "indexed": false,
          "internalType": "uint256",
          "name": "fee",
          "type": "uint256"
        }
      ],
      "name": "FeeUpdated",
      "type": "event"
    },
    {
      "anonymous": false,
      "inputs": [
        {
          "indexed": false,
          "internalType": "uint64",
          "name": "version",
          "type": "uint64"
        }
      ],
      "name": "Initialized",
      "type": "event"
    },
    {
      "anonymous": false,
      "inputs": [
        {
          "indexed": false,
          "internalType": "int24",
          "name": "_launchTick",
          "type": "int24"
        },
        {
          "indexed": false,
          "internalType": "int24",
          "name": "_graduationTick",
          "type": "int24"
        },
        {
          "indexed": false,
          "internalType": "int24",
          "name": "_upperMaxTick",
          "type": "int24"
        }
      ],
      "name": "LaunchTicksUpdated",
      "type": "event"
    },
    {
      "anonymous": false,
      "inputs": [
        {
          "indexed": false,
          "internalType": "string",
          "name": "metadataUrl",
          "type": "string"
        }
      ],
      "name": "MetadataUrlUpdated",
      "type": "event"
    },
    {
      "anonymous": false,
      "inputs": [
        {
          "indexed": true,
          "internalType": "address",
          "name": "previousOwner",
          "type": "address"
        },
        {
          "indexed": true,
          "internalType": "address",
          "name": "newOwner",
          "type": "address"
        }
      ],
      "name": "OwnershipTransferred",
      "type": "event"
    },
    {
      "anonymous": false,
      "inputs": [
        {
          "indexed": true,
          "internalType": "address",
          "name": "referralDestination",
          "type": "address"
        },
        {
          "indexed": false,
          "internalType": "uint256",
          "name": "referralFee",
          "type": "uint256"
        }
      ],
      "name": "ReferralUpdated",
      "type": "event"
    },
    {
      "anonymous": false,
      "inputs": [
        {
          "indexed": true,
          "internalType": "contract IERC20",
          "name": "token",
          "type": "address"
        },
        {
          "indexed": true,
          "internalType": "address",
          "name": "adapter",
          "type": "address"
        },
        {
          "indexed": true,
          "internalType": "address",
          "name": "pool",
          "type": "address"
        },
        {
          "components": [
            {
              "internalType": "bytes32",
              "name": "salt",
              "type": "bytes32"
            },
            {
              "internalType": "string",
              "name": "metadata",
              "type": "string"
            },
            {
              "internalType": "string",
              "name": "name",
              "type": "string"
            },
            {
              "internalType": "string",
              "name": "symbol",
              "type": "string"
            }
          ],
          "indexed": false,
          "internalType": "struct ITokenLaunchpad.CreateParams",
          "name": "params",
          "type": "tuple"
        }
      ],
      "name": "TokenLaunched",
      "type": "event"
    },
    {
      "anonymous": false,
      "inputs": [
        {
          "indexed": true,
          "internalType": "address",
          "name": "from",
          "type": "address"
        },
        {
          "indexed": true,
          "internalType": "address",
          "name": "to",
          "type": "address"
        },
        {
          "indexed": true,
          "internalType": "uint256",
          "name": "tokenId",
          "type": "uint256"
        }
      ],
      "name": "Transfer",
      "type": "event"
    },
    {
      "inputs": [],
      "name": "adapter",
      "outputs": [
        {
          "internalType": "contract ICLMMAdapter",
          "name": "",
          "type": "address"
        }
      ],
      "stateMutability": "view",
      "type": "function"
    },
    {
      "inputs": [
        {
          "internalType": "address",
          "name": "to",
          "type": "address"
        },
        {
          "internalType": "uint256",
          "name": "tokenId",
          "type": "uint256"
        }
      ],
      "name": "approve",
      "outputs": [],
      "stateMutability": "nonpayable",
      "type": "function"
    },
    {
      "inputs": [
        {
          "internalType": "address",
          "name": "owner",
          "type": "address"
        }
      ],
      "name": "balanceOf",
      "outputs": [
        {
          "internalType": "uint256",
          "name": "",
          "type": "uint256"
        }
      ],
      "stateMutability": "view",
      "type": "function"
    },
    {
      "inputs": [
        {
          "internalType": "contract IERC20",
          "name": "_token",
          "type": "address"
        }
      ],
      "name": "claimFees",
      "outputs": [],
      "stateMutability": "nonpayable",
      "type": "function"
    },
    {
      "inputs": [
        {
          "internalType": "contract IERC20",
          "name": "_token",
          "type": "address"
        }
      ],
      "name": "claimedFees",
      "outputs": [
        {
          "internalType": "uint256",
          "name": "fee0",
          "type": "uint256"
        },
        {
          "internalType": "uint256",
          "name": "fee1",
          "type": "uint256"
        }
      ],
      "stateMutability": "view",
      "type": "function"
    },
    {
      "inputs": [
        {
          "components": [
            {
              "internalType": "bytes32",
              "name": "salt",
              "type": "bytes32"
            },
            {
              "internalType": "string",
              "name": "metadata",
              "type": "string"
            },
            {
              "internalType": "string",
              "name": "name",
              "type": "string"
            },
            {
              "internalType": "string",
              "name": "symbol",
              "type": "string"
            }
          ],
          "internalType": "struct ITokenLaunchpad.CreateParams",
          "name": "p",
          "type": "tuple"
        },
        {
          "internalType": "address",
          "name": "fundingToken",
          "type": "address"
        },
        {
          "internalType": "address",
          "name": "caller",
          "type": "address"
        }
      ],
      "name": "computeTokenAddress",
      "outputs": [
        {
          "internalType": "address",
          "name": "",
          "type": "address"
        },
        {
          "internalType": "bool",
          "name": "",
          "type": "bool"
        }
      ],
      "stateMutability": "view",
      "type": "function"
    },
    {
      "inputs": [
        {
          "components": [
            {
              "internalType": "bytes32",
              "name": "salt",
              "type": "bytes32"
            },
            {
              "internalType": "string",
              "name": "metadata",
              "type": "string"
            },
            {
              "internalType": "string",
              "name": "name",
              "type": "string"
            },
            {
              "internalType": "string",
              "name": "symbol",
              "type": "string"
            }
          ],
          "internalType": "struct ITokenLaunchpad.CreateParams",
          "name": "p",
          "type": "tuple"
        },
        {
          "internalType": "address",
          "name": "expected",
          "type": "address"
        },
        {
          "internalType": "uint256",
          "name": "amount",
          "type": "uint256"
        }
      ],
      "name": "createAndBuy",
      "outputs": [
        {
          "internalType": "address",
          "name": "",
          "type": "address"
        },
        {
          "internalType": "uint256",
          "name": "",
          "type": "uint256"
        },
        {
          "internalType": "uint256",
          "name": "",
          "type": "uint256"
        },
        {
          "internalType": "uint256",
          "name": "",
          "type": "uint256"
        }
      ],
      "stateMutability": "payable",
      "type": "function"
    },
    {
      "inputs": [],
      "name": "cron",
      "outputs": [
        {
          "internalType": "address",
          "name": "",
          "type": "address"
        }
      ],
      "stateMutability": "view",
      "type": "function"
    },
    {
      "inputs": [
        {
          "internalType": "contract IERC20",
          "name": "",
          "type": "address"
        },
        {
          "internalType": "contract ICLMMAdapter",
          "name": "",
          "type": "address"
        }
      ],
      "name": "defaultValueParams",
      "outputs": [
        {
          "internalType": "int24",
          "name": "launchTick",
          "type": "int24"
        },
        {
          "internalType": "int24",
          "name": "graduationTick",
          "type": "int24"
        },
        {
          "internalType": "int24",
          "name": "upperMaxTick",
          "type": "int24"
        },
        {
          "internalType": "uint24",
          "name": "fee",
          "type": "uint24"
        },
        {
          "internalType": "int24",
          "name": "tickSpacing",
          "type": "int24"
        },
        {
          "internalType": "uint256",
          "name": "graduationLiquidity",
          "type": "uint256"
        }
      ],
      "stateMutability": "view",
      "type": "function"
    },
    {
      "inputs": [],
      "name": "fundingToken",
      "outputs": [
        {
          "internalType": "contract IERC20",
          "name": "",
          "type": "address"
        }
      ],
      "stateMutability": "view",
      "type": "function"
    },
    {
      "inputs": [
        {
          "internalType": "uint256",
          "name": "tokenId",
          "type": "uint256"
        }
      ],
      "name": "getApproved",
      "outputs": [
        {
          "internalType": "address",
          "name": "",
          "type": "address"
        }
      ],
      "stateMutability": "view",
      "type": "function"
    },
    {
      "inputs": [],
      "name": "getTotalTokens",
      "outputs": [
        {
          "internalType": "uint256",
          "name": "",
          "type": "uint256"
        }
      ],
      "stateMutability": "view",
      "type": "function"
    },
    {
      "inputs": [],
      "name": "graduationTick",
      "outputs": [
        {
          "internalType": "int24",
          "name": "",
          "type": "int24"
        }
      ],
      "stateMutability": "view",
      "type": "function"
    },
    {
      "inputs": [
        {
          "internalType": "address",
          "name": "_owner",
          "type": "address"
        },
        {
          "internalType": "address",
          "name": "_fundingToken",
          "type": "address"
        },
        {
          "internalType": "address",
          "name": "_adapter",
          "type": "address"
        }
      ],
      "name": "initialize",
      "outputs": [],
      "stateMutability": "nonpayable",
      "type": "function"
    },
    {
      "inputs": [
        {
          "internalType": "address",
          "name": "owner",
          "type": "address"
        },
        {
          "internalType": "address",
          "name": "operator",
          "type": "address"
        }
      ],
      "name": "isApprovedForAll",
      "outputs": [
        {
          "internalType": "bool",
          "name": "",
          "type": "bool"
        }
      ],
      "stateMutability": "view",
      "type": "function"
    },
    {
      "inputs": [],
      "name": "launchTick",
      "outputs": [
        {
          "internalType": "int24",
          "name": "",
          "type": "int24"
        }
      ],
      "stateMutability": "view",
      "type": "function"
    },
    {
      "inputs": [],
      "name": "name",
      "outputs": [
        {
          "internalType": "string",
          "name": "",
          "type": "string"
        }
      ],
      "stateMutability": "view",
      "type": "function"
    },
    {
      "inputs": [],
      "name": "owner",
      "outputs": [
        {
          "internalType": "address",
          "name": "",
          "type": "address"
        }
      ],
      "stateMutability": "view",
      "type": "function"
    },
    {
      "inputs": [
        {
          "internalType": "uint256",
          "name": "tokenId",
          "type": "uint256"
        }
      ],
      "name": "ownerOf",
      "outputs": [
        {
          "internalType": "address",
          "name": "",
          "type": "address"
        }
      ],
      "stateMutability": "view",
      "type": "function"
    },
    {
      "inputs": [],
      "name": "renounceOwnership",
      "outputs": [],
      "stateMutability": "nonpayable",
      "type": "function"
    },
    {
      "inputs": [
        {
          "internalType": "address",
          "name": "from",
          "type": "address"
        },
        {
          "internalType": "address",
          "name": "to",
          "type": "address"
        },
        {
          "internalType": "uint256",
          "name": "tokenId",
          "type": "uint256"
        }
      ],
      "name": "safeTransferFrom",
      "outputs": [],
      "stateMutability": "nonpayable",
      "type": "function"
    },
    {
      "inputs": [
        {
          "internalType": "address",
          "name": "from",
          "type": "address"
        },
        {
          "internalType": "address",
          "name": "to",
          "type": "address"
        },
        {
          "internalType": "uint256",
          "name": "tokenId",
          "type": "uint256"
        },
        {
          "internalType": "bytes",
          "name": "data",
          "type": "bytes"
        }
      ],
      "name": "safeTransferFrom",
      "outputs": [],
      "stateMutability": "nonpayable",
      "type": "function"
    },
    {
      "inputs": [
        {
          "internalType": "address",
          "name": "operator",
          "type": "address"
        },
        {
          "internalType": "bool",
          "name": "approved",
          "type": "bool"
        }
      ],
      "name": "setApprovalForAll",
      "outputs": [],
      "stateMutability": "nonpayable",
      "type": "function"
    },
    {
      "inputs": [
        {
          "internalType": "address",
          "name": "_cron",
          "type": "address"
        }
      ],
      "name": "setCron",
      "outputs": [],
      "stateMutability": "nonpayable",
      "type": "function"
    },
    {
      "inputs": [
        {
          "internalType": "int24",
          "name": "_launchTick",
          "type": "int24"
        },
        {
          "internalType": "int24",
          "name": "_graduationTick",
          "type": "int24"
        },
        {
          "internalType": "int24",
          "name": "_upperMaxTick",
          "type": "int24"
        }
      ],
      "name": "setLaunchTicks",
      "outputs": [],
      "stateMutability": "nonpayable",
      "type": "function"
    },
    {
      "inputs": [
        {
          "internalType": "bytes4",
          "name": "interfaceId",
          "type": "bytes4"
        }
      ],
      "name": "supportsInterface",
      "outputs": [
        {
          "internalType": "bool",
          "name": "",
          "type": "bool"
        }
      ],
      "stateMutability": "view",
      "type": "function"
    },
    {
      "inputs": [],
      "name": "symbol",
      "outputs": [
        {
          "internalType": "string",
          "name": "",
          "type": "string"
        }
      ],
      "stateMutability": "view",
      "type": "function"
    },
    {
      "inputs": [
        {
          "internalType": "uint256",
          "name": "index",
          "type": "uint256"
        }
      ],
      "name": "tokenByIndex",
      "outputs": [
        {
          "internalType": "uint256",
          "name": "",
          "type": "uint256"
        }
      ],
      "stateMutability": "view",
      "type": "function"
    },
    {
      "inputs": [
        {
          "internalType": "address",
          "name": "owner",
          "type": "address"
        },
        {
          "internalType": "uint256",
          "name": "index",
          "type": "uint256"
        }
      ],
      "name": "tokenOfOwnerByIndex",
      "outputs": [
        {
          "internalType": "uint256",
          "name": "",
          "type": "uint256"
        }
      ],
      "stateMutability": "view",
      "type": "function"
    },
    {
      "inputs": [
        {
          "internalType": "contract IERC20",
          "name": "",
          "type": "address"
        }
      ],
      "name": "tokenToNftId",
      "outputs": [
        {
          "internalType": "uint256",
          "name": "",
          "type": "uint256"
        }
      ],
      "stateMutability": "view",
      "type": "function"
    },
    {
      "inputs": [
        {
          "internalType": "uint256",
          "name": "tokenId",
          "type": "uint256"
        }
      ],
      "name": "tokenURI",
      "outputs": [
        {
          "internalType": "string",
          "name": "",
          "type": "string"
        }
      ],
      "stateMutability": "view",
      "type": "function"
    },
    {
      "inputs": [
        {
          "internalType": "uint256",
          "name": "",
          "type": "uint256"
        }
      ],
      "name": "tokens",
      "outputs": [
        {
          "internalType": "contract IERC20",
          "name": "",
          "type": "address"
        }
      ],
      "stateMutability": "view",
      "type": "function"
    },
    {
      "inputs": [],
      "name": "totalSupply",
      "outputs": [
        {
          "internalType": "uint256",
          "name": "",
          "type": "uint256"
        }
      ],
      "stateMutability": "view",
      "type": "function"
    },
    {
      "inputs": [
        {
          "internalType": "address",
          "name": "from",
          "type": "address"
        },
        {
          "internalType": "address",
          "name": "to",
          "type": "address"
        },
        {
          "internalType": "uint256",
          "name": "tokenId",
          "type": "uint256"
        }
      ],
      "name": "transferFrom",
      "outputs": [],
      "stateMutability": "nonpayable",
      "type": "function"
    },
    {
      "inputs": [
        {
          "internalType": "address",
          "name": "newOwner",
          "type": "address"
        }
      ],
      "name": "transferOwnership",
      "outputs": [],
      "stateMutability": "nonpayable",
      "type": "function"
    },
    {
      "inputs": [],
      "name": "upperMaxTick",
      "outputs": [
        {
          "internalType": "int24",
          "name": "",
          "type": "int24"
        }
      ],
      "stateMutability": "view",
      "type": "function"
    },
    {
      "stateMutability": "payable",
      "type": "receive"
    }
  ],
  "transactionHash": "0xa495409f90046b60802bf11b7b3c6200dfb47d1b1a3a71d319cf2f3fc65e5302",
  "args": [],
  "numDeployments": 1,
  "solcInputHash": "dc376a8eaa66c22995ab4c117f27f18a",
  "bytecode": "0x6080806040523460155761388e908161001b8239f35b600080fdfe608080604052600436101561001d575b50361561001b57600080fd5b005b600090813560e01c90816301ffc9a714611f3c5750806303eadcfc14611f1557806306fdde0314611e66578063081812fc14611e1a578063095ea7b314611d325780630a13eb1514611c9357806313c4fefd14611b7657806315a0ea6a146118ab57806318160ddd1461188057806323b872dd146118685780632f745c59146117e35780633e370168146116e357806342842e0e146116b95780634b4782f8146116985780634f64b2be146116545780634f6ccce7146115f75780635017e08f146115d3578063529b3f97146115af5780636352211e1461157e5780636755908d1461154557806370a0823114611519578063715018a6146114af57806378065f27146114865780638d3226da14610b1e5780638da5cb5b14610ae857806395d89b41146109eb578063a22cb4651461094c578063b38db982146108e4578063b88d4fde14610880578063b90dc8ff14610857578063c0c53b8b1461034b578063c87b56dd146102ef578063e985e9c5146102a0578063f08b82e614610282578063f0f8021e146101e15763f2fde38b0361000f57346101de5760203660031901126101de576101db6101ce61200b565b6101d661291b565b612874565b80f35b80fd5b50346101de5760203660031901126101de576101fb61200b565b81546040805163787c010f60e11b81526001600160a01b0393841660048201529392909184916024918391165afa8015610275576040928291610246575b5082519182526020820152f35b90506102689150823d841161026e575b61026081836120fe565b8101906122e2565b38610239565b503d610256565b50604051903d90823e3d90fd5b50346101de57806003193601126101de576020600154604051908152f35b50346101de5760403660031901126101de576102ba61200b565b6102cb6102c5612026565b91612052565b9060018060a01b0316600052602052602060ff604060002054166040519015158152f35b50346101de5760203660031901126101de5761030c6004356128ea565b508060405161031c6020826120fe565b525061034760405161032f6020826120fe565b60008152604051918291602083526020830190611fe6565b0390f35b50346101de5760603660031901126101de5761036561200b565b9061036e612026565b9161037761203c565b6000805160206137f9833981519152549360ff8560401c1615946001600160401b0381168015908161084f575b6001149081610845575b15908161083c575b5061082d5767ffffffffffffffff1981166001176000805160206137f9833981519152556104319392919086610800575b50600280546001600160a01b03199081166001600160a01b03938416179091558554811692821692909217855560038054909216908316179055610429612a78565b6101d6612a78565b604080519261044082856120fe565b600b84526a2737ba3434b73397333ab760a91b602085015281519361046583866120fe565b60078552666e6f7468696e6760c81b6020860152610481612a78565b610489612a78565b8051906001600160401b0382116107ec5781906104b4600080516020613779833981519152546122a8565b601f811161076a575b50602090601f83116001146106df5786926106d4575b50508160011b916000199060031b1c191617600080516020613779833981519152555b83516001600160401b0381116106c05761051e600080516020613819833981519152546122a8565b601f8111610650575b50602094601f82116001146105d25794849582939495926105c7575b50508160011b916000199060031b1c191617600080516020613819833981519152555b61056e575080f35b60207fc7f505b2f371ae2175ee4913f4499e1f2633a7b5936321eed1cdaeb6115181d29168ff0000000000000000196000805160206137f983398151915254166000805160206137f9833981519152555160018152a180f35b015190503880610543565b601f19821695600080516020613819833981519152865280862091865b8881106106385750836001959697981061061f575b505050811b0160008051602061381983398151915255610566565b015160001960f88460031b161c19169055388080610604565b919260206001819286850151815501940192016105ef565b60008051602061381983398151915285527ff4bad0a69248f59680a4f2b3000328cec71a413447c96781cfe5996daa8c456e601f830160051c810191602084106106b6575b601f0160051c01905b8181106106ab5750610527565b85815560010161069e565b9091508190610695565b634e487b7160e01b84526041600452602484fd5b0151905038806104d3565b60008051602061377983398151915287526000805160206138398339815191529250601f198416875b8181106107525750908460019594939210610739575b505050811b01600080516020613779833981519152556104f6565b015160001960f88460031b161c1916905538808061071e565b92936020600181928786015181550195019301610708565b9091506000805160206137798339815191528652601f830160051c6000805160206138398339815191520190602084106107d6575b90601f8493920160051c60008051602061383983398151915201905b8181106107c857506104bd565b8781558493506001016107bb565b600080516020613839833981519152915061079f565b634e487b7160e01b85526041600452602485fd5b68ffffffffffffffffff191668010000000000000001176000805160206137f983398151915255386103e7565b63f92ee8a960e01b8552600485fd5b905015386103b6565b303b1591506103ae565b8791506103a4565b50346101de57806003193601126101de576003546040516001600160a01b039091168152602090f35b50346101de5760803660031901126101de5761089a61200b565b6108a2612026565b606435916001600160401b0383116108e057366023840112156108e0576108d66101db933690602481600401359101612150565b916044359161272d565b8380fd5b50346101de5760203660031901126101de576108fe61200b565b61090661291b565b600380546001600160a01b0319166001600160a01b039290921691821790557f1f7f5cbc206344444030774fddda7b65e61dca1ae350c7ac22915e89117dfeb48280a280f35b50346101de5760403660031901126101de5761096661200b565b602435908115158092036109e7576001600160a01b03169081156109d35761098d33612052565b8284526020526040832060ff1981541660ff83161790556040519081527f17307eab39ab6107e8899845ad3d59bd9653f200f220920489ca2b5937696c3160203392a380f35b630b61174360e31b83526004829052602483fd5b8280fd5b50346101de57806003193601126101de5760405190806000805160206138198339815191525490610a1b826122a8565b8085529160018116908115610ac15750600114610a57575b61034784610a43818603826120fe565b604051918291602083526020830190611fe6565b60008051602061381983398151915281527ff4bad0a69248f59680a4f2b3000328cec71a413447c96781cfe5996daa8c456e939250905b808210610aa757509091508101602001610a4382610a33565b919260018160209254838588010152019101909291610a8e565b60ff191660208087019190915292151560051b85019092019250610a439150839050610a33565b50346101de57806003193601126101de57600080516020613799833981519152546040516001600160a01b039091168152602090f35b5060603660031901126101de576004356001600160401b03811161111457610b4a9036906004016121a5565b610b52612026565b906044359080519060408101908151926060820193610b91855191610b836040519384926020840196339088612686565b03601f1981018352826120fe565b519020610c92610bfd610c0d604051610bad60208501826120fe565b8381526020810193612aa7853960208751610b83610bd68b5160405192839186830195866126be565b604051958694610bee858701998a9251928391611fc3565b85019151809385840190611fc3565b010103601f1981018352826120fe565b80511561147757519088f53d151981151661146c576001600160a01b031694851561145d576001600160a01b03168015908115611453575b5015611416576001548587526004602052806040882055600160401b81101561140257806001610c789201600155612242565b81546001600160a01b0360039290921b82811b199091169088901b17909155865460405163095ea7b360e01b81529116600482015260001960248201526020816044818a8a5af180156113c6576113e5575b5085546002546006546040519093926001600160a01b03928316921660a082016001600160401b038111838210176113d157918a60a492602095946040528b835285830194855260408301978060020b8952606084018160181c60020b8152608085019160301c60020b8252604051998a9788966311f9923560e11b885260018060a01b03905116600488015260018060a01b0390511660248701525160020b60448601525160020b60648501525160020b60848401525af19384156113c65786928895611357575b507f79cae2a7dc812825e94c89673e3c23bace1ac12e350153bfe26639bb9bd494d091610e21602092610e0260018060a01b038c541697610def60405196879681885280518289015201516080604088015260a0870190611fe6565b9051858203601f19016060870152611fe6565b9051838203601f190160808501526001600160a01b0390981697611fe6565b0390a481835260046020526040832054331561134357610e4081612a3e565b6001600160a01b0381168015801593919084611304575b610e603361208b565b805460010190558288527f80bb2b638cc20bc4d0a60d66940f3ab4a00c1d7b313497ca82fb0b4ab00793026020526040882080546001600160a01b031916339081179091558390837fddf252ad1be2c89b69c2b068fc378daa952ba7f163c4a11628f55a4df523b3ef8b80a415611253576000805160206137b9833981519152548288527f645e039705490088daad89bae25049a34f4a9072d398537b1ab2425f24cbed03602052806040892055600160401b81101561123f5782610f3b826001610f5494016000805160206137b983398151915255612273565b90919082549060031b91821b91600019901b1916179055565b33036111d1575b50506111bd57600254835460405163095ea7b360e01b81526001600160a01b039182166004820152600019602482015291602091839160449183918991165af18015611195576111a0575b508254600254604051633fb56b8d60e11b81526001600160a01b03918216600482015260248101859052670de0b6b3a764000060448201526064810186905291602091839160849183918991165af1908115611195578491611163575b5083918061103d575b50604060809461101b85612951565b8481526004602052205491604051938452602084015260408301526060820152f35b6002546040516323b872dd60e01b815233600482015230602482015260448101839052919593506020908290606490829087906001600160a01b03165af180156111585761112b575b508154600254604051633fb56b8d60e11b81526001600160a01b03918216600482015260248101869052604481019690965260648601849052602091869160849183918791165af19384156111205782946110e7575b50909290604061100c565b93506020843d602011611118575b81611102602093836120fe565b810103126111145792519260406110dc565b5080fd5b3d91506110f5565b6040513d84823e3d90fd5b61114c9060203d602011611151575b61114481836120fe565b810190612715565b611086565b503d61113a565b6040513d85823e3d90fd5b90506020813d60201161118d575b8161117e602093836120fe565b810103126108e0575138611003565b3d9150611171565b6040513d86823e3d90fd5b6111b89060203d6020116111515761114481836120fe565b610fa6565b6339e3563760e11b83526004839052602483fd5b6111da336126e3565b60001981019190821161122b57338752600080516020613759833981519152602052604087208288526020528060408820558652600080516020613739833981519152602052604086205538610f5b565b634e487b7160e01b87526011600452602487fd5b634e487b7160e01b88526041600452602488fd5b338114610f5457611263836126e3565b82885260008051602061373983398151915260205260408820549082895260008051602061375983398151915260205260408920918181036112cc575b508389526000805160206137398339815191526020528860408120558852602052866040812055610f54565b818a528260205260408a2054818b52836020528060408c20558a5260008051602061373983398151915260205260408a2055386112a0565b60008381526000805160206137d98339815191526020526040902080546001600160a01b03191690556113368461208b565b8054600019019055610e57565b633250574960e11b84526004849052602484fd5b91925093506020813d6020116113be575b81611375602093836120fe565b810103126113ba5751906001600160a01b03821682036113ba5790928591907f79cae2a7dc812825e94c89673e3c23bace1ac12e350153bfe26639bb9bd494d0610d93565b8680fd5b3d9150611368565b6040513d89823e3d90fd5b634e487b7160e01b8b52604160045260248bfd5b6113fd9060203d6020116111515761114481836120fe565b610cca565b634e487b7160e01b87526041600452602487fd5b60405162461bcd60e51b8152602060048201526015602482015274496e76616c696420746f6b656e206164647265737360581b6044820152606490fd5b9050851438610c45565b63b06ebf3d60e01b8752600487fd5b6040513d88823e3d90fd5b631328927760e21b8952600489fd5b50346101de57806003193601126101de576002546040516001600160a01b039091168152602090f35b50346101de57806003193601126101de576114c861291b565b60008051602061379983398151915280546001600160a01b0319811690915581906001600160a01b03167f8be0079c531659141344cd1fd0a4f28419497f9722a3daafe3b4186f6b6457e08280a380f35b50346101de5760203660031901126101de57602061153d61153861200b565b6126e3565b604051908152f35b50346101de5760203660031901126101de576020906040906001600160a01b0361156d61200b565b168152600483522054604051908152f35b50346101de5760203660031901126101de57602061159d6004356128ea565b6040516001600160a01b039091168152f35b50346101de57806003193601126101de57602060065460301c60020b604051908152f35b50346101de57806003193601126101de57602060065460181c60020b604051908152f35b50346101de5760203660031901126101de57600435906000805160206137b98339815191525482101561163e57602061162f83612273565b90549060031b1c604051908152f35b60449163295f44f760e21b825281600452602452fd5b50346101de5760203660031901126101de57600435906001548210156101de57602061167f83612242565b905460405160039290921b1c6001600160a01b03168152f35b50346101de57806003193601126101de57602060065460020b604051908152f35b50346101de576101db6116cb366120c4565b90604051926116db6020856120fe565b85845261272d565b50346101de5760603660031901126101de57600435906001600160401b0382116101de57604061171636600485016121a5565b600b611720612026565b9161172961203c565b610bfd6117a883518785019461175460608751920195610b8387518c51948593602085019788612686565b519020936020610c9294610b836117918b5194611773858a01876120fe565b88865284860198612aa78a395192518c5192839186830195866126be565b8a51958694610bee858701998a9251928391611fc3565b519020908451918583015260208201523081520160ff81536055902082516001600160a01b0391821680825292909116919091116020820152f35b50346101de5760403660031901126101de576117fd61200b565b9060243561180a836126e3565b811015611845579060409160209360018060a01b03168252600080516020613759833981519152845282822090825283522054604051908152f35b63295f44f760e21b82526001600160a01b03909216600452602491909152604490fd5b50346101de576101db61187a366120c4565b916122f8565b50346101de57806003193601126101de5760206000805160206137b983398151915254604051908152f35b50346101de5760203660031901126101de576118c561200b565b600254825460408051630ad0753560e11b81526001600160a01b039485166004820181905294938416939092839160249183918991165af19081156111955784908592611b54575b50838552600460205261192360408620546128ea565b506014810281159082810460141482171561122b5760405163a9059cbb60e01b8152738efefdbe3f3f7d48b103cd220d634cbf1d0ae1a66004820152606490910460248201526020816044818a8a5af180156113c657611b37575b5060508202908282046050141715611ae95760405163a9059cbb60e01b8152738efefdbe3f3f7d48b103cd220d634cbf1d0ae1a660048201526064909104602482015260208160448189895af1801561146c57611b1a575b506014820282159083810460141482171561122b5760405163a9059cbb60e01b8152738efefdbe3f3f7d48b103cd220d634cbf1d0ae1a66004820152606490910460248201526020816044818a895af180156113c657611afd575b50605a830290838204605a141715611ae9576064604460209288604051978894859363a9059cbb60e01b8552738efefdbe3f3f7d48b103cd220d634cbf1d0ae1a660048601520460248401525af1918215611ade577f534114bde8a4f5487c6eb9d267c214944566cf13de30333c7a2abed6857634cf93604093611abf575b5082519182526020820152a280f35b611ad79060203d6020116111515761114481836120fe565b5038611ab0565b6040513d87823e3d90fd5b634e487b7160e01b86526011600452602486fd5b611b159060203d6020116111515761114481836120fe565b611a31565b611b329060203d6020116111515761114481836120fe565b6119d6565b611b4f9060203d6020116111515761114481836120fe565b61197e565b9050611b6f915060403d60401161026e5761026081836120fe565b903861190d565b50346101de5760603660031901126101de576004358060020b908181036109e757602435918260020b91828403611c8f57604435928360020b918285036113ba576003546001600160a01b031633148015611c6e575b15611c41577f0a155c54cb5476998c107a97a0a21a05d2db7b75f44a5d31658c46e4248a03b09560609562ffffff6006549160301b68ffffff0000000000001693169068ffffffffffffffffff1916179060181b65ffffff00000016171760065560405192835260208301526040820152a180f35b60405162461bcd60e51b815260206004820152600560248201526410b1b937b760d91b6044820152606490fd5b50600080516020613799833981519152546001600160a01b03163314611bcc565b8480fd5b50346101de5760403660031901126101de57611cad61200b565b602435906001600160a01b03821682036109e7579160409160c09360018060a01b0316825260056020528282209060018060a01b031682526020522060018154910154604051918060020b83528060181c60020b60208401528060301c60020b604084015262ffffff8160481c16606084015260601c60020b608083015260a0820152f35b50346101de5760403660031901126101de57611d4c61200b565b602435611d58816128ea565b33151580611e07575b80611de9575b611dd65781906001600160a01b0384811691167f8c5be1e5ebec7d5bd14f71427d1e84f3dd0314c0f7b2291e5b200ac8c7c3b9258680a482526000805160206137d98339815191526020526040822080546001600160a01b0319166001600160a01b0390921691909117905580f35b63a9fbf51f60e01b845233600452602484fd5b50611df381612052565b338552602052604084205460ff1615611d67565b506001600160a01b038116331415611d61565b50346101de5760203660031901126101de57602061159d600435611e3d816128ea565b5060009081526000805160206137d983398151915260205260409020546001600160a01b031690565b50346101de57806003193601126101de5760405190806000805160206137798339815191525490611e96826122a8565b8085529160018116908115610ac15750600114611ebd5761034784610a43818603826120fe565b6000805160206137798339815191528152600080516020613839833981519152939250905b808210611efb57509091508101602001610a4382610a33565b919260018160209254838588010152019101909291611ee2565b50346101de57806003193601126101de57546040516001600160a01b039091168152602090f35b9050346111145760203660031901126111145760043563ffffffff60e01b81168091036109e7576020925063780e9d6360e01b8114908115611f80575b5015158152f35b6380ac58cd60e01b811491508115611fb2575b8115611fa1575b5038611f79565b6301ffc9a760e01b14905038611f9a565b635b5e139f60e01b81149150611f93565b60005b838110611fd65750506000910152565b8181015183820152602001611fc6565b90602091611fff81518092818552858086019101611fc3565b601f01601f1916010190565b600435906001600160a01b038216820361202157565b600080fd5b602435906001600160a01b038216820361202157565b604435906001600160a01b038216820361202157565b6001600160a01b031660009081527f80bb2b638cc20bc4d0a60d66940f3ab4a00c1d7b313497ca82fb0b4ab00793056020526040902090565b6001600160a01b031660009081527f80bb2b638cc20bc4d0a60d66940f3ab4a00c1d7b313497ca82fb0b4ab00793036020526040902090565b6060906003190112612021576004356001600160a01b038116810361202157906024356001600160a01b0381168103612021579060443590565b90601f801991011681019081106001600160401b0382111761211f57604052565b634e487b7160e01b600052604160045260246000fd5b6001600160401b03811161211f57601f01601f191660200190565b92919261215c82612135565b9161216a60405193846120fe565b829481845281830111612021578281602093846000960137010152565b9080601f83011215612021578160206121a293359101612150565b90565b91906080838203126120215760405190608082018281106001600160401b0382111761211f5760405281938035835260208101356001600160401b03811161202157826121f3918301612187565b602084015260408101356001600160401b0381116120215782612217918301612187565b60408401526060810135916001600160401b0383116120215760609261223d9201612187565b910152565b60015481101561225d57600160005260206000200190600090565b634e487b7160e01b600052603260045260246000fd5b6000805160206137b98339815191525481101561225d576000805160206137b983398151915260005260206000200190600090565b90600182811c921680156122d8575b60208310146122c257565b634e487b7160e01b600052602260045260246000fd5b91607f16916122b7565b9190826040910312612021576020825192015190565b9091906001600160a01b03831680156126705760009061231784612a3e565b91331515806125c4575b506001600160a01b0383169586158015612585575b61233f8261208b565b805460010190558683527f80bb2b638cc20bc4d0a60d66940f3ab4a00c1d7b313497ca82fb0b4ab00793026020526040832080546001600160a01b031916851790558684897fddf252ad1be2c89b69c2b068fc378daa952ba7f163c4a11628f55a4df523b3ef8680a4156124d4576000805160206137b9833981519152548683527f645e039705490088daad89bae25049a34f4a9072d398537b1ab2425f24cbed03602052806040842055600160401b8110156124c05786610f3b82600161241794016000805160206137b983398151915255612273565b828703612451575b5050505060018060a01b031680830361243757505050565b6364283d7b60e01b60005260045260245260445260646000fd5b61245a906126e3565b6000198101929083116124ac579060409181526000805160206137598339815191526020528181208382526020528582822055858152600080516020613739833981519152602052205538808061241f565b634e487b7160e01b82526011600452602482fd5b634e487b7160e01b83526041600452602483fd5b868314612417576124e4846126e3565b868352600080516020613739833981519152602052604083205490888452600080516020613759833981519152602052604084209181810361254d575b508784526000805160206137398339815191526020528360408120558352602052816040812055612417565b818552826020526040852054818652836020528060408720558552600080516020613739833981519152602052604085205538612521565b60008781526000805160206137d98339815191526020526040902080546001600160a01b03191690556125b78561208b565b8054600019019055612336565b8061260d575b156125d55738612321565b9250506001600160a01b03166125f757602491637e27328960e01b8252600452fd5b60449163177e802f60e01b825233600452602452fd5b506001600160a01b03831633148015612653575b806125ca575060008581526000805160206137d983398151915260205260409020546001600160a01b031633146125ca565b5061265d83612052565b338252602052604081205460ff16612621565b633250574960e11b600052600060045260246000fd5b926121a294926126b092855260018060a01b03166020850152608060408501526080840190611fe6565b916060818403910152611fe6565b90916126d56121a293604084526040840190611fe6565b916020818403910152611fe6565b6001600160a01b038116156126ff576126fb9061208b565b5490565b6322718ad960e21b600052600060045260246000fd5b90816020910312612021575180151581036120215790565b929161273a8183866122f8565b813b612747575b50505050565b604051630a85bd0160e11b81523360048201526001600160a01b0394851660248201526044810191909152608060648201529216919060209082908190612792906084830190611fe6565b03816000865af18091600091612831575b50906127fc57503d156127f5573d6127ba81612135565b906127c860405192836120fe565b81523d6000602083013e5b805190816127f05782633250574960e11b60005260045260246000fd5b602001fd5b60606127d3565b6001600160e01b03191663757a42ff60e11b0161281d575038808080612741565b633250574960e11b60005260045260246000fd5b6020813d60201161286c575b8161284a602093836120fe565b810103126111145751906001600160e01b0319821682036101de5750386127a3565b3d915061283d565b6001600160a01b031680156128d45760008051602061379983398151915280546001600160a01b0319811683179091556001600160a01b03167f8be0079c531659141344cd1fd0a4f28419497f9722a3daafe3b4186f6b6457e0600080a3565b631e4fbdf760e01b600052600060045260246000fd5b6128f381612a3e565b906001600160a01b03821615612907575090565b637e27328960e01b60005260045260246000fd5b600080516020613799833981519152546001600160a01b0316330361293c57565b63118cdaa760e01b6000523360045260246000fd5b6040516370a0823160e01b81523060048201526001600160a01b0382169190602081602481865afa9081156129fb57600091612a0c575b508015612a0757602091600091826040518581019263a9059cbb60e01b84523360248301526044820152604481526129c16064826120fe565b51925af1156129fb576000513d6129f25750803b155b6129de5750565b635274afe760e01b60005260045260246000fd5b600114156129d7565b6040513d6000823e3d90fd5b505050565b906020823d602011612a36575b81612a26602093836120fe565b810103126101de57505138612988565b3d9150612a19565b60009081527f80bb2b638cc20bc4d0a60d66940f3ab4a00c1d7b313497ca82fb0b4ab007930260205260409020546001600160a01b031690565b60ff6000805160206137f98339815191525460401c1615612a9557565b631afcd79f60e31b60005260046000fdfe60806040523461042e57610c928038038061001981610433565b92833981019060408183031261042e5780516001600160401b03811161042e5782610045918301610458565b60208201519092906001600160401b03811161042e576100659201610458565b81516001600160401b03811161033957600354600181811c91168015610424575b602082101461031957601f81116103bf575b50602092601f821160011461035a579281929360009261034f575b50508160011b916000199060031b1c1916176003555b80516001600160401b03811161033957600454600181811c9116801561032f575b602082101461031957601f81116102b4575b50602091601f821160011461025057918192600092610245575b50508160011b916000199060031b1c1916176004555b331561022f5760058054336001600160a01b0319821681179092556001600160a01b0316600080516020610c72833981519152600080a360006002546b033b2e3c9fd0803ce8000000810180911161021b576002555033600052600060205260406000206b033b2e3c9fd0803ce800000081540190556040516b033b2e3c9fd0803ce8000000815260007fddf252ad1be2c89b69c2b068fc378daa952ba7f163c4a11628f55a4df523b3ef60203393a3600580546001600160a01b031981169091556000906001600160a01b0316600080516020610c728339815191528280a36040516107ae90816104c48239f35b634e487b7160e01b82526011600452602482fd5b631e4fbdf760e01b600052600060045260246000fd5b015190503880610116565b601f198216926004600052806000209160005b85811061029c57508360019510610283575b505050811b0160045561012c565b015160001960f88460031b161c19169055388080610275565b91926020600181928685015181550194019201610263565b60046000527f8a35acfbc15ff81a39ae7d344fd709f28e8600b4aa8c65c6b64bfe7fe36bd19b601f830160051c8101916020841061030f575b601f0160051c01905b81811061030357506100fc565b600081556001016102f6565b90915081906102ed565b634e487b7160e01b600052602260045260246000fd5b90607f16906100ea565b634e487b7160e01b600052604160045260246000fd5b0151905038806100b3565b601f198216936003600052806000209160005b8681106103a7575083600195961061038e575b505050811b016003556100c9565b015160001960f88460031b161c19169055388080610380565b9192602060018192868501518155019401920161036d565b60036000527fc2575a0e9e593c00f959f8c92f12db2869c3395a3b0502d05e2516446f71f85b601f830160051c8101916020841061041a575b601f0160051c01905b81811061040e5750610098565b60008155600101610401565b90915081906103f8565b90607f1690610086565b600080fd5b6040519190601f01601f191682016001600160401b0381118382101761033957604052565b81601f8201121561042e578051906001600160401b03821161033957610487601f8301601f1916602001610433565b928284526020838301011161042e5760005b8281106104ae57505060206000918301015290565b8060208092840101518282870101520161049956fe608080604052600436101561001357600080fd5b60003560e01c90816306fdde031461054257508063095ea7b3146104bc57806318160ddd1461049e57806323b872dd146103b1578063313ce5671461039557806370a082311461035b578063715018a6146102fe5780638da5cb5b146102d557806395d89b41146101b4578063a9059cbb14610183578063dd62ed3e146101325763f2fde38b146100a357600080fd5b3461012d57602036600319011261012d576100bc61065e565b6100c461074f565b6001600160a01b0316801561011757600580546001600160a01b0319811683179091556001600160a01b03167f8be0079c531659141344cd1fd0a4f28419497f9722a3daafe3b4186f6b6457e0600080a3005b631e4fbdf760e01b600052600060045260246000fd5b600080fd5b3461012d57604036600319011261012d5761014b61065e565b610153610674565b6001600160a01b039182166000908152600160209081526040808320949093168252928352819020549051908152f35b3461012d57604036600319011261012d576101a961019f61065e565b602435903361068a565b602060405160018152f35b3461012d57600036600319011261012d5760405160006004548060011c906001811680156102cb575b6020831081146102b75782855290811561029b5750600114610244575b50819003601f01601f191681019067ffffffffffffffff82118183101761022e5761022a82918260405282610615565b0390f35b634e487b7160e01b600052604160045260246000fd5b905060046000527f8a35acfbc15ff81a39ae7d344fd709f28e8600b4aa8c65c6b64bfe7fe36bd19b6000905b828210610285575060209150820101826101fa565b6001816020925483858801015201910190610270565b90506020925060ff191682840152151560051b820101826101fa565b634e487b7160e01b84526022600452602484fd5b91607f16916101dd565b3461012d57600036600319011261012d576005546040516001600160a01b039091168152602090f35b3461012d57600036600319011261012d5761031761074f565b600580546001600160a01b031981169091556000906001600160a01b03167f8be0079c531659141344cd1fd0a4f28419497f9722a3daafe3b4186f6b6457e08280a3005b3461012d57602036600319011261012d576001600160a01b0361037c61065e565b1660005260006020526020604060002054604051908152f35b3461012d57600036600319011261012d57602060405160128152f35b3461012d57606036600319011261012d576103ca61065e565b6103d2610674565b6001600160a01b0382166000818152600160209081526040808320338452909152902054909260443592916000198110610412575b506101a9935061068a565b83811061048157841561046b573315610455576101a9946000526001602052604060002060018060a01b0333166000526020528360406000209103905584610407565b634a1406b160e11b600052600060045260246000fd5b63e602df0560e01b600052600060045260246000fd5b8390637dc7a0d960e11b6000523360045260245260445260646000fd5b3461012d57600036600319011261012d576020600254604051908152f35b3461012d57604036600319011261012d576104d561065e565b60243590331561046b576001600160a01b031690811561045557336000526001602052604060002082600052602052806040600020556040519081527f8c5be1e5ebec7d5bd14f71427d1e84f3dd0314c0f7b2291e5b200ac8c7c3b92560203392a3602060405160018152f35b3461012d57600036600319011261012d5760006003548060011c9060018116801561060b575b6020831081146102b75782855290811561029b57506001146105b45750819003601f01601f191681019067ffffffffffffffff82118183101761022e5761022a82918260405282610615565b905060036000527fc2575a0e9e593c00f959f8c92f12db2869c3395a3b0502d05e2516446f71f85b6000905b8282106105f5575060209150820101826101fa565b60018160209254838588010152019101906105e0565b91607f1691610568565b91909160208152825180602083015260005b818110610648575060409293506000838284010152601f8019910116010190565b8060208092870101516040828601015201610627565b600435906001600160a01b038216820361012d57565b602435906001600160a01b038216820361012d57565b6001600160a01b0316908115610739576001600160a01b03169182156107235760008281528060205260408120548281106107095791604082827fddf252ad1be2c89b69c2b068fc378daa952ba7f163c4a11628f55a4df523b3ef958760209652828652038282205586815280845220818154019055604051908152a3565b916064928463391434e360e21b8452600452602452604452fd5b63ec442f0560e01b600052600060045260246000fd5b634b637e8f60e11b600052600060045260246000fd5b6005546001600160a01b0316330361076357565b63118cdaa760e01b6000523360045260246000fdfea2646970667358221220fe58407ccd4e96bcffeeb63be95706bee16e5a98680f5ca9a0c3bdda72fe93a664736f6c634300081c00338be0079c531659141344cd1fd0a4f28419497f9722a3daafe3b4186f6b6457e0645e039705490088daad89bae25049a34f4a9072d398537b1ab2425f24cbed01645e039705490088daad89bae25049a34f4a9072d398537b1ab2425f24cbed0080bb2b638cc20bc4d0a60d66940f3ab4a00c1d7b313497ca82fb0b4ab00793009016d09d72d40fdae2fd8ceac6b6234c7706214fd39c1cd1e609a0528c199300645e039705490088daad89bae25049a34f4a9072d398537b1ab2425f24cbed0280bb2b638cc20bc4d0a60d66940f3ab4a00c1d7b313497ca82fb0b4ab0079304f0c57e16840df040f15088dc2f81fe391c3923bec73e23a9662efc9c229c6a0080bb2b638cc20bc4d0a60d66940f3ab4a00c1d7b313497ca82fb0b4ab007930137c58c799b6609234b945e882912ee9ad34948a1dfaa20a97485e1a7752bbf81a2646970667358221220bf7cf620588c1f5c3a728dbf39c73438d517f1629eaca16a4acdece1c251006964736f6c634300081c0033",
  "devdoc": {
    "errors": {
      "Create2EmptyBytecode()": [
        {
          "details": "There's no code to deploy."
        }
      ],
      "ERC721EnumerableForbiddenBatchMint()": [
        {
          "details": "Batch mint is not allowed."
        }
      ],
      "ERC721IncorrectOwner(address,uint256,address)": [
        {
          "details": "Indicates an error related to the ownership over a particular token. Used in transfers.",
          "params": {
            "owner": "Address of the current owner of a token.",
            "sender": "Address whose tokens are being transferred.",
            "tokenId": "Identifier number of a token."
          }
        }
      ],
      "ERC721InsufficientApproval(address,uint256)": [
        {
          "details": "Indicates a failure with the `operator`s approval. Used in transfers.",
          "params": {
            "operator": "Address that may be allowed to operate on tokens without being their owner.",
            "tokenId": "Identifier number of a token."
          }
        }
      ],
      "ERC721InvalidApprover(address)": [
        {
          "details": "Indicates a failure with the `approver` of a token to be approved. Used in approvals.",
          "params": {
            "approver": "Address initiating an approval operation."
          }
        }
      ],
      "ERC721InvalidOperator(address)": [
        {
          "details": "Indicates a failure with the `operator` to be approved. Used in approvals.",
          "params": {
            "operator": "Address that may be allowed to operate on tokens without being their owner."
          }
        }
      ],
      "ERC721InvalidOwner(address)": [
        {
          "details": "Indicates that an address can't be an owner. For example, `address(0)` is a forbidden owner in ERC-20. Used in balance queries.",
          "params": {
            "owner": "Address of the current owner of a token."
          }
        }
      ],
      "ERC721InvalidReceiver(address)": [
        {
          "details": "Indicates a failure with the token `receiver`. Used in transfers.",
          "params": {
            "receiver": "Address to which tokens are being transferred."
          }
        }
      ],
      "ERC721InvalidSender(address)": [
        {
          "details": "Indicates a failure with the token `sender`. Used in transfers.",
          "params": {
            "sender": "Address whose tokens are being transferred."
          }
        }
      ],
      "ERC721NonexistentToken(uint256)": [
        {
          "details": "Indicates a `tokenId` whose `owner` is the zero address.",
          "params": {
            "tokenId": "Identifier number of a token."
          }
        }
      ],
      "ERC721OutOfBoundsIndex(address,uint256)": [
        {
          "details": "An `owner`'s token query was out of bounds for `index`. NOTE: The owner being `address(0)` indicates a global out of bounds index."
        }
      ],
      "FailedDeployment()": [
        {
          "details": "The deployment failed."
        }
      ],
      "InsufficientBalance(uint256,uint256)": [
        {
          "details": "The ETH balance of the account is not enough to perform the operation."
        }
      ],
      "InvalidInitialization()": [
        {
          "details": "The contract is already initialized."
        }
      ],
      "NotInitializing()": [
        {
          "details": "The contract is not initializing."
        }
      ],
      "OwnableInvalidOwner(address)": [
        {
          "details": "The owner is not a valid owner account. (eg. `address(0)`)"
        }
      ],
      "OwnableUnauthorizedAccount(address)": [
        {
          "details": "The caller account is not authorized to perform an operation."
        }
      ],
      "SafeERC20FailedOperation(address)": [
        {
          "details": "An operation with an ERC-20 token failed."
        }
      ]
    },
    "events": {
      "Approval(address,address,uint256)": {
        "details": "Emitted when `owner` enables `approved` to manage the `tokenId` token."
      },
      "ApprovalForAll(address,address,bool)": {
        "details": "Emitted when `owner` enables or disables (`approved`) `operator` to manage all of its assets."
      },
      "CreatorAllocation(address,address,uint256)": {
        "params": {
          "amount": "The amount of tokens allocated to the creator",
          "creator": "The address of the creator",
          "token": "The token that was launched"
        }
      },
      "CronUpdated(address)": {
        "params": {
          "newCron": "The new cron address"
        }
      },
      "FeeClaimed(address,uint256,uint256)": {
        "params": {
          "_fee0": "The amount of fee claimed for token0",
          "_fee1": "The amount of fee claimed for token1",
          "_token": "The token that the fee was claimed for"
        }
      },
      "FeeUpdated(address,uint256)": {
        "params": {
          "fee": "The new fee amount",
          "feeDestination": "The address where fees will be sent"
        }
      },
      "Initialized(uint64)": {
        "details": "Triggered when the contract has been initialized or reinitialized."
      },
      "LaunchTicksUpdated(int24,int24,int24)": {
        "params": {
          "_graduationTick": "The new graduation tick",
          "_launchTick": "The new launch tick",
          "_upperMaxTick": "The new upper max tick"
        }
      },
      "MetadataUrlUpdated(string)": {
        "params": {
          "metadataUrl": "The new metadata URL"
        }
      },
      "ReferralUpdated(address,uint256)": {
        "params": {
          "referralDestination": "The address where referrals will be sent",
          "referralFee": "The new referral fee amount"
        }
      },
      "TokenLaunched(address,address,address,(bytes32,string,string,string))": {
        "params": {
          "adapter": "The address of the adapter used to launch the token",
          "params": "The parameters used to launch the token",
          "pool": "The address of the pool for the token",
          "token": "The token that was launched"
        }
      },
      "Transfer(address,address,uint256)": {
        "details": "Emitted when `tokenId` token is transferred from `from` to `to`."
      }
    },
    "kind": "dev",
    "methods": {
      "approve(address,uint256)": {
        "details": "See {IERC721-approve}."
      },
      "balanceOf(address)": {
        "details": "See {IERC721-balanceOf}."
      },
      "claimFees(address)": {
        "params": {
          "_token": "The token to claim fees for"
        }
      },
      "claimedFees(address)": {
        "params": {
          "_token": "The token to get the claimed fees for"
        },
        "returns": {
          "fee0": "The claimed fees for the token",
          "fee1": "The claimed fees for the token"
        }
      },
      "createAndBuy((bytes32,string,string,string),address,uint256)": {
        "params": {
          "amount": "The amount of tokens to buy",
          "expected": "The expected address where token will be deployed",
          "p": "The parameters for the token launch"
        },
        "returns": {
          "_0": "The address of the newly created token",
          "_1": "The amount of tokens received if the user chooses to buy at launch",
          "_2": "The amount of tokens swapped if the user chooses to swap at launch",
          "_3": "The token id of the newly created token"
        }
      },
      "getApproved(uint256)": {
        "details": "See {IERC721-getApproved}."
      },
      "getTotalTokens()": {
        "returns": {
          "_0": "The total count of launched tokens"
        }
      },
      "initialize(address,address,address)": {
        "params": {
          "_adapter": "The adapter address",
          "_fundingToken": "The funding token address",
          "_owner": "The owner address"
        }
      },
      "isApprovedForAll(address,address)": {
        "details": "See {IERC721-isApprovedForAll}."
      },
      "name()": {
        "details": "See {IERC721Metadata-name}."
      },
      "owner()": {
        "details": "Returns the address of the current owner."
      },
      "ownerOf(uint256)": {
        "details": "See {IERC721-ownerOf}."
      },
      "renounceOwnership()": {
        "details": "Leaves the contract without owner. It will not be possible to call `onlyOwner` functions. Can only be called by the current owner. NOTE: Renouncing ownership will leave the contract without an owner, thereby disabling any functionality that is only available to the owner."
      },
      "safeTransferFrom(address,address,uint256)": {
        "details": "See {IERC721-safeTransferFrom}."
      },
      "safeTransferFrom(address,address,uint256,bytes)": {
        "details": "See {IERC721-safeTransferFrom}."
      },
      "setApprovalForAll(address,bool)": {
        "details": "See {IERC721-setApprovalForAll}."
      },
      "supportsInterface(bytes4)": {
        "details": "See {IERC165-supportsInterface}."
      },
      "symbol()": {
        "details": "See {IERC721Metadata-symbol}."
      },
      "tokenByIndex(uint256)": {
        "details": "See {IERC721Enumerable-tokenByIndex}."
      },
      "tokenOfOwnerByIndex(address,uint256)": {
        "details": "See {IERC721Enumerable-tokenOfOwnerByIndex}."
      },
      "tokenURI(uint256)": {
        "details": "See {IERC721Metadata-tokenURI}."
      },
      "totalSupply()": {
        "details": "See {IERC721Enumerable-totalSupply}."
      },
      "transferFrom(address,address,uint256)": {
        "details": "See {IERC721-transferFrom}."
      },
      "transferOwnership(address)": {
        "details": "Transfers ownership of the contract to a new account (`newOwner`). Can only be called by the current owner."
      }
    },
    "version": 1
  },
  "userdoc": {
    "events": {
      "CreatorAllocation(address,address,uint256)": {
        "notice": "Emitted when tokens are allocated to the creator"
      },
      "CronUpdated(address)": {
        "notice": "Emitted when the cron is updated"
      },
      "FeeClaimed(address,uint256,uint256)": {
        "notice": "Emitted when a fee is claimed for a token"
      },
      "FeeUpdated(address,uint256)": {
        "notice": "Emitted when fee settings are updated"
      },
      "LaunchTicksUpdated(int24,int24,int24)": {
        "notice": "Emitted when the launch ticks are updated"
      },
      "MetadataUrlUpdated(string)": {
        "notice": "Emitted when the metadata URL is updated"
      },
      "ReferralUpdated(address,uint256)": {
        "notice": "Emitted when referral settings are updated"
      },
      "TokenLaunched(address,address,address,(bytes32,string,string,string))": {
        "notice": "Emitted when a token is launched"
      }
    },
    "kind": "user",
    "methods": {
      "adapter()": {
        "notice": "Gets the adapter"
      },
      "claimFees(address)": {
        "notice": "Claims accumulated fees for a specific token"
      },
      "claimedFees(address)": {
        "notice": "Gets the claimed fees for a token"
      },
      "createAndBuy((bytes32,string,string,string),address,uint256)": {
        "notice": "Creates a new token launch"
      },
      "fundingToken()": {
        "notice": "Gets the funding token"
      },
      "getTotalTokens()": {
        "notice": "Gets the total number of tokens launched"
      },
      "initialize(address,address,address)": {
        "notice": "Initializes the launchpad contract"
      }
    },
    "version": 1
  },
  "storageLayout": {
    "storage": [
      {
        "astId": 14333,
        "contract": "contracts/launchpad/TokenLaunchpadLinea.sol:TokenLaunchpadLinea",
        "label": "adapter",
        "offset": 0,
        "slot": "0",
        "type": "t_contract(ICLMMAdapter)12490"
      },
      {
        "astId": 14337,
        "contract": "contracts/launchpad/TokenLaunchpadLinea.sol:TokenLaunchpadLinea",
        "label": "tokens",
        "offset": 0,
        "slot": "1",
        "type": "t_array(t_contract(IERC20)3903)dyn_storage"
      },
      {
        "astId": 14340,
        "contract": "contracts/launchpad/TokenLaunchpadLinea.sol:TokenLaunchpadLinea",
        "label": "fundingToken",
        "offset": 0,
        "slot": "2",
        "type": "t_contract(IERC20)3903"
      },
      {
        "astId": 14342,
        "contract": "contracts/launchpad/TokenLaunchpadLinea.sol:TokenLaunchpadLinea",
        "label": "cron",
        "offset": 0,
        "slot": "3",
        "type": "t_address"
      },
      {
        "astId": 14347,
        "contract": "contracts/launchpad/TokenLaunchpadLinea.sol:TokenLaunchpadLinea",
        "label": "tokenToNftId",
        "offset": 0,
        "slot": "4",
        "type": "t_mapping(t_contract(IERC20)3903,t_uint256)"
      },
      {
        "astId": 14356,
        "contract": "contracts/launchpad/TokenLaunchpadLinea.sol:TokenLaunchpadLinea",
        "label": "defaultValueParams",
        "offset": 0,
        "slot": "5",
        "type": "t_mapping(t_contract(IERC20)3903,t_mapping(t_contract(ICLMMAdapter)12490,t_struct(ValueParams)12942_storage))"
      },
      {
        "astId": 14358,
        "contract": "contracts/launchpad/TokenLaunchpadLinea.sol:TokenLaunchpadLinea",
        "label": "launchTick",
        "offset": 0,
        "slot": "6",
        "type": "t_int24"
      },
      {
        "astId": 14360,
        "contract": "contracts/launchpad/TokenLaunchpadLinea.sol:TokenLaunchpadLinea",
        "label": "graduationTick",
        "offset": 3,
        "slot": "6",
        "type": "t_int24"
      },
      {
        "astId": 14362,
        "contract": "contracts/launchpad/TokenLaunchpadLinea.sol:TokenLaunchpadLinea",
        "label": "upperMaxTick",
        "offset": 6,
        "slot": "6",
        "type": "t_int24"
      }
    ],
    "types": {
      "t_address": {
        "encoding": "inplace",
        "label": "address",
        "numberOfBytes": "20"
      },
      "t_array(t_contract(IERC20)3903)dyn_storage": {
        "base": "t_contract(IERC20)3903",
        "encoding": "dynamic_array",
        "label": "contract IERC20[]",
        "numberOfBytes": "32"
      },
      "t_contract(ICLMMAdapter)12490": {
        "encoding": "inplace",
        "label": "contract ICLMMAdapter",
        "numberOfBytes": "20"
      },
      "t_contract(IERC20)3903": {
        "encoding": "inplace",
        "label": "contract IERC20",
        "numberOfBytes": "20"
      },
      "t_int24": {
        "encoding": "inplace",
        "label": "int24",
        "numberOfBytes": "3"
      },
      "t_mapping(t_contract(ICLMMAdapter)12490,t_struct(ValueParams)12942_storage)": {
        "encoding": "mapping",
        "key": "t_contract(ICLMMAdapter)12490",
        "label": "mapping(contract ICLMMAdapter => struct ITokenLaunchpad.ValueParams)",
        "numberOfBytes": "32",
        "value": "t_struct(ValueParams)12942_storage"
      },
      "t_mapping(t_contract(IERC20)3903,t_mapping(t_contract(ICLMMAdapter)12490,t_struct(ValueParams)12942_storage))": {
        "encoding": "mapping",
        "key": "t_contract(IERC20)3903",
        "label": "mapping(contract IERC20 => mapping(contract ICLMMAdapter => struct ITokenLaunchpad.ValueParams))",
        "numberOfBytes": "32",
        "value": "t_mapping(t_contract(ICLMMAdapter)12490,t_struct(ValueParams)12942_storage)"
      },
      "t_mapping(t_contract(IERC20)3903,t_uint256)": {
        "encoding": "mapping",
        "key": "t_contract(IERC20)3903",
        "label": "mapping(contract IERC20 => uint256)",
        "numberOfBytes": "32",
        "value": "t_uint256"
      },
      "t_struct(ValueParams)12942_storage": {
        "encoding": "inplace",
        "label": "struct ITokenLaunchpad.ValueParams",
        "members": [
          {
            "astId": 12931,
            "contract": "contracts/launchpad/TokenLaunchpadLinea.sol:TokenLaunchpadLinea",
            "label": "launchTick",
            "offset": 0,
            "slot": "0",
            "type": "t_int24"
          },
          {
            "astId": 12933,
            "contract": "contracts/launchpad/TokenLaunchpadLinea.sol:TokenLaunchpadLinea",
            "label": "graduationTick",
            "offset": 3,
            "slot": "0",
            "type": "t_int24"
          },
          {
            "astId": 12935,
            "contract": "contracts/launchpad/TokenLaunchpadLinea.sol:TokenLaunchpadLinea",
            "label": "upperMaxTick",
            "offset": 6,
            "slot": "0",
            "type": "t_int24"
          },
          {
            "astId": 12937,
            "contract": "contracts/launchpad/TokenLaunchpadLinea.sol:TokenLaunchpadLinea",
            "label": "fee",
            "offset": 9,
            "slot": "0",
            "type": "t_uint24"
          },
          {
            "astId": 12939,
            "contract": "contracts/launchpad/TokenLaunchpadLinea.sol:TokenLaunchpadLinea",
            "label": "tickSpacing",
            "offset": 12,
            "slot": "0",
            "type": "t_int24"
          },
          {
            "astId": 12941,
            "contract": "contracts/launchpad/TokenLaunchpadLinea.sol:TokenLaunchpadLinea",
            "label": "graduationLiquidity",
            "offset": 0,
            "slot": "1",
            "type": "t_uint256"
          }
        ],
        "numberOfBytes": "64"
      },
      "t_uint24": {
        "encoding": "inplace",
        "label": "uint24",
        "numberOfBytes": "3"
      },
      "t_uint256": {
        "encoding": "inplace",
        "label": "uint256",
        "numberOfBytes": "32"
      }
    }
  }
}