{
  "address": "0xb9eb7617c2b226636a479CBe671b58b425EB14ab",
  "abi": [
    {
      "inputs": [
        {
          "internalType": "address",
          "name": "_weth",
          "type": "address"
        },
        {
          "internalType": "address",
          "name": "_odos",
          "type": "address"
        },
        {
          "internalType": "address",
          "name": "_launchpad",
          "type": "address"
        }
      ],
      "stateMutability": "nonpayable",
      "type": "constructor"
    },
    {
      "inputs": [
        {
          "internalType": "address",
          "name": "token",
          "type": "address"
        }
      ],
      "name": "SafeERC20FailedOperation",
      "type": "error"
    },
    {
      "inputs": [],
      "name": "ODOS",
      "outputs": [
        {
          "internalType": "address",
          "name": "",
          "type": "address"
        }
      ],
      "stateMutability": "view",
      "type": "function"
    },
    {
      "inputs": [],
      "name": "adapter",
      "outputs": [
        {
          "internalType": "contract ICLMMAdapter",
          "name": "",
          "type": "address"
        }
      ],
      "stateMutability": "view",
      "type": "function"
    },
    {
      "inputs": [
        {
          "components": [
            {
              "internalType": "contract IERC20",
              "name": "tokenIn",
              "type": "address"
            },
            {
              "internalType": "uint256",
              "name": "tokenAmountIn",
              "type": "uint256"
            },
            {
              "internalType": "contract IERC20",
              "name": "odosTokenIn",
              "type": "address"
            },
            {
              "internalType": "uint256",
              "name": "odosTokenAmountIn",
              "type": "uint256"
            },
            {
              "internalType": "uint256",
              "name": "minOdosTokenAmountOut",
              "type": "uint256"
            },
            {
              "internalType": "contract IERC20",
              "name": "odosTokenOut",
              "type": "address"
            },
            {
              "internalType": "bytes",
              "name": "odosData",
              "type": "bytes"
            }
          ],
          "internalType": "struct UIHelper.OdosParams",
          "name": "_odosParams",
          "type": "tuple"
        },
        {
          "internalType": "contract IERC20",
          "name": "_tokenOut",
          "type": "address"
        },
        {
          "internalType": "uint256",
          "name": "_minAmountOut",
          "type": "uint256"
        }
      ],
      "name": "buyWithExactInputWithOdos",
      "outputs": [
        {
          "internalType": "uint256",
          "name": "amountOut",
          "type": "uint256"
        }
      ],
      "stateMutability": "payable",
      "type": "function"
    },
    {
      "inputs": [
        {
          "components": [
            {
              "internalType": "contract IERC20",
              "name": "tokenIn",
              "type": "address"
            },
            {
              "internalType": "uint256",
              "name": "tokenAmountIn",
              "type": "uint256"
            },
            {
              "internalType": "contract IERC20",
              "name": "odosTokenIn",
              "type": "address"
            },
            {
              "internalType": "uint256",
              "name": "odosTokenAmountIn",
              "type": "uint256"
            },
            {
              "internalType": "uint256",
              "name": "minOdosTokenAmountOut",
              "type": "uint256"
            },
            {
              "internalType": "contract IERC20",
              "name": "odosTokenOut",
              "type": "address"
            },
            {
              "internalType": "bytes",
              "name": "odosData",
              "type": "bytes"
            }
          ],
          "internalType": "struct UIHelper.OdosParams",
          "name": "_odosParams",
          "type": "tuple"
        },
        {
          "components": [
            {
              "internalType": "bytes32",
              "name": "salt",
              "type": "bytes32"
            },
            {
              "internalType": "string",
              "name": "metadata",
              "type": "string"
            },
            {
              "internalType": "string",
              "name": "name",
              "type": "string"
            },
            {
              "internalType": "string",
              "name": "symbol",
              "type": "string"
            }
          ],
          "internalType": "struct ITokenLaunchpad.CreateParams",
          "name": "_params",
          "type": "tuple"
        },
        {
          "internalType": "address",
          "name": "_expected",
          "type": "address"
        },
        {
          "internalType": "uint256",
          "name": "_amount",
          "type": "uint256"
        }
      ],
      "name": "createAndBuy",
      "outputs": [
        {
          "internalType": "address",
          "name": "token",
          "type": "address"
        },
        {
          "internalType": "uint256",
          "name": "received",
          "type": "uint256"
        },
        {
          "internalType": "uint256",
          "name": "swapped",
          "type": "uint256"
        },
        {
          "internalType": "uint256",
          "name": "tokenId",
          "type": "uint256"
        }
      ],
      "stateMutability": "payable",
      "type": "function"
    },
    {
      "inputs": [],
      "name": "fundingToken",
      "outputs": [
        {
          "internalType": "contract IERC20",
          "name": "",
          "type": "address"
        }
      ],
      "stateMutability": "view",
      "type": "function"
    },
    {
      "inputs": [],
      "name": "launchpad",
      "outputs": [
        {
          "internalType": "contract ITokenLaunchpad",
          "name": "",
          "type": "address"
        }
      ],
      "stateMutability": "view",
      "type": "function"
    },
    {
      "inputs": [
        {
          "components": [
            {
              "internalType": "contract IERC20",
              "name": "tokenIn",
              "type": "address"
            },
            {
              "internalType": "uint256",
              "name": "tokenAmountIn",
              "type": "uint256"
            },
            {
              "internalType": "contract IERC20",
              "name": "odosTokenIn",
              "type": "address"
            },
            {
              "internalType": "uint256",
              "name": "odosTokenAmountIn",
              "type": "uint256"
            },
            {
              "internalType": "uint256",
              "name": "minOdosTokenAmountOut",
              "type": "uint256"
            },
            {
              "internalType": "contract IERC20",
              "name": "odosTokenOut",
              "type": "address"
            },
            {
              "internalType": "bytes",
              "name": "odosData",
              "type": "bytes"
            }
          ],
          "internalType": "struct UIHelper.OdosParams",
          "name": "_odosParams",
          "type": "tuple"
        },
        {
          "internalType": "contract IERC20",
          "name": "_tokenIn",
          "type": "address"
        },
        {
          "internalType": "uint256",
          "name": "_amountToSell",
          "type": "uint256"
        }
      ],
      "name": "sellWithExactInputWithOdos",
      "outputs": [
        {
          "internalType": "uint256",
          "name": "amountSwapOut",
          "type": "uint256"
        }
      ],
      "stateMutability": "payable",
      "type": "function"
    },
    {
      "inputs": [],
      "name": "weth",
      "outputs": [
        {
          "internalType": "contract IWETH9",
          "name": "",
          "type": "address"
        }
      ],
      "stateMutability": "view",
      "type": "function"
    },
    {
      "stateMutability": "payable",
      "type": "receive"
    }
  ],
  "transactionHash": "0x58a14d46f3b96fa305cbf3c59238af452d3630ec0f9cefce37dfcbeee9b399e3",
  "args": [
    "0xe5d7c2a44ffddf6b295a15c148167daaaf5cf34f",
    "0x2d8879046f1559E53eb052E949e9544bCB72f414",
    "0xE38cfDc4Bee3085b60D84fB0bc316A8Df9fd35dB"
  ],
  "numDeployments": 1,
  "solcInputHash": "dc376a8eaa66c22995ab4c117f27f18a",
  "bytecode": "0x61012080604052346102c0576060816112d1803803809161002082856102c5565b8339810103126102c0576020816100386004936102fe565b9061005060406100498584016102fe565b92016102fe565b6001600160a01b0392831660805260a0919091521660c081905260405162fab73f60e21b815292839182905afa90811561020b5760009161027e575b5060e05260c0516040516378065f2760e01b815290602090829060049082906001600160a01b03165afa90811561020b57600091610234575b5061010081905260e05160405163095ea7b360e01b81526001600160a01b03918216600482015260001960248201529160209183916044918391600091165af1801561020b57610217575b506101005160c05160405163095ea7b360e01b81526001600160a01b03918216600482015260001960248201529160209183916044918391600091165af1801561020b576101dc575b604051610fa6908161032b82396080518161040c015260a0518181816103c701528181610b460152610c86015260c0518181816101a401528181610551015281816107330152610890015260e05181818161046c015281816106f6015261084d015261010051818181610382015281816104e5015281816106750152610d910152f35b6101fd9060203d602011610204575b6101f581836102c5565b810190610312565b5038610159565b503d6101eb565b6040513d6000823e3d90fd5b61022f9060203d602011610204576101f581836102c5565b610110565b6020813d602011610276575b8161024d602093836102c5565b810103126102725751906001600160a01b038216820361026f575060206100c5565b80fd5b5080fd5b3d9150610240565b6020813d6020116102b8575b81610297602093836102c5565b810103126102725751906001600160a01b038216820361026f57503861008c565b3d915061028a565b600080fd5b601f909101601f19168101906001600160401b038211908210176102e857604052565b634e487b7160e01b600052604160045260246000fd5b51906001600160a01b03821682036102c057565b908160209103126102c0575180151581036102c0579056fe608080604052600436101561001d575b50361561001b57600080fd5b005b600090813560e01c90816302669b521461087c5750806303eadcfc1461083757806311f173af146106495780631986ceba1461043b5780633fc8cef3146103f657806349df106b146103b157806378065f271461036c5763f014825b0361000f5760803660031901126102c95760043567ffffffffffffffff81116102d7576100aa90369060040161095e565b60243567ffffffffffffffff81116103685760806003198236030112610368576040516080810181811067ffffffffffffffff8211176103545760405281600401358152602482013567ffffffffffffffff8111610331576101129060043691850101610a53565b60208201908152604483013567ffffffffffffffff81116103505761013d9060043691860101610a53565b926040830193845260648101359067ffffffffffffffff821161034c5760046101699236920101610a53565b90606083019182526044359260018060a01b03841680940361034c576101f59361021b60809461019889610afa565b61020860018060a01b037f000000000000000000000000000000000000000000000000000000000000000016986040519889978897634699136d60e11b8952606060048a01525160648901525189608489015260e4880190610a89565b90518682036063190160a4880152610a89565b90518482036063190160c4860152610a89565b9060248301526064356044830152038187865af191821561034157848091819382956102db575b50803b156102d757604051632142170760e11b8152306004820152336024820152604481018690529082908290606490829084905af180156102cc576102b4575b506080956001600160a01b03169461029d91508590610d46565b604051938452602084015260408301526060820152f35b6102bf8280926108bf565b6102c95780610283565b80fd5b6040513d84823e3d90fd5b5080fd5b935093509450506080813d608011610339575b816102fb608093836108bf565b81010312610335578051906001600160a01b03821682036103315760208101519460606040830151920151929591929338610242565b8480fd5b8380fd5b3d91506102ee565b6040513d86823e3d90fd5b8680fd5b8580fd5b634e487b7160e01b85526041600452602485fd5b8280fd5b50346102c957806003193601126102c9576040517f00000000000000000000000000000000000000000000000000000000000000006001600160a01b03168152602090f35b50346102c957806003193601126102c9576040517f00000000000000000000000000000000000000000000000000000000000000006001600160a01b03168152602090f35b50346102c957806003193601126102c9576040517f00000000000000000000000000000000000000000000000000000000000000006001600160a01b03168152602090f35b508061044636610a0d565b92919061045584303384610dce565b60405163095ea7b360e01b81526001600160a01b037f00000000000000000000000000000000000000000000000000000000000000008116600483018190526000196024840152919590831693919060208760448189895af191821561063e5761052997602093610613575b5083830151604051633fb56b8d60e11b81526001600160a01b0380881660048301527f00000000000000000000000000000000000000000000000000000000000000001660248201526044810193909352606483015290968791908290889082906084820190565b03925af19485156103415784956105d3575b50908161054a61054f93610afa565b610d46565b7f00000000000000000000000000000000000000000000000000000000000000006001600160a01b0316803b1561036857602483926040519485938492630ad0753560e11b845260048401525af180156105c8576105b3575b602082604051908152f35b6105be8380926108bf565b6102d757816105a8565b6040513d85823e3d90fd5b91935093506020813d60201161060b575b816105f1602093836108bf565b8101031261060657519284929061054f61053b565b600080fd5b3d91506105e4565b61063290843d8611610637575b61062a81836108bf565b810190610a71565b6104c1565b503d610620565b6040513d88823e3d90fd5b508061065436610a0d565b929161065f81610afa565b6040516370a0823160e01b8152306004820152937f0000000000000000000000000000000000000000000000000000000000000000906020866024816001600160a01b0386165afa95861561082c5785966107f7575b50604051633fb56b8d60e11b81526001600160a01b0392831660048201528483166024820152604481019690965260648601526020908590608490829087907f0000000000000000000000000000000000000000000000000000000000000000165af19384156105c85783946107c3575b508161073191610d46565b7f00000000000000000000000000000000000000000000000000000000000000006001600160a01b0316803b1561036857604051630ad0753560e11b81526001600160a01b0390921660048301529093829185916024918391905af19283156107b6576020936107a6575b5050604051908152f35b816107b0916108bf565b3861079c565b50604051903d90823e3d90fd5b9093506020813d6020116107ef575b816107df602093836108bf565b8101031261036857519281610726565b3d91506107d2565b9095506020813d602011610824575b81610813602093836108bf565b8101031261033157519460206106b5565b3d9150610806565b6040513d87823e3d90fd5b50346102c957806003193601126102c9576040517f00000000000000000000000000000000000000000000000000000000000000006001600160a01b03168152602090f35b9050346102d757816003193601126102d7577f00000000000000000000000000000000000000000000000000000000000000006001600160a01b03168152602090f35b90601f8019910116810190811067ffffffffffffffff8211176108e157604052565b634e487b7160e01b600052604160045260246000fd5b35906001600160a01b038216820361060657565b67ffffffffffffffff81116108e157601f01601f191660200190565b9291926109338261090b565b9161094160405193846108bf565b829481845281830111610606578281602093846000960137010152565b919060e083820312610606576040519060e0820182811067ffffffffffffffff8211176108e1576040528193610993816108f7565b8352602081013560208401526109ab604082016108f7565b604084015260608101356060840152608081013560808401526109d060a082016108f7565b60a084015260c08101359067ffffffffffffffff8211610606570181601f820112156106065760c091816020610a0893359101610927565b910152565b6060600319820112610606576004359067ffffffffffffffff821161060657610a389160040161095e565b906024356001600160a01b0381168103610606579060443590565b9080601f8301121561060657816020610a6e93359101610927565b90565b90816020910312610606575180151581036106065790565b919082519283825260005b848110610ab5575050826000602080949584010152601f8019910116010190565b80602080928401015182828601015201610a94565b3d15610af5573d90610adb8261090b565b91610ae960405193846108bf565b82523d6000602084013e565b606090565b80516001600160a01b031680610d2f575060208101513403610cf5575b80516001600160a01b031680610c77575b5060c081015180519081610b3b57505050565b6000916020839201347f00000000000000000000000000000000000000000000000000000000000000005af1610b6f610aca565b5015610c3f57608081018051610b83575050565b60a0909101516040516370a0823160e01b81523060048201529190602090839060249082906001600160a01b03165afa918215610c3357600092610bff575b505111610bcb57565b60405162461bcd60e51b815260206004820152600c60248201526b10b6b4b720b6b7bab73a24b760a11b6044820152606490fd5b9091506020813d602011610c2b575b81610c1b602093836108bf565b8101031261060657519038610bc2565b3d9150610c0e565b6040513d6000823e3d90fd5b60405162461bcd60e51b815260206004820152601060248201526f13d91bdcc818d85b1b0819985a5b195960821b6044820152606490fd5b60405163095ea7b360e01b81527f00000000000000000000000000000000000000000000000000000000000000006001600160a01b03166004820152600019602482015290602090829060449082906000905af18015610c335715610b2857610cee9060203d6020116106375761062a81836108bf565b5038610b28565b60405162461bcd60e51b8152602060048201526012602482015271125b9d985b1a590811551208185b5bdd5b9d60721b6044820152606490fd5b6020820151610d419130903390610dce565b610b17565b8051610dcc9291610d8c91610d63906001600160a01b0316610e17565b6040810151610d7a906001600160a01b0316610e17565b60a001516001600160a01b0316610e17565b610dbe7f00000000000000000000000000000000000000000000000000000000000000006001600160a01b0316610e17565b6001600160a01b0316610e17565b565b6040516323b872dd60e01b60208201526001600160a01b039283166024820152929091166044830152606480830193909352918152610dcc91610e126084836108bf565b610f15565b6001600160a01b031680610e7d575047610e2d57565b600080808047335af1610e3e610aca565b50610dcc5760405162461bcd60e51b815260206004820152601260248201527108cc2d2d8cac840e8de40e6cadcc8408aa8960731b6044820152606490fd5b6040516370a0823160e01b8152306004820152602081602481855afa908115610c3357600091610ee3575b5080610eb2575050565b60405163a9059cbb60e01b6020820152336024820152604480820192909252908152610dcc91610e126064836108bf565b906020823d602011610f0d575b81610efd602093836108bf565b810103126102c957505138610ea8565b3d9150610ef0565b906000602091828151910182855af115610c33576000513d610f6757506001600160a01b0381163b155b610f465750565b635274afe760e01b60009081526001600160a01b0391909116600452602490fd5b60011415610f3f56fea26469706673582212200dcdca8ad1ade11ed99f8a256397c91c8d49a0f73ebed194ca1f99880e1b026064736f6c634300081c0033",
  "devdoc": {
    "errors": {
      "SafeERC20FailedOperation(address)": [
        {
          "details": "An operation with an ERC-20 token failed."
        }
      ]
    },
    "kind": "dev",
    "methods": {
      "buyWithExactInputWithOdos((address,uint256,address,uint256,uint256,address,bytes),address,uint256)": {
        "params": {
          "_minAmountOut": "The minimum amount of tokens to receive",
          "_odosParams": "The parameters for the zap",
          "_tokenOut": "The token to receive"
        }
      },
      "sellWithExactInputWithOdos((address,uint256,address,uint256,uint256,address,bytes),address,uint256)": {
        "params": {
          "_amountToSell": "The amount of tokens to sell",
          "_odosParams": "The parameters for the zap",
          "_tokenIn": "The token to sell"
        }
      }
    },
    "version": 1
  },
  "userdoc": {
    "kind": "user",
    "methods": {
      "buyWithExactInputWithOdos((address,uint256,address,uint256,uint256,address,bytes),address,uint256)": {
        "notice": "Buys a token with exact input using ODOS"
      },
      "sellWithExactInputWithOdos((address,uint256,address,uint256,uint256,address,bytes),address,uint256)": {
        "notice": "Sells a token with exact input using ODOS"
      }
    },
    "version": 1
  },
  "storageLayout": {
    "storage": [],
    "types": null
  }
}